{
  "contractName": "BSN",
  "abi": [
    {
      "inputs": [
        {
          "internalType": "address",
          "name": "_BSNData",
          "type": "address"
        },
        {
          "internalType": "address",
          "name": "_oracle",
          "type": "address"
        },
        {
          "internalType": "address",
          "name": "_factory",
          "type": "address"
        },
        {
          "internalType": "address",
          "name": "_BETH",
          "type": "address"
        },
        {
          "internalType": "address",
          "name": "_BUSD",
          "type": "address"
        },
        {
          "internalType": "address",
          "name": "_windToken",
          "type": "address"
        },
        {
          "internalType": "address",
          "name": "_teamAddress",
          "type": "address"
        }
      ],
      "stateMutability": "nonpayable",
      "type": "constructor"
    },
    {
      "anonymous": false,
      "inputs": [
        {
          "indexed": true,
          "internalType": "address",
          "name": "_addr",
          "type": "address"
        },
        {
          "indexed": false,
          "internalType": "bool",
          "name": "_access",
          "type": "bool"
        }
      ],
      "name": "AccessAllowedAddress",
      "type": "event"
    },
    {
      "anonymous": false,
      "inputs": [
        {
          "indexed": true,
          "internalType": "address",
          "name": "_user",
          "type": "address"
        },
        {
          "indexed": false,
          "internalType": "uint256",
          "name": "_amount",
          "type": "uint256"
        },
        {
          "indexed": false,
          "internalType": "uint256",
          "name": "_dayNum",
          "type": "uint256"
        },
        {
          "indexed": false,
          "internalType": "uint256",
          "name": "_time",
          "type": "uint256"
        }
      ],
      "name": "AddPoolMoney",
      "type": "event"
    },
    {
      "anonymous": false,
      "inputs": [
        {
          "indexed": true,
          "internalType": "address",
          "name": "_user",
          "type": "address"
        },
        {
          "indexed": false,
          "internalType": "uint256",
          "name": "_startBlock",
          "type": "uint256"
        },
        {
          "indexed": false,
          "internalType": "uint256",
          "name": "_openBlock",
          "type": "uint256"
        }
      ],
      "name": "Invest",
      "type": "event"
    },
    {
      "anonymous": false,
      "inputs": [
        {
          "indexed": true,
          "internalType": "address",
          "name": "_user",
          "type": "address"
        },
        {
          "indexed": false,
          "internalType": "uint256",
          "name": "_amount",
          "type": "uint256"
        },
        {
          "indexed": false,
          "internalType": "uint256",
          "name": "_trueAmount",
          "type": "uint256"
        },
        {
          "indexed": false,
          "internalType": "uint256",
          "name": "_time",
          "type": "uint256"
        },
        {
          "indexed": false,
          "internalType": "uint256",
          "name": "_block",
          "type": "uint256"
        }
      ],
      "name": "MarkerRedeem",
      "type": "event"
    },
    {
      "anonymous": false,
      "inputs": [
        {
          "indexed": false,
          "internalType": "uint256",
          "name": "_amount",
          "type": "uint256"
        },
        {
          "indexed": false,
          "internalType": "uint256",
          "name": "_windAmount",
          "type": "uint256"
        },
        {
          "indexed": false,
          "internalType": "uint256",
          "name": "_orderId",
          "type": "uint256"
        },
        {
          "indexed": true,
          "internalType": "address",
          "name": "_user",
          "type": "address"
        }
      ],
      "name": "OpenAward",
      "type": "event"
    },
    {
      "anonymous": false,
      "inputs": [
        {
          "indexed": true,
          "internalType": "address",
          "name": "previousOwner",
          "type": "address"
        },
        {
          "indexed": true,
          "internalType": "address",
          "name": "newOwner",
          "type": "address"
        }
      ],
      "name": "OwnershipTransferred",
      "type": "event"
    },
    {
      "anonymous": false,
      "inputs": [
        {
          "indexed": false,
          "internalType": "uint256",
          "name": "_dayNum",
          "type": "uint256"
        },
        {
          "indexed": false,
          "internalType": "uint256",
          "name": "_canReceive",
          "type": "uint256"
        },
        {
          "indexed": false,
          "internalType": "address",
          "name": "_user",
          "type": "address"
        }
      ],
      "name": "ReceiveDividends",
      "type": "event"
    },
    {
      "anonymous": false,
      "inputs": [
        {
          "indexed": false,
          "internalType": "uint256",
          "name": "_min",
          "type": "uint256"
        },
        {
          "indexed": false,
          "internalType": "uint256",
          "name": "_max",
          "type": "uint256"
        }
      ],
      "name": "SetAddMarketLimit",
      "type": "event"
    },
    {
      "anonymous": false,
      "inputs": [
        {
          "indexed": false,
          "internalType": "address",
          "name": "_old",
          "type": "address"
        },
        {
          "indexed": false,
          "internalType": "address",
          "name": "_new",
          "type": "address"
        }
      ],
      "name": "SetBSNDataAddress",
      "type": "event"
    },
    {
      "anonymous": false,
      "inputs": [
        {
          "indexed": false,
          "internalType": "address",
          "name": "_old",
          "type": "address"
        },
        {
          "indexed": false,
          "internalType": "address",
          "name": "_new",
          "type": "address"
        }
      ],
      "name": "SetFactoryAddress",
      "type": "event"
    },
    {
      "anonymous": false,
      "inputs": [
        {
          "indexed": false,
          "internalType": "bool",
          "name": "_old",
          "type": "bool"
        },
        {
          "indexed": false,
          "internalType": "bool",
          "name": "_new",
          "type": "bool"
        }
      ],
      "name": "SetHaveWinUsd",
      "type": "event"
    },
    {
      "anonymous": false,
      "inputs": [
        {
          "indexed": false,
          "internalType": "address",
          "name": "_old",
          "type": "address"
        },
        {
          "indexed": false,
          "internalType": "address",
          "name": "_new",
          "type": "address"
        }
      ],
      "name": "SetOracleAddress",
      "type": "event"
    },
    {
      "anonymous": false,
      "inputs": [
        {
          "indexed": false,
          "internalType": "address",
          "name": "_BETH",
          "type": "address"
        },
        {
          "indexed": false,
          "internalType": "address",
          "name": "_BUSD",
          "type": "address"
        }
      ],
      "name": "SetPairAddress",
      "type": "event"
    },
    {
      "anonymous": false,
      "inputs": [
        {
          "indexed": false,
          "internalType": "uint256",
          "name": "_failRate",
          "type": "uint256"
        },
        {
          "indexed": false,
          "internalType": "uint256",
          "name": "_successRate",
          "type": "uint256"
        }
      ],
      "name": "SetRate",
      "type": "event"
    },
    {
      "anonymous": false,
      "inputs": [
        {
          "indexed": false,
          "internalType": "address",
          "name": "_old",
          "type": "address"
        },
        {
          "indexed": false,
          "internalType": "address",
          "name": "_new",
          "type": "address"
        }
      ],
      "name": "SetTeamAddress",
      "type": "event"
    },
    {
      "anonymous": false,
      "inputs": [
        {
          "indexed": false,
          "internalType": "address",
          "name": "_old",
          "type": "address"
        },
        {
          "indexed": false,
          "internalType": "address",
          "name": "_new",
          "type": "address"
        }
      ],
      "name": "SetWindTokenAddress",
      "type": "event"
    },
    {
      "anonymous": false,
      "inputs": [
        {
          "indexed": false,
          "internalType": "uint256",
          "name": "_amount",
          "type": "uint256"
        },
        {
          "indexed": false,
          "internalType": "uint256",
          "name": "_dayNum",
          "type": "uint256"
        },
        {
          "indexed": false,
          "internalType": "uint256",
          "name": "_busdAmount",
          "type": "uint256"
        }
      ],
      "name": "ShareBonus",
      "type": "event"
    },
    {
      "inputs": [],
      "name": "BETH",
      "outputs": [
        {
          "internalType": "address",
          "name": "",
          "type": "address"
        }
      ],
      "stateMutability": "view",
      "type": "function"
    },
    {
      "inputs": [],
      "name": "BSNData",
      "outputs": [
        {
          "internalType": "address",
          "name": "",
          "type": "address"
        }
      ],
      "stateMutability": "view",
      "type": "function"
    },
    {
      "inputs": [],
      "name": "BUSD",
      "outputs": [
        {
          "internalType": "address",
          "name": "",
          "type": "address"
        }
      ],
      "stateMutability": "view",
      "type": "function"
    },
    {
      "inputs": [],
      "name": "BUSDDecimals",
      "outputs": [
        {
          "internalType": "uint256",
          "name": "",
          "type": "uint256"
        }
      ],
      "stateMutability": "view",
      "type": "function"
    },
    {
      "inputs": [],
      "name": "addMarketMax",
      "outputs": [
        {
          "internalType": "uint256",
          "name": "",
          "type": "uint256"
        }
      ],
      "stateMutability": "view",
      "type": "function"
    },
    {
      "inputs": [],
      "name": "addMarketMin",
      "outputs": [
        {
          "internalType": "uint256",
          "name": "",
          "type": "uint256"
        }
      ],
      "stateMutability": "view",
      "type": "function"
    },
    {
      "inputs": [
        {
          "internalType": "uint256",
          "name": "",
          "type": "uint256"
        },
        {
          "internalType": "uint256",
          "name": "",
          "type": "uint256"
        }
      ],
      "name": "dayMinuteNum",
      "outputs": [
        {
          "internalType": "uint256",
          "name": "",
          "type": "uint256"
        }
      ],
      "stateMutability": "view",
      "type": "function"
    },
    {
      "inputs": [],
      "name": "failRate",
      "outputs": [
        {
          "internalType": "uint256",
          "name": "",
          "type": "uint256"
        }
      ],
      "stateMutability": "view",
      "type": "function"
    },
    {
      "inputs": [
        {
          "internalType": "address",
          "name": "",
          "type": "address"
        },
        {
          "internalType": "uint256",
          "name": "",
          "type": "uint256"
        }
      ],
      "name": "isDividend",
      "outputs": [
        {
          "internalType": "bool",
          "name": "",
          "type": "bool"
        }
      ],
      "stateMutability": "view",
      "type": "function"
    },
    {
      "inputs": [],
      "name": "isHaveWinUsd",
      "outputs": [
        {
          "internalType": "bool",
          "name": "",
          "type": "bool"
        }
      ],
      "stateMutability": "view",
      "type": "function"
    },
    {
      "inputs": [
        {
          "internalType": "uint256",
          "name": "",
          "type": "uint256"
        }
      ],
      "name": "marketTypeIds",
      "outputs": [
        {
          "internalType": "uint256",
          "name": "",
          "type": "uint256"
        }
      ],
      "stateMutability": "view",
      "type": "function"
    },
    {
      "inputs": [
        {
          "internalType": "uint256",
          "name": "",
          "type": "uint256"
        }
      ],
      "name": "marketTypes",
      "outputs": [
        {
          "internalType": "uint256",
          "name": "minute",
          "type": "uint256"
        },
        {
          "internalType": "uint256",
          "name": "duration",
          "type": "uint256"
        },
        {
          "internalType": "uint256",
          "name": "minAmount",
          "type": "uint256"
        },
        {
          "internalType": "uint256",
          "name": "maxAmount",
          "type": "uint256"
        },
        {
          "internalType": "bool",
          "name": "isExist",
          "type": "bool"
        }
      ],
      "stateMutability": "view",
      "type": "function"
    },
    {
      "inputs": [],
      "name": "owner",
      "outputs": [
        {
          "internalType": "address",
          "name": "",
          "type": "address"
        }
      ],
      "stateMutability": "view",
      "type": "function"
    },
    {
      "inputs": [],
      "name": "renounceOwnership",
      "outputs": [],
      "stateMutability": "nonpayable",
      "type": "function"
    },
    {
      "inputs": [],
      "name": "successRate",
      "outputs": [
        {
          "internalType": "uint256",
          "name": "",
          "type": "uint256"
        }
      ],
      "stateMutability": "view",
      "type": "function"
    },
    {
      "inputs": [
        {
          "internalType": "address",
          "name": "newOwner",
          "type": "address"
        }
      ],
      "name": "transferOwnership",
      "outputs": [],
      "stateMutability": "nonpayable",
      "type": "function"
    },
    {
      "inputs": [],
      "name": "windToken",
      "outputs": [
        {
          "internalType": "address",
          "name": "",
          "type": "address"
        }
      ],
      "stateMutability": "view",
      "type": "function"
    },
    {
      "inputs": [],
      "name": "windTokenDecimals",
      "outputs": [
        {
          "internalType": "uint256",
          "name": "",
          "type": "uint256"
        }
      ],
      "stateMutability": "view",
      "type": "function"
    },
    {
      "inputs": [
        {
          "internalType": "address",
          "name": "_addr",
          "type": "address"
        }
      ],
      "name": "allowAccess",
      "outputs": [],
      "stateMutability": "nonpayable",
      "type": "function"
    },
    {
      "inputs": [
        {
          "internalType": "address",
          "name": "_addr",
          "type": "address"
        }
      ],
      "name": "denyAccess",
      "outputs": [],
      "stateMutability": "nonpayable",
      "type": "function"
    },
    {
      "inputs": [
        {
          "internalType": "bool",
          "name": "_have",
          "type": "bool"
        }
      ],
      "name": "setHaveWinUsd",
      "outputs": [],
      "stateMutability": "nonpayable",
      "type": "function"
    },
    {
      "inputs": [
        {
          "internalType": "address",
          "name": "_BETH",
          "type": "address"
        },
        {
          "internalType": "address",
          "name": "_BUSD",
          "type": "address"
        }
      ],
      "name": "setPairAddress",
      "outputs": [],
      "stateMutability": "nonpayable",
      "type": "function"
    },
    {
      "inputs": [
        {
          "internalType": "address",
          "name": "_factory",
          "type": "address"
        }
      ],
      "name": "setFactoryAddress",
      "outputs": [],
      "stateMutability": "nonpayable",
      "type": "function"
    },
    {
      "inputs": [
        {
          "internalType": "address",
          "name": "_teamAddress",
          "type": "address"
        }
      ],
      "name": "setTeamAddress",
      "outputs": [],
      "stateMutability": "nonpayable",
      "type": "function"
    },
    {
      "inputs": [
        {
          "internalType": "address",
          "name": "_oracle",
          "type": "address"
        }
      ],
      "name": "setOracleAddress",
      "outputs": [],
      "stateMutability": "nonpayable",
      "type": "function"
    },
    {
      "inputs": [
        {
          "internalType": "address",
          "name": "_BSNData",
          "type": "address"
        }
      ],
      "name": "setBSNDataAddress",
      "outputs": [],
      "stateMutability": "nonpayable",
      "type": "function"
    },
    {
      "inputs": [
        {
          "internalType": "uint256",
          "name": "_min",
          "type": "uint256"
        },
        {
          "internalType": "uint256",
          "name": "_max",
          "type": "uint256"
        }
      ],
      "name": "setAddMarketLimit",
      "outputs": [],
      "stateMutability": "nonpayable",
      "type": "function"
    },
    {
      "inputs": [
        {
          "internalType": "uint256",
          "name": "_failRate",
          "type": "uint256"
        },
        {
          "internalType": "uint256",
          "name": "_successRate",
          "type": "uint256"
        }
      ],
      "name": "setRate",
      "outputs": [],
      "stateMutability": "nonpayable",
      "type": "function"
    },
    {
      "inputs": [
        {
          "internalType": "address",
          "name": "_windToken",
          "type": "address"
        }
      ],
      "name": "setWindTokenAddress",
      "outputs": [],
      "stateMutability": "nonpayable",
      "type": "function"
    },
    {
      "inputs": [
        {
          "internalType": "uint256",
          "name": "_minute",
          "type": "uint256"
        },
        {
          "internalType": "uint256",
          "name": "_duration",
          "type": "uint256"
        },
        {
          "internalType": "uint256",
          "name": "_minAmount",
          "type": "uint256"
        },
        {
          "internalType": "uint256",
          "name": "_maxAmount",
          "type": "uint256"
        },
        {
          "internalType": "uint256",
          "name": "_singleMarketInvest",
          "type": "uint256"
        }
      ],
      "name": "addMarketType",
      "outputs": [],
      "stateMutability": "nonpayable",
      "type": "function"
    },
    {
      "inputs": [
        {
          "internalType": "uint256",
          "name": "_investType",
          "type": "uint256"
        },
        {
          "internalType": "uint256",
          "name": "_minute",
          "type": "uint256"
        },
        {
          "internalType": "uint256",
          "name": "_investAmount",
          "type": "uint256"
        }
      ],
      "name": "invest",
      "outputs": [],
      "stateMutability": "nonpayable",
      "type": "function"
    },
    {
      "inputs": [
        {
          "internalType": "uint256",
          "name": "_orderId",
          "type": "uint256"
        }
      ],
      "name": "openAward",
      "outputs": [],
      "stateMutability": "nonpayable",
      "type": "function"
    },
    {
      "inputs": [
        {
          "internalType": "uint256",
          "name": "_orderId",
          "type": "uint256"
        }
      ],
      "name": "getWin",
      "outputs": [
        {
          "internalType": "uint256",
          "name": "back",
          "type": "uint256"
        },
        {
          "internalType": "uint256",
          "name": "winTokenAmount",
          "type": "uint256"
        }
      ],
      "stateMutability": "view",
      "type": "function"
    },
    {
      "inputs": [
        {
          "internalType": "uint256",
          "name": "_amount",
          "type": "uint256"
        }
      ],
      "name": "addMarketPool",
      "outputs": [],
      "stateMutability": "nonpayable",
      "type": "function"
    },
    {
      "inputs": [
        {
          "internalType": "uint256",
          "name": "_amount",
          "type": "uint256"
        }
      ],
      "name": "markerRedeem",
      "outputs": [],
      "stateMutability": "nonpayable",
      "type": "function"
    },
    {
      "inputs": [
        {
          "internalType": "uint256",
          "name": "_dayNum",
          "type": "uint256"
        }
      ],
      "name": "receiveDividends",
      "outputs": [],
      "stateMutability": "nonpayable",
      "type": "function"
    },
    {
      "inputs": [
        {
          "internalType": "address",
          "name": "_user",
          "type": "address"
        },
        {
          "internalType": "uint256",
          "name": "_dayNum",
          "type": "uint256"
        }
      ],
      "name": "giveDividends",
      "outputs": [],
      "stateMutability": "nonpayable",
      "type": "function"
    },
    {
      "inputs": [],
      "name": "getEthUsd",
      "outputs": [
        {
          "internalType": "uint256",
          "name": "rate",
          "type": "uint256"
        }
      ],
      "stateMutability": "view",
      "type": "function"
    },
    {
      "inputs": [],
      "name": "getPerUSdtWind",
      "outputs": [
        {
          "internalType": "uint256",
          "name": "rate",
          "type": "uint256"
        }
      ],
      "stateMutability": "view",
      "type": "function"
    },
    {
      "inputs": [
        {
          "internalType": "uint256",
          "name": "_block",
          "type": "uint256"
        },
        {
          "internalType": "uint256",
          "name": "_minute",
          "type": "uint256"
        }
      ],
      "name": "getBlockUpAndDown",
      "outputs": [
        {
          "internalType": "uint256",
          "name": "upTotal",
          "type": "uint256"
        },
        {
          "internalType": "uint256",
          "name": "downTotal",
          "type": "uint256"
        }
      ],
      "stateMutability": "view",
      "type": "function"
    },
    {
      "inputs": [
        {
          "internalType": "uint256",
          "name": "_block",
          "type": "uint256"
        }
      ],
      "name": "getBlockPrice",
      "outputs": [
        {
          "internalType": "uint256",
          "name": "price",
          "type": "uint256"
        }
      ],
      "stateMutability": "view",
      "type": "function"
    },
    {
      "inputs": [],
      "name": "getCurCycleIncome",
      "outputs": [
        {
          "internalType": "uint256",
          "name": "curAmount",
          "type": "uint256"
        },
        {
          "internalType": "uint256",
          "name": "marketInvest",
          "type": "uint256"
        }
      ],
      "stateMutability": "view",
      "type": "function"
    },
    {
      "inputs": [],
      "name": "getMarketTypeIds",
      "outputs": [
        {
          "internalType": "uint256[]",
          "name": "_marketTypeIds",
          "type": "uint256[]"
        }
      ],
      "stateMutability": "view",
      "type": "function"
    }
  ],
  "bytecode": "0x60806040526001600c556000600d556000601060006101000a81548160ff0219169083151502179055506014601155600a6012553480156200004057600080fd5b5060405162006dc338038062006dc3833981810160405260e08110156200006657600080fd5b81019080805190602001909291908051906020019092919080519060200190929190805190602001909291908051906020019092919080519060200190929190805190602001909291905050506000620000c56200049660201b60201c565b9050806000806101000a81548173ffffffffffffffffffffffffffffffffffffffff021916908373ffffffffffffffffffffffffffffffffffffffff1602179055508073ffffffffffffffffffffffffffffffffffffffff16600073ffffffffffffffffffffffffffffffffffffffff167f8be0079c531659141344cd1fd0a4f28419497f9722a3daafe3b4186f6b6457e060405160405180910390a3506001808190555086600960006101000a81548173ffffffffffffffffffffffffffffffffffffffff021916908373ffffffffffffffffffffffffffffffffffffffff16021790555085600b60006101000a81548173ffffffffffffffffffffffffffffffffffffffff021916908373ffffffffffffffffffffffffffffffffffffffff16021790555084600260006101000a81548173ffffffffffffffffffffffffffffffffffffffff021916908373ffffffffffffffffffffffffffffffffffffffff16021790555083600360006101000a81548173ffffffffffffffffffffffffffffffffffffffff021916908373ffffffffffffffffffffffffffffffffffffffff16021790555082600460006101000a81548173ffffffffffffffffffffffffffffffffffffffff021916908373ffffffffffffffffffffffffffffffffffffffff16021790555080600660006101000a81548173ffffffffffffffffffffffffffffffffffffffff021916908373ffffffffffffffffffffffffffffffffffffffff160217905550600460009054906101000a900473ffffffffffffffffffffffffffffffffffffffff1673ffffffffffffffffffffffffffffffffffffffff1663313ce5676040518163ffffffff1660e01b815260040160206040518083038186803b1580156200035957600080fd5b505afa1580156200036e573d6000803e3d6000fd5b505050506040513d60208110156200038557600080fd5b810190808051906020019092919050505060078190555081600560006101000a81548173ffffffffffffffffffffffffffffffffffffffff021916908373ffffffffffffffffffffffffffffffffffffffff160217905550600560009054906101000a900473ffffffffffffffffffffffffffffffffffffffff1673ffffffffffffffffffffffffffffffffffffffff1663313ce5676040518163ffffffff1660e01b815260040160206040518083038186803b1580156200044657600080fd5b505afa1580156200045b573d6000803e3d6000fd5b505050506040513d60208110156200047257600080fd5b8101908080519060200190929190505050600881905550505050505050506200049e565b600033905090565b61691580620004ae6000396000f3fe608060405234801561001057600080fd5b50600436106102695760003560e01c80637d7d721f11610151578063b7b96ae4116100c3578063d922540811610087578063d922540814610a95578063d995521f14610ac9578063f2c7d33114610aee578063f2fde38b14610b1c578063f4100f0a14610b60578063fd27d1d314610bc057610269565b8063b7b96ae4146109d9578063bb27e0ce146109f7578063bbd8ebb114610a15578063c4a85bc114610a33578063d1d1a59914610a7757610269565b80638d4c84e4116101155780638d4c84e41461088c5780638da5cb5b146108df5780638ff49c8c146109135780639403d80b14610941578063ad7aab6514610975578063b3dca837146109b957610269565b80637d7d721f14610768578063813d9bd41461079857806383c17c55146107b657806387c38c88146107fa57806388a469c81461085e57610269565b8063412c0c2d116101ea57806361afd5ac116101ae57806361afd5ac146106425780636690864e14610686578063715018a6146106ca578063756c7922146106d457806379aba36d146107085780637b23bbe01461074a57610269565b8063412c0c2d1461052b57806346df2ccb14610574578063484f4ea9146105ac5780634c69c00f146105e0578063508bc0741461062457610269565b80632bae90c3116102315780632bae90c3146103fb5780632c731b18146104295780632e69ada314610475578063315c5a8e1461049357806331ee8fc7146104d557610269565b8063019294cd1461026e57806305fc2068146102d257806312e707571461030a5780631ed1df9314610369578063267b3c65146103b7575b600080fd5b6102d06004803603604081101561028457600080fd5b81019080803573ffffffffffffffffffffffffffffffffffffffff169060200190929190803573ffffffffffffffffffffffffffffffffffffffff169060200190929190505050610c02565b005b610308600480360360408110156102e857600080fd5b810190808035906020019092919080359060200190929190505050610ea8565b005b610312610ffb565b6040518080602001828103825283818151815260200191508051906020019060200280838360005b8381101561035557808201518184015260208101905061033a565b505050509050019250505060405180910390f35b6103b56004803603604081101561037f57600080fd5b81019080803573ffffffffffffffffffffffffffffffffffffffff16906020019092919080359060200190929190505050611053565b005b6103f9600480360360208110156103cd57600080fd5b81019080803573ffffffffffffffffffffffffffffffffffffffff16906020019092919050505061182d565b005b6104276004803603602081101561041157600080fd5b81019080803590602001909291905050506119c6565b005b61045f6004803603604081101561043f57600080fd5b810190808035906020019092919080359060200190929190505050611f9d565b6040518082815260200191505060405180910390f35b61047d611fc2565b6040518082815260200191505060405180910390f35b6104bf600480360360208110156104a957600080fd5b8101908080359060200190929190505050611fc8565b6040518082815260200191505060405180910390f35b610529600480360360a08110156104eb57600080fd5b810190808035906020019092919080359060200190929190803590602001909291908035906020019092919080359060200190929190505050611fe9565b005b6105576004803603602081101561054157600080fd5b81019080803590602001909291905050506122ca565b604051808381526020018281526020019250505060405180910390f35b6105aa6004803603604081101561058a57600080fd5b810190808035906020019092919080359060200190929190505050612911565b005b6105b4612a2a565b604051808273ffffffffffffffffffffffffffffffffffffffff16815260200191505060405180910390f35b610622600480360360208110156105f657600080fd5b81019080803573ffffffffffffffffffffffffffffffffffffffff169060200190929190505050612a50565b005b61062c612be9565b6040518082815260200191505060405180910390f35b6106846004803603602081101561065857600080fd5b81019080803573ffffffffffffffffffffffffffffffffffffffff169060200190929190505050612bef565b005b6106c86004803603602081101561069c57600080fd5b81019080803573ffffffffffffffffffffffffffffffffffffffff169060200190929190505050612d63565b005b6106d2612efc565b005b6106dc613082565b604051808273ffffffffffffffffffffffffffffffffffffffff16815260200191505060405180910390f35b6107486004803603606081101561071e57600080fd5b810190808035906020019092919080359060200190929190803590602001909291905050506130a8565b005b61075261350d565b6040518082815260200191505060405180910390f35b6107966004803603602081101561077e57600080fd5b81019080803515159060200190929190505050613513565b005b6107a061364a565b6040518082815260200191505060405180910390f35b6107f8600480360360208110156107cc57600080fd5b81019080803573ffffffffffffffffffffffffffffffffffffffff169060200190929190505050613650565b005b6108466004803603604081101561081057600080fd5b81019080803573ffffffffffffffffffffffffffffffffffffffff169060200190929190803590602001909291905050506137e9565b60405180821515815260200191505060405180910390f35b61088a6004803603602081101561087457600080fd5b8101908080359060200190929190505050613818565b005b6108c2600480360360408110156108a257600080fd5b810190808035906020019092919080359060200190929190505050613bc6565b604051808381526020018281526020019250505060405180910390f35b6108e7613eb2565b604051808273ffffffffffffffffffffffffffffffffffffffff16815260200191505060405180910390f35b61093f6004803603602081101561092957600080fd5b8101908080359060200190929190505050613edb565b005b6109496141af565b604051808273ffffffffffffffffffffffffffffffffffffffff16815260200191505060405180910390f35b6109b76004803603602081101561098b57600080fd5b81019080803573ffffffffffffffffffffffffffffffffffffffff1690602001909291905050506141d5565b005b6109c1614417565b60405180821515815260200191505060405180910390f35b6109e161442a565b6040518082815260200191505060405180910390f35b6109ff6147e2565b6040518082815260200191505060405180910390f35b610a1d614b6f565b6040518082815260200191505060405180910390f35b610a7560048036036020811015610a4957600080fd5b81019080803573ffffffffffffffffffffffffffffffffffffffff169060200190929190505050614b75565b005b610a7f614ce9565b6040518082815260200191505060405180910390f35b610a9d614cef565b604051808273ffffffffffffffffffffffffffffffffffffffff16815260200191505060405180910390f35b610ad1614d15565b604051808381526020018281526020019250505060405180910390f35b610b1a60048036036020811015610b0457600080fd5b8101908080359060200190929190505050614ea9565b005b610b5e60048036036020811015610b3257600080fd5b81019080803573ffffffffffffffffffffffffffffffffffffffff169060200190929190505050615590565b005b610b8c60048036036020811015610b7657600080fd5b810190808035906020019092919050505061579b565b6040518086815260200185815260200184815260200183815260200182151581526020019550505050505060405180910390f35b610bec60048036036020811015610bd657600080fd5b81019080803590602001909291905050506157de565b6040518082815260200191505060405180910390f35b610c0a61589a565b73ffffffffffffffffffffffffffffffffffffffff1660008054906101000a900473ffffffffffffffffffffffffffffffffffffffff1673ffffffffffffffffffffffffffffffffffffffff1614610cca576040517f08c379a00000000000000000000000000000000000000000000000000000000081526004018080602001828103825260208152602001807f4f776e61626c653a2063616c6c6572206973206e6f7420746865206f776e657281525060200191505060405180910390fd5b81600360006101000a81548173ffffffffffffffffffffffffffffffffffffffff021916908373ffffffffffffffffffffffffffffffffffffffff16021790555080600460006101000a81548173ffffffffffffffffffffffffffffffffffffffff021916908373ffffffffffffffffffffffffffffffffffffffff160217905550600460009054906101000a900473ffffffffffffffffffffffffffffffffffffffff1673ffffffffffffffffffffffffffffffffffffffff1663313ce5676040518163ffffffff1660e01b815260040160206040518083038186803b158015610db457600080fd5b505afa158015610dc8573d6000803e3d6000fd5b505050506040513d6020811015610dde57600080fd5b81019080805190602001909291905050506007819055507fb65c32a85c8b3407757f985ac80339e73a386f016df362b5c8a810a8af854d12600360009054906101000a900473ffffffffffffffffffffffffffffffffffffffff16600460009054906101000a900473ffffffffffffffffffffffffffffffffffffffff16604051808373ffffffffffffffffffffffffffffffffffffffff1681526020018273ffffffffffffffffffffffffffffffffffffffff1681526020019250505060405180910390a15050565b610eb061589a565b73ffffffffffffffffffffffffffffffffffffffff1660008054906101000a900473ffffffffffffffffffffffffffffffffffffffff1673ffffffffffffffffffffffffffffffffffffffff1614610f70576040517f08c379a00000000000000000000000000000000000000000000000000000000081526004018080602001828103825260208152602001807f4f776e61626c653a2063616c6c6572206973206e6f7420746865206f776e657281525060200191505060405180910390fd5b818111610f7c57600080fd5b7fb5258550334e0af15d99c1f8ee0901ffed5923fc1b879d16c575b833030dcdc28282604051808381526020018281526020019250505060405180910390a1610fd3600754600a0a836158a290919063ffffffff16565b600e81905550610ff1600754600a0a826158a290919063ffffffff16565b600f819055505050565b6060600a80548060200260200160405190810160405280929190818152602001828054801561104957602002820191906000526020600020905b815481526020019060010190808311611035575b5050505050905090565b600260015414156110cc576040517f08c379a000000000000000000000000000000000000000000000000000000000815260040180806020018281038252601f8152602001807f5265656e7472616e637947756172643a207265656e7472616e742063616c6c0081525060200191505060405180910390fd5b60026001819055506110dc61589a565b73ffffffffffffffffffffffffffffffffffffffff1660008054906101000a900473ffffffffffffffffffffffffffffffffffffffff1673ffffffffffffffffffffffffffffffffffffffff161461119c576040517f08c379a00000000000000000000000000000000000000000000000000000000081526004018080602001828103825260208152602001807f4f776e61626c653a2063616c6c6572206973206e6f7420746865206f776e657281525060200191505060405180910390fd5b6000600960009054906101000a900473ffffffffffffffffffffffffffffffffffffffff1673ffffffffffffffffffffffffffffffffffffffff166399a9cdce6040518163ffffffff1660e01b815260040160206040518083038186803b15801561120657600080fd5b505afa15801561121a573d6000803e3d6000fd5b505050506040513d602081101561123057600080fd5b8101908080519060200190929190505050905080821061124f57600080fd5b601660008473ffffffffffffffffffffffffffffffffffffffff1673ffffffffffffffffffffffffffffffffffffffff168152602001908152602001600020600083815260200190815260200160002060009054906101000a900460ff16156112b757600080fd5b6000600960009054906101000a900473ffffffffffffffffffffffffffffffffffffffff1673ffffffffffffffffffffffffffffffffffffffff16636386c1c7856040518263ffffffff1660e01b8152600401808273ffffffffffffffffffffffffffffffffffffffff16815260200191505060006040518083038186803b15801561134257600080fd5b505afa158015611356573d6000803e3d6000fd5b505050506040513d6000823e3d601f19601f82011682018060405250608081101561138057600080fd5b8101908080519060200190929190805160405193929190846401000000008211156113aa57600080fd5b838201915060208201858111156113c057600080fd5b82518660208202830111640100000000821117156113dd57600080fd5b8083526020830192505050908051906020019060200280838360005b838110156114145780820151818401526020810190506113f9565b50505050905001604052602001805190602001909291908051906020019092919050505050925050506000811161144a57600080fd5b6000600960009054906101000a900473ffffffffffffffffffffffffffffffffffffffff1673ffffffffffffffffffffffffffffffffffffffff1663c398f9db86866040518363ffffffff1660e01b8152600401808373ffffffffffffffffffffffffffffffffffffffff1681526020018281526020019250505060206040518083038186803b1580156114dd57600080fd5b505afa1580156114f1573d6000803e3d6000fd5b505050506040513d602081101561150757600080fd5b810190808051906020019092919050505090506000811161152757600080fd5b600080600960009054906101000a900473ffffffffffffffffffffffffffffffffffffffff1673ffffffffffffffffffffffffffffffffffffffff16630ab01174876040518263ffffffff1660e01b81526004018082815260200191505060a06040518083038186803b15801561159d57600080fd5b505afa1580156115b1573d6000803e3d6000fd5b505050506040513d60a08110156115c757600080fd5b81019080805190602001909291908051906020019092919080519060200190929190805190602001909291908051906020019092919050505050509250509150600061162e8261162086866158a290919063ffffffff16565b61592890919063ffffffff16565b9050600061164660648361592890919063ffffffff16565b90506001601660008b73ffffffffffffffffffffffffffffffffffffffff1673ffffffffffffffffffffffffffffffffffffffff16815260200190815260200160002060008a815260200190815260200160002060006101000a81548160ff021916908315150217905550600960009054906101000a900473ffffffffffffffffffffffffffffffffffffffff1673ffffffffffffffffffffffffffffffffffffffff166345f478b78a611703848661597290919063ffffffff16565b8b600660009054906101000a900473ffffffffffffffffffffffffffffffffffffffff16866040518663ffffffff1660e01b8152600401808673ffffffffffffffffffffffffffffffffffffffff1681526020018581526020018481526020018373ffffffffffffffffffffffffffffffffffffffff16815260200182815260200195505050505050600060405180830381600087803b1580156117a657600080fd5b505af11580156117ba573d6000803e3d6000fd5b505050507fb6891d016a9618b9fe5dcb2a37dd7f874642b3e60b2a91f7e1720b8da8db9c9688838b604051808481526020018381526020018273ffffffffffffffffffffffffffffffffffffffff168152602001935050505060405180910390a150505050505050600180819055505050565b61183561589a565b73ffffffffffffffffffffffffffffffffffffffff1660008054906101000a900473ffffffffffffffffffffffffffffffffffffffff1673ffffffffffffffffffffffffffffffffffffffff16146118f5576040517f08c379a00000000000000000000000000000000000000000000000000000000081526004018080602001828103825260208152602001807f4f776e61626c653a2063616c6c6572206973206e6f7420746865206f776e657281525060200191505060405180910390fd5b7fba21b7e28af202d3bdc86ae0bb671573283c2f4834524f6a274aef040000c8bd600960009054906101000a900473ffffffffffffffffffffffffffffffffffffffff1682604051808373ffffffffffffffffffffffffffffffffffffffff1681526020018273ffffffffffffffffffffffffffffffffffffffff1681526020019250505060405180910390a180600960006101000a81548173ffffffffffffffffffffffffffffffffffffffff021916908373ffffffffffffffffffffffffffffffffffffffff16021790555050565b60026001541415611a3f576040517f08c379a000000000000000000000000000000000000000000000000000000000815260040180806020018281038252601f8152602001807f5265656e7472616e637947756172643a207265656e7472616e742063616c6c0081525060200191505060405180910390fd5b60026001819055506000806000600960009054906101000a900473ffffffffffffffffffffffffffffffffffffffff1673ffffffffffffffffffffffffffffffffffffffff166342b50a7a856040518263ffffffff1660e01b8152600401808281526020019150506101406040518083038186803b158015611ac057600080fd5b505afa158015611ad4573d6000803e3d6000fd5b505050506040513d610140811015611aeb57600080fd5b8101908080519060200190929190805190602001909291908051906020019092919080519060200190929190805190602001909291908051906020019092919080519060200190929190805190602001909291908051906020019092919080519060200190929190505050995050509750505050505092508273ffffffffffffffffffffffffffffffffffffffff163373ffffffffffffffffffffffffffffffffffffffff1614611b9b57600080fd5b8015611ba657600080fd5b6000611bb1836157de565b905060008111611bc057600080fd5b600080611bcc876122ca565b915091506000821115611c9157600960009054906101000a900473ffffffffffffffffffffffffffffffffffffffff1673ffffffffffffffffffffffffffffffffffffffff166389461c0983338a6040518463ffffffff1660e01b8152600401808481526020018373ffffffffffffffffffffffffffffffffffffffff1681526020018281526020019350505050600060405180830381600087803b158015611c7457600080fd5b505af1158015611c88573d6000803e3d6000fd5b50505050611d1f565b600960009054906101000a900473ffffffffffffffffffffffffffffffffffffffff1673ffffffffffffffffffffffffffffffffffffffff1663132e4f3c886040518263ffffffff1660e01b815260040180828152602001915050600060405180830381600087803b158015611d0657600080fd5b505af1158015611d1a573d6000803e3d6000fd5b505050505b6000611d3560098361592890919063ffffffff16565b90506000821115611f1357600560009054906101000a900473ffffffffffffffffffffffffffffffffffffffff1673ffffffffffffffffffffffffffffffffffffffff166340c10f19600660009054906101000a900473ffffffffffffffffffffffffffffffffffffffff16836040518363ffffffff1660e01b8152600401808373ffffffffffffffffffffffffffffffffffffffff16815260200182815260200192505050602060405180830381600087803b158015611df557600080fd5b505af1158015611e09573d6000803e3d6000fd5b505050506040513d6020811015611e1f57600080fd5b810190808051906020019092919050505050600560009054906101000a900473ffffffffffffffffffffffffffffffffffffffff1673ffffffffffffffffffffffffffffffffffffffff166340c10f1933611e83848661597290919063ffffffff16565b6040518363ffffffff1660e01b8152600401808373ffffffffffffffffffffffffffffffffffffffff16815260200182815260200192505050602060405180830381600087803b158015611ed657600080fd5b505af1158015611eea573d6000803e3d6000fd5b505050506040513d6020811015611f0057600080fd5b8101908080519060200190929190505050505b3373ffffffffffffffffffffffffffffffffffffffff167f0328b862c65aced352be56df8c435908976054f05fd91542b5b51d468b8dd49584611f5f848661597290919063ffffffff16565b8b60405180848152602001838152602001828152602001935050505060405180910390a2611f8c436159bc565b505050505050506001808190555050565b6014602052816000526040600020602052806000526040600020600091509150505481565b600e5481565b600a8181548110611fd557fe5b906000526020600020016000915090505481565b611ff161589a565b73ffffffffffffffffffffffffffffffffffffffff1660008054906101000a900473ffffffffffffffffffffffffffffffffffffffff1673ffffffffffffffffffffffffffffffffffffffff16146120b1576040517f08c379a00000000000000000000000000000000000000000000000000000000081526004018080602001828103825260208152602001807f4f776e61626c653a2063616c6c6572206973206e6f7420746865206f776e657281525060200191505060405180910390fd5b8282116120bd57600080fd5b6013600086815260200190815260200160002060050160009054906101000a900460ff1661213e57600a85908060018154018082558091505060019003906000526020600020016000909190919091505560016013600087815260200190815260200160002060050160006101000a81548160ff0219169083151502179055505b6000600960009054906101000a900473ffffffffffffffffffffffffffffffffffffffff1673ffffffffffffffffffffffffffffffffffffffff166399a9cdce6040518163ffffffff1660e01b815260040160206040518083038186803b1580156121a857600080fd5b505afa1580156121bc573d6000803e3d6000fd5b505050506040513d60208110156121d257600080fd5b81019080805190602001909291905050509050856013600088815260200190815260200160002060000181905550846013600088815260200190815260200160002060010181905550612233600754600a0a856158a290919063ffffffff16565b6013600088815260200190815260200160002060020181905550612265600754600a0a846158a290919063ffffffff16565b6013600088815260200190815260200160002060030181905550612297600754600a0a836158a290919063ffffffff16565b60136000888152602001908152602001600020600401600083815260200190815260200160002081905550505050505050565b6000806000806000806000806000600960009054906101000a900473ffffffffffffffffffffffffffffffffffffffff1673ffffffffffffffffffffffffffffffffffffffff166342b50a7a8b6040518263ffffffff1660e01b8152600401808281526020019150506101406040518083038186803b15801561234c57600080fd5b505afa158015612360573d6000803e3d6000fd5b505050506040513d61014081101561237757600080fd5b8101908080519060200190929190805190602001909291908051906020019092919080519060200190929190805190602001909291908051906020019092919080519060200190929190805190602001909291908051906020019092919080519060200190929190505050509850985098505097509750975097505060006123fe846157de565b905060008061240d878a613bc6565b915091506000601360008b8152602001908152602001600020600401600086815260200190815260200160002054905060008990508487141561245257809d5060009c505b600c548c14801561246257508487115b1561253e57601060009054906101000a900460ff166124c3576124be600754600a0a6124b0600854600a0a6124a2601154866158a290919063ffffffff16565b6158a290919063ffffffff16565b61592890919063ffffffff16565b612537565b61253664e8d4a51000612528600754600a0a61251a600854600a0a61250c6124e961442a565b6124fe6011548a6158a290919063ffffffff16565b6158a290919063ffffffff16565b6158a290919063ffffffff16565b61592890919063ffffffff16565b61592890919063ffffffff16565b5b9c5060009d505b600c548c14801561254e57508487105b156126a9576125d4816125c660646125b860556125aa612577898c61627f90919063ffffffff16565b61259c61258d8b8d61627f90919063ffffffff16565b8a6158a290919063ffffffff16565b61592890919063ffffffff16565b6158a290919063ffffffff16565b61592890919063ffffffff16565b61627f90919063ffffffff16565b9d50601060009054906101000a900460ff166126325761262d600754600a0a61261f600854600a0a612611601254866158a290919063ffffffff16565b6158a290919063ffffffff16565b61592890919063ffffffff16565b6126a6565b6126a564e8d4a51000612697600754600a0a612689600854600a0a61267b61265861442a565b61266d6012548a6158a290919063ffffffff16565b6158a290919063ffffffff16565b6158a290919063ffffffff16565b61592890919063ffffffff16565b61592890919063ffffffff16565b5b9c505b600d548c1480156126b957508487115b156128145761273f81612731606461272360556127156126e2898b61627f90919063ffffffff16565b6127076126f88b8e61627f90919063ffffffff16565b8a6158a290919063ffffffff16565b61592890919063ffffffff16565b6158a290919063ffffffff16565b61592890919063ffffffff16565b61627f90919063ffffffff16565b9d50601060009054906101000a900460ff1661279d57612798600754600a0a61278a600854600a0a61277c601254866158a290919063ffffffff16565b6158a290919063ffffffff16565b61592890919063ffffffff16565b612811565b61281064e8d4a51000612802600754600a0a6127f4600854600a0a6127e66127c361442a565b6127d86012548a6158a290919063ffffffff16565b6158a290919063ffffffff16565b6158a290919063ffffffff16565b61592890919063ffffffff16565b61592890919063ffffffff16565b5b9c505b600d548c14801561282457508487105b1561290057601060009054906101000a900460ff1661288557612880600754600a0a612872600854600a0a612864601154866158a290919063ffffffff16565b6158a290919063ffffffff16565b61592890919063ffffffff16565b6128f9565b6128f864e8d4a510006128ea600754600a0a6128dc600854600a0a6128ce6128ab61442a565b6128c06011548a6158a290919063ffffffff16565b6158a290919063ffffffff16565b6158a290919063ffffffff16565b61592890919063ffffffff16565b61592890919063ffffffff16565b5b9c5060009d505b505050505050505050505050915091565b61291961589a565b73ffffffffffffffffffffffffffffffffffffffff1660008054906101000a900473ffffffffffffffffffffffffffffffffffffffff1673ffffffffffffffffffffffffffffffffffffffff16146129d9576040517f08c379a00000000000000000000000000000000000000000000000000000000081526004018080602001828103825260208152602001807f4f776e61626c653a2063616c6c6572206973206e6f7420746865206f776e657281525060200191505060405180910390fd5b7f3a8f7e78fe36c54b4f888a309efa91eba128acb04cc1c2ffa0e5c4db7b4a87858282604051808381526020018281526020019250505060405180910390a181601181905550806012819055505050565b600460009054906101000a900473ffffffffffffffffffffffffffffffffffffffff1681565b612a5861589a565b73ffffffffffffffffffffffffffffffffffffffff1660008054906101000a900473ffffffffffffffffffffffffffffffffffffffff1673ffffffffffffffffffffffffffffffffffffffff1614612b18576040517f08c379a00000000000000000000000000000000000000000000000000000000081526004018080602001828103825260208152602001807f4f776e61626c653a2063616c6c6572206973206e6f7420746865206f776e657281525060200191505060405180910390fd5b7f501f6f27623fe2971dba6e7ebcda3ae59ec07b0c76d0c48e2c166cd5866b6834600b60009054906101000a900473ffffffffffffffffffffffffffffffffffffffff1682604051808373ffffffffffffffffffffffffffffffffffffffff1681526020018273ffffffffffffffffffffffffffffffffffffffff1681526020019250505060405180910390a180600b60006101000a81548173ffffffffffffffffffffffffffffffffffffffff021916908373ffffffffffffffffffffffffffffffffffffffff16021790555050565b600f5481565b612bf761589a565b73ffffffffffffffffffffffffffffffffffffffff1660008054906101000a900473ffffffffffffffffffffffffffffffffffffffff1673ffffffffffffffffffffffffffffffffffffffff1614612cb7576040517f08c379a00000000000000000000000000000000000000000000000000000000081526004018080602001828103825260208152602001807f4f776e61626c653a2063616c6c6572206973206e6f7420746865206f776e657281525060200191505060405180910390fd5b6000601560008373ffffffffffffffffffffffffffffffffffffffff1673ffffffffffffffffffffffffffffffffffffffff16815260200190815260200160002060006101000a81548160ff0219169083151502179055508073ffffffffffffffffffffffffffffffffffffffff167f3d4e864e63c21e8ae113db12f031ae02fd915dba35d143613d2cb3620c95ef98600060405180821515815260200191505060405180910390a250565b612d6b61589a565b73ffffffffffffffffffffffffffffffffffffffff1660008054906101000a900473ffffffffffffffffffffffffffffffffffffffff1673ffffffffffffffffffffffffffffffffffffffff1614612e2b576040517f08c379a00000000000000000000000000000000000000000000000000000000081526004018080602001828103825260208152602001807f4f776e61626c653a2063616c6c6572206973206e6f7420746865206f776e657281525060200191505060405180910390fd5b7f42fbc17d847fdc3e5c82da842a5ef3979c64f3b94cd4e7382310fd5525c6ee0f600660009054906101000a900473ffffffffffffffffffffffffffffffffffffffff1682604051808373ffffffffffffffffffffffffffffffffffffffff1681526020018273ffffffffffffffffffffffffffffffffffffffff1681526020019250505060405180910390a180600660006101000a81548173ffffffffffffffffffffffffffffffffffffffff021916908373ffffffffffffffffffffffffffffffffffffffff16021790555050565b612f0461589a565b73ffffffffffffffffffffffffffffffffffffffff1660008054906101000a900473ffffffffffffffffffffffffffffffffffffffff1673ffffffffffffffffffffffffffffffffffffffff1614612fc4576040517f08c379a00000000000000000000000000000000000000000000000000000000081526004018080602001828103825260208152602001807f4f776e61626c653a2063616c6c6572206973206e6f7420746865206f776e657281525060200191505060405180910390fd5b600073ffffffffffffffffffffffffffffffffffffffff1660008054906101000a900473ffffffffffffffffffffffffffffffffffffffff1673ffffffffffffffffffffffffffffffffffffffff167f8be0079c531659141344cd1fd0a4f28419497f9722a3daafe3b4186f6b6457e060405160405180910390a360008060006101000a81548173ffffffffffffffffffffffffffffffffffffffff021916908373ffffffffffffffffffffffffffffffffffffffff160217905550565b600960009054906101000a900473ffffffffffffffffffffffffffffffffffffffff1681565b60026001541415613121576040517f08c379a000000000000000000000000000000000000000000000000000000000815260040180806020018281038252601f8152602001807f5265656e7472616e637947756172643a207265656e7472616e742063616c6c0081525060200191505060405180910390fd5b60026001819055506013600083815260200190815260200160002060050160009054906101000a900460ff1661315657600080fd5b601360008381526020019081526020016000206002015481101561317957600080fd5b601360008381526020019081526020016000206003015481111561319c57600080fd5b600c548314806131ad5750600d5483145b6131b657600080fd5b6000806131c1614d15565b9150915081811115613212576131f460646131e6600a846158a290919063ffffffff16565b61592890919063ffffffff16565b613207838361597290919063ffffffff16565b1061321157600080fd5b5b61321b436159bc565b61328c33600960009054906101000a900473ffffffffffffffffffffffffffffffffffffffff1685600460009054906101000a900473ffffffffffffffffffffffffffffffffffffffff1673ffffffffffffffffffffffffffffffffffffffff16616307909392919063ffffffff16565b6000600960009054906101000a900473ffffffffffffffffffffffffffffffffffffffff1673ffffffffffffffffffffffffffffffffffffffff166399a9cdce6040518163ffffffff1660e01b815260040160206040518083038186803b1580156132f657600080fd5b505afa15801561330a573d6000803e3d6000fd5b505050506040513d602081101561332057600080fd5b8101908080519060200190929190505050905061336a846014600084815260200190815260200160002060008881526020019081526020016000205461627f90919063ffffffff16565b60146000838152602001908152602001600020600087815260200190815260200160002081905550600061339c6147e2565b905060006133c943601360008a81526020019081526020016000206001015461627f90919063ffffffff16565b9050600960009054906101000a900473ffffffffffffffffffffffffffffffffffffffff1673ffffffffffffffffffffffffffffffffffffffff166305f4ac4c338a8a8a4342888a6040518963ffffffff1660e01b8152600401808973ffffffffffffffffffffffffffffffffffffffff16815260200188815260200187815260200186815260200185815260200184815260200183815260200182815260200198505050505050505050600060405180830381600087803b15801561348e57600080fd5b505af11580156134a2573d6000803e3d6000fd5b505050503373ffffffffffffffffffffffffffffffffffffffff167f4ae4bd7655e0d350876a23cd90c4227b13db560e34435c6a488150a9c844bf5f4383604051808381526020018281526020019250505060405180910390a2505050505060018081905550505050565b60085481565b61351b61589a565b73ffffffffffffffffffffffffffffffffffffffff1660008054906101000a900473ffffffffffffffffffffffffffffffffffffffff1673ffffffffffffffffffffffffffffffffffffffff16146135db576040517f08c379a00000000000000000000000000000000000000000000000000000000081526004018080602001828103825260208152602001807f4f776e61626c653a2063616c6c6572206973206e6f7420746865206f776e657281525060200191505060405180910390fd5b7f88b7a8517ce098fba2c15869c0b50efe9e2b5fe9f383712b6d582fda66007a56601060009054906101000a900460ff168260405180831515815260200182151581526020019250505060405180910390a180601060006101000a81548160ff02191690831515021790555050565b60075481565b61365861589a565b73ffffffffffffffffffffffffffffffffffffffff1660008054906101000a900473ffffffffffffffffffffffffffffffffffffffff1673ffffffffffffffffffffffffffffffffffffffff1614613718576040517f08c379a00000000000000000000000000000000000000000000000000000000081526004018080602001828103825260208152602001807f4f776e61626c653a2063616c6c6572206973206e6f7420746865206f776e657281525060200191505060405180910390fd5b7f036fdb7ed6a851f339ee19d49e0c7307b2bee47210b9d15fed5bbd24c5c996f9600260009054906101000a900473ffffffffffffffffffffffffffffffffffffffff1682604051808373ffffffffffffffffffffffffffffffffffffffff1681526020018273ffffffffffffffffffffffffffffffffffffffff1681526020019250505060405180910390a180600260006101000a81548173ffffffffffffffffffffffffffffffffffffffff021916908373ffffffffffffffffffffffffffffffffffffffff16021790555050565b60166020528160005260406000206020528060005260406000206000915091509054906101000a900460ff1681565b60026001541415613891576040517f08c379a000000000000000000000000000000000000000000000000000000000815260040180806020018281038252601f8152602001807f5265656e7472616e637947756172643a207265656e7472616e742063616c6c0081525060200191505060405180910390fd5b6002600181905550600e548110156138a857600080fd5b6000600960009054906101000a900473ffffffffffffffffffffffffffffffffffffffff1673ffffffffffffffffffffffffffffffffffffffff16636386c1c7336040518263ffffffff1660e01b8152600401808273ffffffffffffffffffffffffffffffffffffffff16815260200191505060006040518083038186803b15801561393357600080fd5b505afa158015613947573d6000803e3d6000fd5b505050506040513d6000823e3d601f19601f82011682018060405250608081101561397157600080fd5b81019080805190602001909291908051604051939291908464010000000082111561399b57600080fd5b838201915060208201858111156139b157600080fd5b82518660208202830111640100000000821117156139ce57600080fd5b8083526020830192505050908051906020019060200280838360005b83811015613a055780820151818401526020810190506139ea565b505050509050016040526020018051906020019092919080519060200190929190505050509250505081811015613a3b57600080fd5b600080613a46614d15565b91509150600081831015613a9257613a8b82613a7d613a6e868661597290919063ffffffff16565b886158a290919063ffffffff16565b61592890919063ffffffff16565b9050613a96565b8490505b600960009054906101000a900473ffffffffffffffffffffffffffffffffffffffff1673ffffffffffffffffffffffffffffffffffffffff16633fadf2cb3387846040518463ffffffff1660e01b8152600401808473ffffffffffffffffffffffffffffffffffffffff1681526020018381526020018281526020019350505050600060405180830381600087803b158015613b3157600080fd5b505af1158015613b45573d6000803e3d6000fd5b50505050613b52436159bc565b3373ffffffffffffffffffffffffffffffffffffffff167f83d511f187e098df1e86f0abe6aee5a0b5b1199cce9a95e0b39288dd6d9dbdba868342436040518085815260200184815260200183815260200182815260200194505050505060405180910390a2505050506001808190555050565b6000806060600960009054906101000a900473ffffffffffffffffffffffffffffffffffffffff1673ffffffffffffffffffffffffffffffffffffffff16631a0fa12986866040518363ffffffff1660e01b8152600401808381526020018281526020019250505060006040518083038186803b158015613c4657600080fd5b505afa158015613c5a573d6000803e3d6000fd5b505050506040513d6000823e3d601f19601f820116820180604052506020811015613c8457600080fd5b8101908080516040519392919084640100000000821115613ca457600080fd5b83820191506020820185811115613cba57600080fd5b8251866020820283011164010000000082111715613cd757600080fd5b8083526020830192505050908051906020019060200280838360005b83811015613d0e578082015181840152602081019050613cf3565b50505050905001604052505050905060008060005b8351811015613ea157600080600960009054906101000a900473ffffffffffffffffffffffffffffffffffffffff1673ffffffffffffffffffffffffffffffffffffffff166342b50a7a878581518110613d7957fe5b60200260200101516040518263ffffffff1660e01b8152600401808281526020019150506101406040518083038186803b158015613db657600080fd5b505afa158015613dca573d6000803e3d6000fd5b505050506040513d610140811015613de157600080fd5b8101908080519060200190929190805190602001909291908051906020019092919080519060200190929190805190602001909291908051906020019092919080519060200190929190805190602001909291908051906020019092919080519060200190929190505050505050505050935050925050600c54821415613e7c57613e75818661627f90919063ffffffff16565b9450613e92565b613e8f818561627f90919063ffffffff16565b93505b50508080600101915050613d23565b508181945094505050509250929050565b60008060009054906101000a900473ffffffffffffffffffffffffffffffffffffffff16905090565b60026001541415613f54576040517f08c379a000000000000000000000000000000000000000000000000000000000815260040180806020018281038252601f8152602001807f5265656e7472616e637947756172643a207265656e7472616e742063616c6c0081525060200191505060405180910390fd5b6002600181905550600e54811015613f6b57600080fd5b600f54811115613f7a57600080fd5b613f83436159bc565b613ff433600960009054906101000a900473ffffffffffffffffffffffffffffffffffffffff1683600460009054906101000a900473ffffffffffffffffffffffffffffffffffffffff1673ffffffffffffffffffffffffffffffffffffffff16616307909392919063ffffffff16565b600960009054906101000a900473ffffffffffffffffffffffffffffffffffffffff1673ffffffffffffffffffffffffffffffffffffffff1663d9a27c8833836040518363ffffffff1660e01b8152600401808373ffffffffffffffffffffffffffffffffffffffff16815260200182815260200192505050600060405180830381600087803b15801561408757600080fd5b505af115801561409b573d6000803e3d6000fd5b505050506000600960009054906101000a900473ffffffffffffffffffffffffffffffffffffffff1673ffffffffffffffffffffffffffffffffffffffff166399a9cdce6040518163ffffffff1660e01b815260040160206040518083038186803b15801561410957600080fd5b505afa15801561411d573d6000803e3d6000fd5b505050506040513d602081101561413357600080fd5b810190808051906020019092919050505090503373ffffffffffffffffffffffffffffffffffffffff167ffc37cb9d3daf5d487c9f2330143bc8f966cb5baf5c4d0b3735ace368e07c12f283834260405180848152602001838152602001828152602001935050505060405180910390a2506001808190555050565b600560009054906101000a900473ffffffffffffffffffffffffffffffffffffffff1681565b6141dd61589a565b73ffffffffffffffffffffffffffffffffffffffff1660008054906101000a900473ffffffffffffffffffffffffffffffffffffffff1673ffffffffffffffffffffffffffffffffffffffff161461429d576040517f08c379a00000000000000000000000000000000000000000000000000000000081526004018080602001828103825260208152602001807f4f776e61626c653a2063616c6c6572206973206e6f7420746865206f776e657281525060200191505060405180910390fd5b7f24620b681011e5a1b9cd6ce99511f403815c5bcbf9a783714af5d670b1bc837f600560009054906101000a900473ffffffffffffffffffffffffffffffffffffffff1682604051808373ffffffffffffffffffffffffffffffffffffffff1681526020018273ffffffffffffffffffffffffffffffffffffffff1681526020019250505060405180910390a180600560006101000a81548173ffffffffffffffffffffffffffffffffffffffff021916908373ffffffffffffffffffffffffffffffffffffffff160217905550600560009054906101000a900473ffffffffffffffffffffffffffffffffffffffff1673ffffffffffffffffffffffffffffffffffffffff1663313ce5676040518163ffffffff1660e01b815260040160206040518083038186803b1580156143d357600080fd5b505afa1580156143e7573d6000803e3d6000fd5b505050506040513d60208110156143fd57600080fd5b810190808051906020019092919050505060088190555050565b601060009054906101000a900460ff1681565b60008073__UniswapV2Library______________________63544caa56600460009054906101000a900473ffffffffffffffffffffffffffffffffffffffff16600560009054906101000a900473ffffffffffffffffffffffffffffffffffffffff166040518363ffffffff1660e01b8152600401808373ffffffffffffffffffffffffffffffffffffffff1681526020018273ffffffffffffffffffffffffffffffffffffffff16815260200192505050604080518083038186803b1580156144f357600080fd5b505af4158015614507573d6000803e3d6000fd5b505050506040513d604081101561451d57600080fd5b810190808051906020019092919080519060200190929190505050509050600080600260009054906101000a900473ffffffffffffffffffffffffffffffffffffffff1673ffffffffffffffffffffffffffffffffffffffff1663e6a43905600460009054906101000a900473ffffffffffffffffffffffffffffffffffffffff16600560009054906101000a900473ffffffffffffffffffffffffffffffffffffffff166040518363ffffffff1660e01b8152600401808373ffffffffffffffffffffffffffffffffffffffff1681526020018273ffffffffffffffffffffffffffffffffffffffff1681526020019250505060206040518083038186803b15801561462957600080fd5b505afa15801561463d573d6000803e3d6000fd5b505050506040513d602081101561465357600080fd5b810190808051906020019092919050505073ffffffffffffffffffffffffffffffffffffffff16630902f1ac6040518163ffffffff1660e01b815260040160606040518083038186803b1580156146a957600080fd5b505afa1580156146bd573d6000803e3d6000fd5b505050506040513d60608110156146d357600080fd5b81019080805190602001909291908051906020019092919080519060200190929190505050506dffffffffffffffffffffffffffff1691506dffffffffffffffffffffffffffff1691506000808473ffffffffffffffffffffffffffffffffffffffff16600460009054906101000a900473ffffffffffffffffffffffffffffffffffffffff1673ffffffffffffffffffffffffffffffffffffffff161461477c57828461477f565b83835b915091506147d86008546147ca846147bc6402540be4006147ae600754600a0a886158a290919063ffffffff16565b6158a290919063ffffffff16565b61592890919063ffffffff16565b61592890919063ffffffff16565b9550505050505090565b60008073__UniswapV2Library______________________63544caa56600360009054906101000a900473ffffffffffffffffffffffffffffffffffffffff16600460009054906101000a900473ffffffffffffffffffffffffffffffffffffffff166040518363ffffffff1660e01b8152600401808373ffffffffffffffffffffffffffffffffffffffff1681526020018273ffffffffffffffffffffffffffffffffffffffff16815260200192505050604080518083038186803b1580156148ab57600080fd5b505af41580156148bf573d6000803e3d6000fd5b505050506040513d60408110156148d557600080fd5b810190808051906020019092919080519060200190929190505050509050600080600260009054906101000a900473ffffffffffffffffffffffffffffffffffffffff1673ffffffffffffffffffffffffffffffffffffffff1663e6a43905600360009054906101000a900473ffffffffffffffffffffffffffffffffffffffff16600460009054906101000a900473ffffffffffffffffffffffffffffffffffffffff166040518363ffffffff1660e01b8152600401808373ffffffffffffffffffffffffffffffffffffffff1681526020018273ffffffffffffffffffffffffffffffffffffffff1681526020019250505060206040518083038186803b1580156149e157600080fd5b505afa1580156149f5573d6000803e3d6000fd5b505050506040513d6020811015614a0b57600080fd5b810190808051906020019092919050505073ffffffffffffffffffffffffffffffffffffffff16630902f1ac6040518163ffffffff1660e01b815260040160606040518083038186803b158015614a6157600080fd5b505afa158015614a75573d6000803e3d6000fd5b505050506040513d6060811015614a8b57600080fd5b81019080805190602001909291908051906020019092919080519060200190929190505050506dffffffffffffffffffffffffffff1691506dffffffffffffffffffffffffffff1691506000808473ffffffffffffffffffffffffffffffffffffffff16600360009054906101000a900473ffffffffffffffffffffffffffffffffffffffff1673ffffffffffffffffffffffffffffffffffffffff1614614b34578284614b37565b83835b91509150614b6582614b576402540be400846158a290919063ffffffff16565b61592890919063ffffffff16565b9550505050505090565b60115481565b614b7d61589a565b73ffffffffffffffffffffffffffffffffffffffff1660008054906101000a900473ffffffffffffffffffffffffffffffffffffffff1673ffffffffffffffffffffffffffffffffffffffff1614614c3d576040517f08c379a00000000000000000000000000000000000000000000000000000000081526004018080602001828103825260208152602001807f4f776e61626c653a2063616c6c6572206973206e6f7420746865206f776e657281525060200191505060405180910390fd5b6001601560008373ffffffffffffffffffffffffffffffffffffffff1673ffffffffffffffffffffffffffffffffffffffff16815260200190815260200160002060006101000a81548160ff0219169083151502179055508073ffffffffffffffffffffffffffffffffffffffff167f3d4e864e63c21e8ae113db12f031ae02fd915dba35d143613d2cb3620c95ef98600160405180821515815260200191505060405180910390a250565b60125481565b600360009054906101000a900473ffffffffffffffffffffffffffffffffffffffff1681565b600080600460009054906101000a900473ffffffffffffffffffffffffffffffffffffffff1673ffffffffffffffffffffffffffffffffffffffff166370a08231600960009054906101000a900473ffffffffffffffffffffffffffffffffffffffff166040518263ffffffff1660e01b8152600401808273ffffffffffffffffffffffffffffffffffffffff16815260200191505060206040518083038186803b158015614dc357600080fd5b505afa158015614dd7573d6000803e3d6000fd5b505050506040513d6020811015614ded57600080fd5b81019080805190602001909291905050509150600960009054906101000a900473ffffffffffffffffffffffffffffffffffffffff1673ffffffffffffffffffffffffffffffffffffffff1663d97b87d76040518163ffffffff1660e01b815260040160206040518083038186803b158015614e6857600080fd5b505afa158015614e7c573d6000803e3d6000fd5b505050506040513d6020811015614e9257600080fd5b810190808051906020019092919050505090509091565b60026001541415614f22576040517f08c379a000000000000000000000000000000000000000000000000000000000815260040180806020018281038252601f8152602001807f5265656e7472616e637947756172643a207265656e7472616e742063616c6c0081525060200191505060405180910390fd5b60026001819055506000600960009054906101000a900473ffffffffffffffffffffffffffffffffffffffff1673ffffffffffffffffffffffffffffffffffffffff166399a9cdce6040518163ffffffff1660e01b815260040160206040518083038186803b158015614f9457600080fd5b505afa158015614fa8573d6000803e3d6000fd5b505050506040513d6020811015614fbe57600080fd5b81019080805190602001909291905050509050808210614fdd57600080fd5b601660003373ffffffffffffffffffffffffffffffffffffffff1673ffffffffffffffffffffffffffffffffffffffff168152602001908152602001600020600083815260200190815260200160002060009054906101000a900460ff161561504557600080fd5b6000600960009054906101000a900473ffffffffffffffffffffffffffffffffffffffff1673ffffffffffffffffffffffffffffffffffffffff16636386c1c7336040518263ffffffff1660e01b8152600401808273ffffffffffffffffffffffffffffffffffffffff16815260200191505060006040518083038186803b1580156150d057600080fd5b505afa1580156150e4573d6000803e3d6000fd5b505050506040513d6000823e3d601f19601f82011682018060405250608081101561510e57600080fd5b81019080805190602001909291908051604051939291908464010000000082111561513857600080fd5b8382019150602082018581111561514e57600080fd5b825186602082028301116401000000008211171561516b57600080fd5b8083526020830192505050908051906020019060200280838360005b838110156151a2578082015181840152602081019050615187565b5050505090500160405260200180519060200190929190805190602001909291905050505092505050600081116151d857600080fd5b6000600960009054906101000a900473ffffffffffffffffffffffffffffffffffffffff1673ffffffffffffffffffffffffffffffffffffffff1663c398f9db33866040518363ffffffff1660e01b8152600401808373ffffffffffffffffffffffffffffffffffffffff1681526020018281526020019250505060206040518083038186803b15801561526b57600080fd5b505afa15801561527f573d6000803e3d6000fd5b505050506040513d602081101561529557600080fd5b81019080805190602001909291905050509050600081116152b557600080fd5b600080600960009054906101000a900473ffffffffffffffffffffffffffffffffffffffff1673ffffffffffffffffffffffffffffffffffffffff16630ab01174876040518263ffffffff1660e01b81526004018082815260200191505060a06040518083038186803b15801561532b57600080fd5b505afa15801561533f573d6000803e3d6000fd5b505050506040513d60a081101561535557600080fd5b8101908080519060200190929190805190602001909291908051906020019092919080519060200190929190805190602001909291905050505050925050915060006153bc826153ae86866158a290919063ffffffff16565b61592890919063ffffffff16565b90506001601660003373ffffffffffffffffffffffffffffffffffffffff1673ffffffffffffffffffffffffffffffffffffffff168152602001908152602001600020600089815260200190815260200160002060006101000a81548160ff021916908315150217905550600960009054906101000a900473ffffffffffffffffffffffffffffffffffffffff1673ffffffffffffffffffffffffffffffffffffffff166345f478b733838a600660009054906101000a900473ffffffffffffffffffffffffffffffffffffffff1660006040518663ffffffff1660e01b8152600401808673ffffffffffffffffffffffffffffffffffffffff1681526020018581526020018481526020018373ffffffffffffffffffffffffffffffffffffffff16815260200182815260200195505050505050600060405180830381600087803b15801561550b57600080fd5b505af115801561551f573d6000803e3d6000fd5b505050507fb6891d016a9618b9fe5dcb2a37dd7f874642b3e60b2a91f7e1720b8da8db9c96878233604051808481526020018381526020018273ffffffffffffffffffffffffffffffffffffffff168152602001935050505060405180910390a15050505050506001808190555050565b61559861589a565b73ffffffffffffffffffffffffffffffffffffffff1660008054906101000a900473ffffffffffffffffffffffffffffffffffffffff1673ffffffffffffffffffffffffffffffffffffffff1614615658576040517f08c379a00000000000000000000000000000000000000000000000000000000081526004018080602001828103825260208152602001807f4f776e61626c653a2063616c6c6572206973206e6f7420746865206f776e657281525060200191505060405180910390fd5b600073ffffffffffffffffffffffffffffffffffffffff168173ffffffffffffffffffffffffffffffffffffffff1614156156de576040517f08c379a000000000000000000000000000000000000000000000000000000000815260040180806020018281038252602681526020018061686f6026913960400191505060405180910390fd5b8073ffffffffffffffffffffffffffffffffffffffff1660008054906101000a900473ffffffffffffffffffffffffffffffffffffffff1673ffffffffffffffffffffffffffffffffffffffff167f8be0079c531659141344cd1fd0a4f28419497f9722a3daafe3b4186f6b6457e060405160405180910390a3806000806101000a81548173ffffffffffffffffffffffffffffffffffffffff021916908373ffffffffffffffffffffffffffffffffffffffff16021790555050565b60136020528060005260406000206000915090508060000154908060010154908060020154908060030154908060050160009054906101000a900460ff16905085565b600080600b60009054906101000a900473ffffffffffffffffffffffffffffffffffffffff1673ffffffffffffffffffffffffffffffffffffffff1663eb44fdd3846040518263ffffffff1660e01b81526004018082815260200191505060206040518083038186803b15801561585457600080fd5b505afa158015615868573d6000803e3d6000fd5b505050506040513d602081101561587e57600080fd5b8101908080519060200190929190505050905080915050919050565b600033905090565b6000808314156158b55760009050615922565b60008284029050828482816158c657fe5b041461591d576040517f08c379a00000000000000000000000000000000000000000000000000000000081526004018080602001828103825260218152602001806168956021913960400191505060405180910390fd5b809150505b92915050565b600061596a83836040518060400160405280601a81526020017f536166654d6174683a206469766973696f6e206279207a65726f0000000000008152506163c8565b905092915050565b60006159b483836040518060400160405280601e81526020017f536166654d6174683a207375627472616374696f6e206f766572666c6f77000081525061648e565b905092915050565b6000600960009054906101000a900473ffffffffffffffffffffffffffffffffffffffff1673ffffffffffffffffffffffffffffffffffffffff1663cddcff3d6040518163ffffffff1660e01b815260040160206040518083038186803b158015615a2657600080fd5b505afa158015615a3a573d6000803e3d6000fd5b505050506040513d6020811015615a5057600080fd5b81019080805190602001909291905050509050615a786170808261627f90919063ffffffff16565b821061627b57600080615a89614d15565b915091506000600960009054906101000a900473ffffffffffffffffffffffffffffffffffffffff1673ffffffffffffffffffffffffffffffffffffffff166399a9cdce6040518163ffffffff1660e01b815260040160206040518083038186803b158015615af757600080fd5b505afa158015615b0b573d6000803e3d6000fd5b505050506040513d6020811015615b2157600080fd5b8101908080519060200190929190505050905060005b600a80549050811015615d8e576000601460008481526020019081526020016000206000600a8481548110615b6857fe5b90600052602060002001548152602001908152602001600020549050615bd6601860136000600a8681548110615b9a57fe5b906000526020600020015481526020019081526020016000206004016000868152602001908152602001600020546158a290919063ffffffff16565b811115615c8d57615c37600754600a0a6127100260136000600a8681548110615bfb57fe5b9060005260206000200154815260200190815260200160002060040160008681526020019081526020016000205461627f90919063ffffffff16565b60136000600a8581548110615c4857fe5b906000526020600020015481526020019081526020016000206004016000615c7a60018761627f90919063ffffffff16565b8152602001908152602001600020819055505b8484118015615cd35750615cbe6064615cb06005876158a290919063ffffffff16565b61592890919063ffffffff16565b615cd1868661597290919063ffffffff16565b115b15615d8057615d2a600260136000600a8681548110615cee57fe5b9060005260206000200154815260200190815260200160002060040160008681526020019081526020016000205461592890919063ffffffff16565b60136000600a8581548110615d3b57fe5b906000526020600020015481526020019081526020016000206004016000615d6d60018761627f90919063ffffffff16565b8152602001908152602001600020819055505b508080600101915050615b37565b50600080600084861015615db957859250615db2868661597290919063ffffffff16565b9150615e6c565b849250615dcf858761597290919063ffffffff16565b91506000821115615e6b57600960009054906101000a900473ffffffffffffffffffffffffffffffffffffffff1673ffffffffffffffffffffffffffffffffffffffff1663128a4ead836040518263ffffffff1660e01b815260040180828152602001915050600060405180830381600087803b158015615e4f57600080fd5b505af1158015615e63573d6000803e3d6000fd5b505050508190505b5b603c8411615e9f576000615e8a60648761592890919063ffffffff16565b9050808311615e995780615e9b565b825b9250505b6000601060009054906101000a900460ff16615efc57615ef7600754600a0a615ee9600854600a0a615edb6064886158a290919063ffffffff16565b6158a290919063ffffffff16565b61592890919063ffffffff16565b615f5c565b615f5b6402540be400615f4d600754600a0a615f3f600854600a0a615f31615f2261442a565b8a6158a290919063ffffffff16565b6158a290919063ffffffff16565b61592890919063ffffffff16565b61592890919063ffffffff16565b5b90506000615f7460098361592890919063ffffffff16565b9050600560009054906101000a900473ffffffffffffffffffffffffffffffffffffffff1673ffffffffffffffffffffffffffffffffffffffff166340c10f19600660009054906101000a900473ffffffffffffffffffffffffffffffffffffffff16836040518363ffffffff1660e01b8152600401808373ffffffffffffffffffffffffffffffffffffffff16815260200182815260200192505050602060405180830381600087803b15801561602b57600080fd5b505af115801561603f573d6000803e3d6000fd5b505050506040513d602081101561605557600080fd5b810190808051906020019092919050505050600560009054906101000a900473ffffffffffffffffffffffffffffffffffffffff1673ffffffffffffffffffffffffffffffffffffffff166340c10f19600960009054906101000a900473ffffffffffffffffffffffffffffffffffffffff166160db848661597290919063ffffffff16565b6040518363ffffffff1660e01b8152600401808373ffffffffffffffffffffffffffffffffffffffff16815260200182815260200192505050602060405180830381600087803b15801561612e57600080fd5b505af1158015616142573d6000803e3d6000fd5b505050506040513d602081101561615857600080fd5b8101908080519060200190929190505050507f91d7cd3ed028d8d46e907034b1fac33c6a42f77585c0c4b1a887b74b6e057fce61619e828461597290919063ffffffff16565b878560405180848152602001838152602001828152602001935050505060405180910390a1600960009054906101000a900473ffffffffffffffffffffffffffffffffffffffff1673ffffffffffffffffffffffffffffffffffffffff1663254a55e88b87616216858761597290919063ffffffff16565b6040518463ffffffff1660e01b8152600401808481526020018381526020018281526020019350505050600060405180830381600087803b15801561625a57600080fd5b505af115801561626e573d6000803e3d6000fd5b5050505050505050505050505b5050565b6000808284019050838110156162fd576040517f08c379a000000000000000000000000000000000000000000000000000000000815260040180806020018281038252601b8152602001807f536166654d6174683a206164646974696f6e206f766572666c6f77000000000081525060200191505060405180910390fd5b8091505092915050565b6163c2846323b872dd60e01b858585604051602401808473ffffffffffffffffffffffffffffffffffffffff1681526020018373ffffffffffffffffffffffffffffffffffffffff1681526020018281526020019350505050604051602081830303815290604052907bffffffffffffffffffffffffffffffffffffffffffffffffffffffff19166020820180517bffffffffffffffffffffffffffffffffffffffffffffffffffffffff838183161783525050505061654e565b50505050565b60008083118290616474576040517f08c379a00000000000000000000000000000000000000000000000000000000081526004018080602001828103825283818151815260200191508051906020019080838360005b8381101561643957808201518184015260208101905061641e565b50505050905090810190601f1680156164665780820380516001836020036101000a031916815260200191505b509250505060405180910390fd5b50600083858161648057fe5b049050809150509392505050565b600083831115829061653b576040517f08c379a00000000000000000000000000000000000000000000000000000000081526004018080602001828103825283818151815260200191508051906020019080838360005b838110156165005780820151818401526020810190506164e5565b50505050905090810190601f16801561652d5780820380516001836020036101000a031916815260200191505b509250505060405180910390fd5b5060008385039050809150509392505050565b60606165b0826040518060400160405280602081526020017f5361666545524332303a206c6f772d6c6576656c2063616c6c206661696c65648152508573ffffffffffffffffffffffffffffffffffffffff1661663d9092919063ffffffff16565b9050600081511115616638578080602001905160208110156165d157600080fd5b8101908080519060200190929190505050616637576040517f08c379a000000000000000000000000000000000000000000000000000000000815260040180806020018281038252602a8152602001806168b6602a913960400191505060405180910390fd5b5b505050565b606061664c8484600085616655565b90509392505050565b60606166608561685b565b6166d2576040517f08c379a000000000000000000000000000000000000000000000000000000000815260040180806020018281038252601d8152602001807f416464726573733a2063616c6c20746f206e6f6e2d636f6e747261637400000081525060200191505060405180910390fd5b600060608673ffffffffffffffffffffffffffffffffffffffff1685876040518082805190602001908083835b6020831061672257805182526020820191506020810190506020830392506166ff565b6001836020036101000a03801982511681845116808217855250505050505090500191505060006040518083038185875af1925050503d8060008114616784576040519150601f19603f3d011682016040523d82523d6000602084013e616789565b606091505b5091509150811561679e578092505050616853565b6000815111156167b15780518082602001fd5b836040517f08c379a00000000000000000000000000000000000000000000000000000000081526004018080602001828103825283818151815260200191508051906020019080838360005b838110156168185780820151818401526020810190506167fd565b50505050905090810190601f1680156168455780820380516001836020036101000a031916815260200191505b509250505060405180910390fd5b949350505050565b600080823b90506000811191505091905056fe4f776e61626c653a206e6577206f776e657220697320746865207a65726f2061646472657373536166654d6174683a206d756c7469706c69636174696f6e206f766572666c6f775361666545524332303a204552433230206f7065726174696f6e20646964206e6f742073756363656564a2646970667358221220e74a7a08ff63081620994e98eabb7985c1f39dde2d61e1d9af523759f0f10c3b64736f6c634300060c0033",
  "immutableReferences": {},
  "source": "pragma solidity ^0.6.9;\r\nimport '@openzeppelin/contracts/math/SafeMath.sol';\r\nimport '@openzeppelin/contracts/access/Ownable.sol';\r\nimport '@openzeppelin/contracts/token/ERC20/IERC20.sol';\r\nimport '@openzeppelin/contracts/token/ERC20/SafeERC20.sol';\r\nimport '@openzeppelin/contracts/utils/ReentrancyGuard.sol';\r\n\r\ninterface IUniswapV2Pair {\r\n  function getReserves() external view returns (uint112 reserve0, uint112 reserve1, uint32 blockTimestampLast);\r\n}\r\ninterface IUniswapV2Factory {\r\n  function getPair(address tokenA, address tokenB) external view returns (address pair);\r\n}\r\nlibrary UniswapV2Library {\r\n    using SafeMath for uint;\r\n    function sortTokens(address tokenA, address tokenB) public pure returns (address token0, address token1) {\r\n        require(tokenA != tokenB, 'IDENTICAL_ADDRESSES');\r\n        (token0, token1) = tokenA < tokenB ? (tokenA, tokenB) : (tokenB, tokenA);\r\n        require(token0 != address(0), 'ZERO_ADDRESS');\r\n    }\r\n}\r\ninterface IOracle {\r\n  function getMarket(uint256 blocknum) external view returns (uint256);\r\n}\r\ninterface IWindToken {\r\n  function mint(address _to, uint256 _amount) external returns (bool);\r\n}\r\ninterface IBSNInterface {\r\n  function invest(\r\n    address _investor,\r\n    uint _investType,\r\n    uint _minute,\r\n    uint _investAmount,\r\n    uint _investBlock,\r\n    uint _investTime,\r\n    uint _openBlock,\r\n    uint _busdPerBeth\r\n  ) external;\r\n  function getMarketToTalMoney () external view returns(uint);\r\n  function getOrderById (uint _id) external view returns (\r\n    address investor,\r\n    uint investType,\r\n    uint minute,\r\n    uint investAmount,\r\n    uint investBlock,\r\n    uint investTime,\r\n    uint openBlock,\r\n    uint busdPerBeth,\r\n    uint dayNum,\r\n    bool isOpen);\r\n    function getBlockRecords(uint _block, uint _minute) external view returns(uint[] memory ids);\r\n    function win(uint _amount, address _user,uint _id) external;\r\n    function fail (uint _id) external;\r\n    function getUserInfo (address _user) external view returns(\r\n    address userAddress,\r\n    uint[] memory records,\r\n    uint marketProvide,\r\n    bool isMarker\r\n  );\r\n  function addPoolMoney (address _user, uint _amount) external;\r\n  function withdrawPoolMoney (address _user, uint _amount, uint _trueAmount)  external;\r\n  function getCurCycleData (uint _dayNum) external view returns(\r\n    uint windToken,\r\n    uint totalInvest,\r\n    uint totalPay,\r\n    uint marketAdd,\r\n    uint dayMarketTotal\r\n  );\r\n  function getUserDayMarket (address _user, uint _dayNum) external view returns(uint _marketAmount);\r\n  function getCurDayStartBlock () external view returns(uint);\r\n  function changeCycle(uint _block, uint _dayMarketTotal, uint _windToken) external;\r\n  function transferPool(uint _amount) external;\r\n  function getCurDayNum () external view returns(uint);\r\n  function receiveDividends (address _user, uint amount, uint _dayNum, address _teamAddress, uint _teamAmount) external;\r\n}\r\ncontract BSN is Ownable, ReentrancyGuard {\r\n  using SafeMath for uint256;\r\n  using SafeERC20 for IERC20;\r\n  \r\n  address factory;  // \r\n  address public BETH; // BETH\r\n  address public BUSD; // BUSD\r\n  address public windToken; // windToken\r\n  address teamAddress; // \r\n  uint public BUSDDecimals;\r\n  uint public windTokenDecimals;\r\n  address public BSNData; // \r\n  // uint public singleInvestAmount;\r\n  uint[] public marketTypeIds;\r\n  struct MarketType{\r\n    uint minute;\r\n    uint duration;\r\n    uint minAmount;\r\n    uint maxAmount;\r\n    mapping(uint => uint) singleMarketInvest;\r\n    bool isExist;\r\n  }\r\n  address oracle;\r\n  uint up = 1;\r\n  uint down = 0;\r\n  uint public addMarketMin;\r\n  uint public addMarketMax;\r\n  bool public isHaveWinUsd = false;\r\n  uint public failRate = 20;\r\n  uint public successRate = 10;\r\n  mapping(uint => MarketType) public marketTypes;\r\n  mapping(uint => mapping(uint => uint)) public dayMinuteNum;\r\n  mapping (address => bool) private accessAllowed;\r\n  mapping(address => mapping(uint => bool)) public isDividend;\r\n  event AccessAllowedAddress(address indexed _addr, bool _access);\r\n  event SetPairAddress(address _BETH, address _BUSD);\r\n  event SetFactoryAddress(address _old, address _new);\r\n  event SetOracleAddress(address _old, address _new);\r\n  event SetBSNDataAddress(address _old, address _new);\r\n  event SetWindTokenAddress(address _old, address _new);\r\n  event Invest(address indexed _user, uint _startBlock, uint _openBlock);\r\n  event OpenAward(uint _amount, uint _windAmount, uint _orderId, address indexed _user);\r\n  event SetAddMarketLimit(uint _min, uint _max);\r\n  event SetHaveWinUsd(bool _old, bool _new);\r\n  event AddPoolMoney(address indexed _user, uint _amount, uint _dayNum, uint _time);\r\n  event ShareBonus(uint _amount, uint _dayNum, uint _busdAmount);\r\n  event MarkerRedeem(address indexed _user, uint _amount, uint _trueAmount, uint _time, uint _block);\r\n  event SetTeamAddress(address _old, address _new);\r\n  event SetRate(uint _failRate, uint _successRate);\r\n  event ReceiveDividends(uint _dayNum, uint _canReceive, address _user);\r\n  constructor (address _BSNData,address _oracle, address _factory, address _BETH, address _BUSD, address _windToken, address _teamAddress) public {\r\n    BSNData = _BSNData;\r\n    oracle = _oracle;\r\n    factory = _factory;\r\n    BETH = _BETH;\r\n    BUSD = _BUSD;\r\n    teamAddress = _teamAddress;\r\n    BUSDDecimals = IERC20(BUSD).decimals();\r\n    windToken = _windToken;\r\n    windTokenDecimals = IERC20(windToken).decimals();\r\n    // singleInvestAmount = 100 * (10 ** BUSDDecimals);\r\n  }\r\n  \r\n  /* \r\n   *  accessAllowed \r\n  */   \r\n  modifier platform() {\r\n    require(accessAllowed[msg.sender] == true, 'no access');\r\n    _;\r\n  }\r\n   /*  accessAllowed \r\n  */ \r\n  function allowAccess(address _addr) onlyOwner public {\r\n    accessAllowed[_addr] = true;\r\n    emit AccessAllowedAddress(_addr, true);\r\n  }\r\n   /* \r\n   *  accessAllowed \r\n  */ \r\n  function denyAccess(address _addr) onlyOwner public {\r\n    accessAllowed[_addr] = false;\r\n    emit AccessAllowedAddress(_addr, false);\r\n  }\r\n  function setHaveWinUsd (bool _have) onlyOwner public {\r\n    emit SetHaveWinUsd(isHaveWinUsd, _have);\r\n    isHaveWinUsd = _have;\r\n  }\r\n  function setPairAddress(address _BETH, address _BUSD) onlyOwner public {\r\n    BETH = _BETH;\r\n    BUSD = _BUSD;\r\n    BUSDDecimals = IERC20(BUSD).decimals();\r\n    // singleInvestAmount = 100 * (10 ** BUSDDecimals);\r\n    emit SetPairAddress(BETH, BUSD);\r\n  }\r\n  function setFactoryAddress(address _factory) onlyOwner public {\r\n    emit SetFactoryAddress(factory, _factory);\r\n    factory = _factory;\r\n  }\r\n  function setTeamAddress(address _teamAddress) onlyOwner public {\r\n    emit SetTeamAddress(teamAddress, _teamAddress);\r\n    teamAddress = _teamAddress;\r\n  }\r\n  function setOracleAddress(address _oracle) onlyOwner public {\r\n    emit SetOracleAddress(oracle, _oracle);\r\n    oracle = _oracle;\r\n  }\r\n  function setBSNDataAddress(address _BSNData) onlyOwner public {\r\n    emit SetBSNDataAddress(BSNData, _BSNData);\r\n    BSNData = _BSNData;\r\n  }\r\n  function setAddMarketLimit(uint _min, uint _max) onlyOwner public {\r\n    require(_max > _min);\r\n    emit SetAddMarketLimit(_min, _max);\r\n    addMarketMin = _min.mul(10 ** BUSDDecimals);\r\n    addMarketMax = _max.mul(10 ** BUSDDecimals);\r\n  }\r\n  function setRate(uint _failRate, uint _successRate) onlyOwner public {\r\n    emit SetRate(_failRate, _successRate);\r\n    failRate = _failRate;\r\n    successRate = _successRate;\r\n  }\r\n  function setWindTokenAddress(address _windToken) onlyOwner public {\r\n    emit SetWindTokenAddress(windToken, _windToken);\r\n    windToken = _windToken;\r\n    windTokenDecimals = IERC20(windToken).decimals();\r\n  }\r\n  function addMarketType(uint _minute, uint _duration, uint _minAmount, uint _maxAmount, uint _singleMarketInvest) onlyOwner public{\r\n    require(_maxAmount > _minAmount);\r\n    if (!marketTypes[_minute].isExist) {\r\n      marketTypeIds.push(_minute);\r\n      marketTypes[_minute].isExist = true;\r\n    }\r\n    uint dayNum = IBSNInterface(BSNData).getCurDayNum();\r\n    marketTypes[_minute].minute = _minute;\r\n    marketTypes[_minute].duration = _duration;\r\n    marketTypes[_minute].minAmount = _minAmount.mul(10 ** BUSDDecimals);\r\n    marketTypes[_minute].maxAmount = _maxAmount.mul(10 ** BUSDDecimals);\r\n    marketTypes[_minute].singleMarketInvest[dayNum] = _singleMarketInvest.mul(10 ** BUSDDecimals);\r\n  }\r\n  function invest(uint _investType, uint _minute, uint _investAmount) public nonReentrant {\r\n    require(marketTypes[_minute].isExist);\r\n    require(_investAmount >= marketTypes[_minute].minAmount);\r\n    require(_investAmount <= marketTypes[_minute].maxAmount);\r\n    require(_investType == up || _investType == down);\r\n    (uint curDayAmount, uint marketInvest) = getCurCycleIncome();\r\n    if (marketInvest > curDayAmount) {\r\n       require(marketInvest.sub(curDayAmount) < marketInvest.mul(10).div(100));\r\n    }\r\n    changeCycle(block.number);\r\n    // require(_investAmount <= marketTypes[_minute].minute.mul(singleInvestAmount));\r\n    IERC20(BUSD).safeTransferFrom(msg.sender, BSNData, _investAmount);\r\n    uint dayNum = IBSNInterface(BSNData).getCurDayNum();\r\n    dayMinuteNum[dayNum][_minute] = dayMinuteNum[dayNum][_minute].add(_investAmount);\r\n    uint price = getEthUsd();\r\n    uint openBlock = marketTypes[_minute].duration.add(block.number);\r\n    IBSNInterface(BSNData).invest(msg.sender, uint(_investType), _minute, _investAmount, block.number, block.timestamp, openBlock ,price);\r\n    emit Invest(msg.sender, block.number, openBlock);\r\n  }\r\n  function changeCycle (uint _block) private {\r\n    uint curBlock = IBSNInterface(BSNData).getCurDayStartBlock();\r\n    if (_block >= curBlock.add(28800)) {\r\n      (uint curDayAmount, uint marketInvest) = getCurCycleIncome();\r\n      uint dayNum = IBSNInterface(BSNData).getCurDayNum();\r\n      for(uint i = 0; i < marketTypeIds.length; i++) {\r\n        uint total = dayMinuteNum[dayNum][marketTypeIds[i]];\r\n        if (total > marketTypes[marketTypeIds[i]].singleMarketInvest[dayNum].mul(24)){\r\n          marketTypes[marketTypeIds[i]].singleMarketInvest[dayNum.add(1)] = marketTypes[marketTypeIds[i]].singleMarketInvest[dayNum].add(10000 * (10 ** BUSDDecimals));\r\n        }\r\n        if (marketInvest > curDayAmount && marketInvest.sub(curDayAmount) > marketInvest.mul(5).div(100)) {\r\n          marketTypes[marketTypeIds[i]].singleMarketInvest[dayNum.add(1)] = marketTypes[marketTypeIds[i]].singleMarketInvest[dayNum].div(2);\r\n        }\r\n      }\r\n      uint _dayMarketTotal;\r\n      uint amount;\r\n      uint busdAmount;\r\n      if (curDayAmount < marketInvest) {\r\n         _dayMarketTotal = curDayAmount;\r\n         amount = marketInvest.sub(curDayAmount);\r\n      } else {\r\n        _dayMarketTotal = marketInvest;\r\n        amount = curDayAmount.sub(marketInvest);\r\n        if (amount > 0) {\r\n          IBSNInterface(BSNData).transferPool(amount);\r\n          busdAmount = amount;\r\n        }\r\n      }\r\n       if (dayNum <= 60) {\r\n          uint amountMarket = marketInvest.div(100);\r\n          amount = amount > amountMarket ? amount : amountMarket;\r\n       }\r\n       uint windTokenAmount = isHaveWinUsd ? amount.mul(getPerUSdtWind()).mul(10 ** windTokenDecimals).div(10 ** BUSDDecimals).div(10 ** 10) : amount.mul(100).mul(10 ** windTokenDecimals).div(10 ** BUSDDecimals);\r\n       uint teamAmount = windTokenAmount.div(9);\r\n       IWindToken(windToken).mint(teamAddress, teamAmount);\r\n       IWindToken(windToken).mint(BSNData, windTokenAmount.sub(teamAmount));\r\n      emit ShareBonus(windTokenAmount.sub(teamAmount), dayNum, busdAmount);\r\n      IBSNInterface(BSNData).changeCycle(_block, _dayMarketTotal, windTokenAmount.sub(teamAmount));\r\n    }\r\n  }\r\n  function openAward (uint _orderId) public nonReentrant {\r\n    (address investor,,,,,,uint openBlock,,,bool isOpen) = IBSNInterface(BSNData).getOrderById(_orderId);\r\n    require(msg.sender == investor);\r\n    require(!isOpen);\r\n    uint openBlockPrice = getBlockPrice(openBlock);\r\n    require(openBlockPrice > 0);\r\n    (uint back, uint winTokenAmount) = getWin(_orderId);\r\n    if (back > 0) {\r\n      IBSNInterface(BSNData).win(back, msg.sender, _orderId);\r\n    } else {\r\n      IBSNInterface(BSNData).fail(_orderId);\r\n    }\r\n    uint teamAmount = winTokenAmount.div(9);\r\n    if (winTokenAmount > 0) {\r\n      IWindToken(windToken).mint(teamAddress, teamAmount);\r\n      IWindToken(windToken).mint(msg.sender, winTokenAmount.sub(teamAmount));\r\n    }\r\n    emit OpenAward(back, winTokenAmount.sub(teamAmount), _orderId, msg.sender);\r\n    changeCycle(block.number);\r\n  }\r\n  function getWin (uint _orderId) public view returns(uint back, uint winTokenAmount){\r\n    (,uint investType,uint minute,uint _investAmount,uint investBlock,,uint openBlock,uint busdPerBeth,uint investDayNum,) = IBSNInterface(BSNData).getOrderById(_orderId);\r\n    uint openBlockPrice = getBlockPrice(openBlock);\r\n    (uint upTotal, uint downTotal) = getBlockUpAndDown(investBlock, minute);\r\n    uint singleMarketInvest = marketTypes[minute].singleMarketInvest[investDayNum];\r\n    uint investAmount = _investAmount;\r\n    if (busdPerBeth == openBlockPrice) {\r\n      back = investAmount;\r\n      winTokenAmount = 0;\r\n    }\r\n    if (investType == up && busdPerBeth > openBlockPrice) {\r\n       winTokenAmount = isHaveWinUsd ? investAmount.mul(failRate).mul(getPerUSdtWind()).mul(10 ** windTokenDecimals).div(10 ** BUSDDecimals).div(10 ** 12) : investAmount.mul(failRate).mul(10 ** windTokenDecimals).div(10 ** BUSDDecimals);\r\n       back = 0;\r\n    }\r\n    if (investType == up && busdPerBeth < openBlockPrice) {\r\n        back = investAmount.mul(downTotal.add(singleMarketInvest)).div(upTotal.add(singleMarketInvest)).mul(85).div(100).add(investAmount);\r\n        winTokenAmount = isHaveWinUsd ? investAmount.mul(successRate).mul(getPerUSdtWind()).mul(10 ** windTokenDecimals).div(10 ** BUSDDecimals).div(10 ** 12) : investAmount.mul(successRate).mul(10 ** windTokenDecimals).div(10 ** BUSDDecimals);\r\n    }\r\n    if(investType == down && busdPerBeth > openBlockPrice) {\r\n       back = investAmount.mul(upTotal.add(singleMarketInvest)).div(downTotal.add(singleMarketInvest)).mul(85).div(100).add(investAmount);\r\n       winTokenAmount = isHaveWinUsd ? investAmount.mul(successRate).mul(getPerUSdtWind()).mul(10 ** windTokenDecimals).div(10 ** BUSDDecimals).div(10 ** 12) : investAmount.mul(successRate).mul(10 ** windTokenDecimals).div(10 ** BUSDDecimals);\r\n    }\r\n    if(investType == down && busdPerBeth < openBlockPrice) {\r\n       winTokenAmount = isHaveWinUsd ? investAmount.mul(failRate).mul(getPerUSdtWind()).mul(10 ** windTokenDecimals).div(10 ** BUSDDecimals).div(10 ** 12) : investAmount.mul(failRate).mul(10 ** windTokenDecimals).div(10 ** BUSDDecimals);\r\n       back = 0;\r\n    }\r\n  }\r\n  function addMarketPool(uint _amount) public nonReentrant {\r\n    require(_amount >= addMarketMin);\r\n    require(_amount <= addMarketMax);\r\n    changeCycle(block.number);\r\n    IERC20(BUSD).safeTransferFrom(msg.sender, BSNData, _amount);\r\n    IBSNInterface(BSNData).addPoolMoney(msg.sender,_amount);\r\n    uint dayNum = IBSNInterface(BSNData).getCurDayNum();\r\n    emit AddPoolMoney(msg.sender, _amount, dayNum, block.timestamp);\r\n  }\r\n  function markerRedeem (uint _amount) public nonReentrant {\r\n    require(_amount >= addMarketMin);\r\n     (, , uint marketProvide,) = IBSNInterface(BSNData).getUserInfo(msg.sender);\r\n     require(marketProvide >= _amount);\r\n     (uint curDayAmount, uint marketInvest) = getCurCycleIncome();\r\n     uint trueAmount;\r\n     if (curDayAmount < marketInvest) {\r\n      trueAmount = _amount.mul(marketInvest.sub(curDayAmount)).div(marketInvest);\r\n     } else {\r\n       trueAmount = _amount;\r\n     }\r\n     IBSNInterface(BSNData).withdrawPoolMoney(msg.sender, _amount , trueAmount);\r\n     changeCycle(block.number);\r\n     emit MarkerRedeem(msg.sender, _amount, trueAmount, block.timestamp, block.number);\r\n  }\r\n  function receiveDividends (uint _dayNum) public nonReentrant {\r\n    uint dayNum = IBSNInterface(BSNData).getCurDayNum();\r\n    require(_dayNum < dayNum);\r\n    require(!isDividend[msg.sender][_dayNum]);\r\n    (,, uint marketProvide,) = IBSNInterface(BSNData).getUserInfo(msg.sender);\r\n    require(marketProvide > 0);\r\n    uint dayMarketProvide = IBSNInterface(BSNData).getUserDayMarket(msg.sender, _dayNum);\r\n    require(dayMarketProvide > 0);\r\n    (uint _windToken,,uint _marketToTalMoney,,) = IBSNInterface(BSNData).getCurCycleData(_dayNum);\r\n    uint canReceive = _windToken.mul(dayMarketProvide).div(_marketToTalMoney);\r\n    isDividend[msg.sender][_dayNum] = true;\r\n    IBSNInterface(BSNData).receiveDividends(msg.sender, canReceive, _dayNum, teamAddress, 0);\r\n    emit ReceiveDividends(_dayNum, canReceive, msg.sender);\r\n  }\r\n  function giveDividends (address _user,uint _dayNum) public nonReentrant onlyOwner{\r\n    uint dayNum = IBSNInterface(BSNData).getCurDayNum();\r\n    require(_dayNum < dayNum);\r\n    require(!isDividend[_user][_dayNum]);\r\n    (,, uint marketProvide,) = IBSNInterface(BSNData).getUserInfo(_user);\r\n    require(marketProvide > 0);\r\n    uint dayMarketProvide = IBSNInterface(BSNData).getUserDayMarket(_user, _dayNum);\r\n    require(dayMarketProvide > 0);\r\n    (uint _windToken,,uint _marketToTalMoney,,) = IBSNInterface(BSNData).getCurCycleData(_dayNum);\r\n    uint canReceive = _windToken.mul(dayMarketProvide).div(_marketToTalMoney);\r\n    uint teamReceive = canReceive.div(100);\r\n    isDividend[_user][_dayNum] = true;\r\n    IBSNInterface(BSNData).receiveDividends(_user, canReceive.sub(teamReceive), _dayNum, teamAddress, teamReceive);\r\n    emit ReceiveDividends(_dayNum, canReceive, _user);\r\n  }\r\n  function getEthUsd () public view returns(uint rate) {\r\n    (address token0,) = UniswapV2Library.sortTokens(BETH, BUSD);\r\n    (uint reserve0, uint reserve1,) = IUniswapV2Pair(IUniswapV2Factory(factory).getPair(BETH, BUSD)).getReserves();\r\n    (uint reserveA, uint reserveB) = BETH == token0 ? (reserve0, reserve1) : (reserve1, reserve0);\r\n    rate = reserveB.mul(10**10).div(reserveA);\r\n  }\r\n  function getPerUSdtWind () public view returns(uint rate) {\r\n    (address token0,) = UniswapV2Library.sortTokens(BUSD, windToken);\r\n    (uint reserve0, uint reserve1,) = IUniswapV2Pair(IUniswapV2Factory(factory).getPair(BUSD, windToken)).getReserves();\r\n    (uint reserveA, uint reserveB) = BUSD == token0 ? (reserve0, reserve1) : (reserve1, reserve0);\r\n    rate = reserveB.mul(10 ** BUSDDecimals).mul(10 ** 10).div(reserveA).div(windTokenDecimals);\r\n  }\r\n  function getBlockUpAndDown (uint _block, uint _minute) public view returns(uint upTotal, uint downTotal) {\r\n    uint[] memory records = IBSNInterface(BSNData).getBlockRecords(_block, _minute);\r\n    uint _upTotal = 0;\r\n    uint _downTotal = 0;\r\n    for(uint i = 0; i < records.length; i++) {\r\n      (,uint investType,,uint investAmount,,,,,,) = IBSNInterface(BSNData).getOrderById(records[i]);\r\n      if (investType == up) {\r\n        _upTotal = _upTotal.add(investAmount);\r\n      } else {\r\n        _downTotal = _downTotal.add(investAmount);\r\n      }\r\n    }\r\n    return (_upTotal, _downTotal);\r\n  }\r\n  function getBlockPrice(uint _block) public view returns(uint price) {\r\n    uint _price = IOracle(oracle).getMarket(_block);\r\n    return _price;\r\n  }\r\n  function getCurCycleIncome ()  public view returns (uint curAmount, uint marketInvest){\r\n    curAmount = IERC20(BUSD).balanceOf(BSNData);\r\n    marketInvest = IBSNInterface(BSNData).getMarketToTalMoney();\r\n  }\r\n  function getMarketTypeIds () public view returns(uint[] memory _marketTypeIds) {\r\n    return marketTypeIds;\r\n  }\r\n}",
  "sourcePath": "E:/contractProject/BSN/contracts/BSN.sol",
  "compiler": {
    "name": "solc",
    "version": "0.6.12+commit.27d51765.Emscripten.clang"
  },
  "schemaVersion": "3.2.5",
  "updatedAt": "2021-03-11T02:30:28.268Z",
  "devdoc": {
    "kind": "dev",
    "methods": {
      "owner()": {
        "details": "Returns the address of the current owner."
      },
      "renounceOwnership()": {
        "details": "Leaves the contract without owner. It will not be possible to call `onlyOwner` functions anymore. Can only be called by the current owner. NOTE: Renouncing ownership will leave the contract without an owner, thereby removing any functionality that is only available to the owner."
      },
      "transferOwnership(address)": {
        "details": "Transfers ownership of the contract to a new account (`newOwner`). Can only be called by the current owner."
      }
    },
    "version": 1
  },
  "userdoc": {
    "kind": "user",
    "methods": {},
    "version": 1
  }
}