{
  "contractName": "BSNData",
  "abi": [
    {
      "inputs": [
        {
          "internalType": "address",
          "name": "_BUSD",
          "type": "address"
        },
        {
          "internalType": "address",
          "name": "_pool",
          "type": "address"
        },
        {
          "internalType": "address",
          "name": "_windToken",
          "type": "address"
        }
      ],
      "stateMutability": "nonpayable",
      "type": "constructor"
    },
    {
      "anonymous": false,
      "inputs": [
        {
          "indexed": true,
          "internalType": "address",
          "name": "_addr",
          "type": "address"
        },
        {
          "indexed": false,
          "internalType": "bool",
          "name": "_access",
          "type": "bool"
        }
      ],
      "name": "AccessAllowedAddress",
      "type": "event"
    },
    {
      "anonymous": false,
      "inputs": [
        {
          "indexed": true,
          "internalType": "address",
          "name": "previousOwner",
          "type": "address"
        },
        {
          "indexed": true,
          "internalType": "address",
          "name": "newOwner",
          "type": "address"
        }
      ],
      "name": "OwnershipTransferred",
      "type": "event"
    },
    {
      "anonymous": false,
      "inputs": [
        {
          "indexed": false,
          "internalType": "address",
          "name": "_old",
          "type": "address"
        },
        {
          "indexed": false,
          "internalType": "address",
          "name": "_new",
          "type": "address"
        }
      ],
      "name": "SetBUSDAddress",
      "type": "event"
    },
    {
      "anonymous": false,
      "inputs": [
        {
          "indexed": false,
          "internalType": "address",
          "name": "_old",
          "type": "address"
        },
        {
          "indexed": false,
          "internalType": "address",
          "name": "_new",
          "type": "address"
        }
      ],
      "name": "SetPoolAddress",
      "type": "event"
    },
    {
      "anonymous": false,
      "inputs": [
        {
          "indexed": false,
          "internalType": "address",
          "name": "_old",
          "type": "address"
        },
        {
          "indexed": false,
          "internalType": "address",
          "name": "_new",
          "type": "address"
        }
      ],
      "name": "SetWindTokenAddress",
      "type": "event"
    },
    {
      "inputs": [],
      "name": "BUSD",
      "outputs": [
        {
          "internalType": "address",
          "name": "",
          "type": "address"
        }
      ],
      "stateMutability": "view",
      "type": "function"
    },
    {
      "inputs": [],
      "name": "BUSDDecimals",
      "outputs": [
        {
          "internalType": "uint256",
          "name": "",
          "type": "uint256"
        }
      ],
      "stateMutability": "view",
      "type": "function"
    },
    {
      "inputs": [],
      "name": "curDayStartBlock",
      "outputs": [
        {
          "internalType": "uint256",
          "name": "",
          "type": "uint256"
        }
      ],
      "stateMutability": "view",
      "type": "function"
    },
    {
      "inputs": [],
      "name": "dayNum",
      "outputs": [
        {
          "internalType": "uint256",
          "name": "",
          "type": "uint256"
        }
      ],
      "stateMutability": "view",
      "type": "function"
    },
    {
      "inputs": [],
      "name": "orderId",
      "outputs": [
        {
          "internalType": "uint256",
          "name": "",
          "type": "uint256"
        }
      ],
      "stateMutability": "view",
      "type": "function"
    },
    {
      "inputs": [],
      "name": "owner",
      "outputs": [
        {
          "internalType": "address",
          "name": "",
          "type": "address"
        }
      ],
      "stateMutability": "view",
      "type": "function"
    },
    {
      "inputs": [],
      "name": "perDayBlock",
      "outputs": [
        {
          "internalType": "uint256",
          "name": "",
          "type": "uint256"
        }
      ],
      "stateMutability": "view",
      "type": "function"
    },
    {
      "inputs": [],
      "name": "renounceOwnership",
      "outputs": [],
      "stateMutability": "nonpayable",
      "type": "function"
    },
    {
      "inputs": [
        {
          "internalType": "address",
          "name": "newOwner",
          "type": "address"
        }
      ],
      "name": "transferOwnership",
      "outputs": [],
      "stateMutability": "nonpayable",
      "type": "function"
    },
    {
      "inputs": [],
      "name": "windToken",
      "outputs": [
        {
          "internalType": "address",
          "name": "",
          "type": "address"
        }
      ],
      "stateMutability": "view",
      "type": "function"
    },
    {
      "inputs": [
        {
          "internalType": "address",
          "name": "_windToken",
          "type": "address"
        }
      ],
      "name": "setWindTokenAddress",
      "outputs": [],
      "stateMutability": "nonpayable",
      "type": "function"
    },
    {
      "inputs": [
        {
          "internalType": "address",
          "name": "_addr",
          "type": "address"
        }
      ],
      "name": "allowAccess",
      "outputs": [],
      "stateMutability": "nonpayable",
      "type": "function"
    },
    {
      "inputs": [
        {
          "internalType": "address",
          "name": "_addr",
          "type": "address"
        }
      ],
      "name": "denyAccess",
      "outputs": [],
      "stateMutability": "nonpayable",
      "type": "function"
    },
    {
      "inputs": [
        {
          "internalType": "address",
          "name": "_BUSD",
          "type": "address"
        }
      ],
      "name": "setBUSDAddress",
      "outputs": [],
      "stateMutability": "nonpayable",
      "type": "function"
    },
    {
      "inputs": [
        {
          "internalType": "address",
          "name": "_pool",
          "type": "address"
        }
      ],
      "name": "setPoolAddress",
      "outputs": [],
      "stateMutability": "nonpayable",
      "type": "function"
    },
    {
      "inputs": [],
      "name": "getMarketToTalMoney",
      "outputs": [
        {
          "internalType": "uint256",
          "name": "",
          "type": "uint256"
        }
      ],
      "stateMutability": "view",
      "type": "function"
    },
    {
      "inputs": [
        {
          "internalType": "uint256",
          "name": "_id",
          "type": "uint256"
        }
      ],
      "name": "getOrderById",
      "outputs": [
        {
          "internalType": "address",
          "name": "investor",
          "type": "address"
        },
        {
          "internalType": "uint256",
          "name": "investType",
          "type": "uint256"
        },
        {
          "internalType": "uint256",
          "name": "minute",
          "type": "uint256"
        },
        {
          "internalType": "uint256",
          "name": "investAmount",
          "type": "uint256"
        },
        {
          "internalType": "uint256",
          "name": "investBlock",
          "type": "uint256"
        },
        {
          "internalType": "uint256",
          "name": "investTime",
          "type": "uint256"
        },
        {
          "internalType": "uint256",
          "name": "openBlock",
          "type": "uint256"
        },
        {
          "internalType": "uint256",
          "name": "busdPerBeth",
          "type": "uint256"
        },
        {
          "internalType": "uint256",
          "name": "investDayNum",
          "type": "uint256"
        },
        {
          "internalType": "bool",
          "name": "isOpen",
          "type": "bool"
        }
      ],
      "stateMutability": "view",
      "type": "function"
    },
    {
      "inputs": [
        {
          "internalType": "uint256",
          "name": "_block",
          "type": "uint256"
        },
        {
          "internalType": "uint256",
          "name": "_minute",
          "type": "uint256"
        }
      ],
      "name": "getBlockRecords",
      "outputs": [
        {
          "internalType": "uint256[]",
          "name": "ids",
          "type": "uint256[]"
        }
      ],
      "stateMutability": "view",
      "type": "function"
    },
    {
      "inputs": [
        {
          "internalType": "address",
          "name": "_user",
          "type": "address"
        },
        {
          "internalType": "uint256",
          "name": "_dayNum",
          "type": "uint256"
        }
      ],
      "name": "getUserDayMarket",
      "outputs": [
        {
          "internalType": "uint256",
          "name": "_marketAmount",
          "type": "uint256"
        }
      ],
      "stateMutability": "view",
      "type": "function"
    },
    {
      "inputs": [],
      "name": "getCurDayNum",
      "outputs": [
        {
          "internalType": "uint256",
          "name": "",
          "type": "uint256"
        }
      ],
      "stateMutability": "view",
      "type": "function"
    },
    {
      "inputs": [
        {
          "internalType": "address",
          "name": "_user",
          "type": "address"
        }
      ],
      "name": "getUserInfo",
      "outputs": [
        {
          "internalType": "address",
          "name": "userAddress",
          "type": "address"
        },
        {
          "internalType": "uint256[]",
          "name": "_recordIds",
          "type": "uint256[]"
        },
        {
          "internalType": "uint256",
          "name": "marketProvide",
          "type": "uint256"
        },
        {
          "internalType": "bool",
          "name": "isMarker",
          "type": "bool"
        }
      ],
      "stateMutability": "view",
      "type": "function"
    },
    {
      "inputs": [
        {
          "internalType": "uint256",
          "name": "_dayNum",
          "type": "uint256"
        }
      ],
      "name": "getCurCycleData",
      "outputs": [
        {
          "internalType": "uint256",
          "name": "_windToken",
          "type": "uint256"
        },
        {
          "internalType": "uint256",
          "name": "totalInvest",
          "type": "uint256"
        },
        {
          "internalType": "uint256",
          "name": "_marketToTalMoney",
          "type": "uint256"
        },
        {
          "internalType": "uint256",
          "name": "marketAdd",
          "type": "uint256"
        },
        {
          "internalType": "uint256",
          "name": "dayMarketTotal",
          "type": "uint256"
        }
      ],
      "stateMutability": "view",
      "type": "function"
    },
    {
      "inputs": [],
      "name": "getCurDayStartBlock",
      "outputs": [
        {
          "internalType": "uint256",
          "name": "",
          "type": "uint256"
        }
      ],
      "stateMutability": "view",
      "type": "function"
    },
    {
      "inputs": [
        {
          "internalType": "address",
          "name": "_investor",
          "type": "address"
        },
        {
          "internalType": "uint256",
          "name": "_investType",
          "type": "uint256"
        },
        {
          "internalType": "uint256",
          "name": "_minute",
          "type": "uint256"
        },
        {
          "internalType": "uint256",
          "name": "_investAmount",
          "type": "uint256"
        },
        {
          "internalType": "uint256",
          "name": "_investBlock",
          "type": "uint256"
        },
        {
          "internalType": "uint256",
          "name": "_investTime",
          "type": "uint256"
        },
        {
          "internalType": "uint256",
          "name": "_openBlock",
          "type": "uint256"
        },
        {
          "internalType": "uint256",
          "name": "_busdPerBeth",
          "type": "uint256"
        }
      ],
      "name": "invest",
      "outputs": [],
      "stateMutability": "nonpayable",
      "type": "function"
    },
    {
      "inputs": [
        {
          "internalType": "uint256",
          "name": "_block",
          "type": "uint256"
        },
        {
          "internalType": "uint256",
          "name": "_dayMarketTotal",
          "type": "uint256"
        },
        {
          "internalType": "uint256",
          "name": "_windToken",
          "type": "uint256"
        }
      ],
      "name": "changeCycle",
      "outputs": [],
      "stateMutability": "nonpayable",
      "type": "function"
    },
    {
      "inputs": [
        {
          "internalType": "uint256",
          "name": "_amount",
          "type": "uint256"
        }
      ],
      "name": "transferPool",
      "outputs": [],
      "stateMutability": "nonpayable",
      "type": "function"
    },
    {
      "inputs": [
        {
          "internalType": "uint256",
          "name": "_amount",
          "type": "uint256"
        },
        {
          "internalType": "address",
          "name": "_user",
          "type": "address"
        },
        {
          "internalType": "uint256",
          "name": "_id",
          "type": "uint256"
        }
      ],
      "name": "win",
      "outputs": [],
      "stateMutability": "nonpayable",
      "type": "function"
    },
    {
      "inputs": [
        {
          "internalType": "uint256",
          "name": "_id",
          "type": "uint256"
        }
      ],
      "name": "fail",
      "outputs": [],
      "stateMutability": "nonpayable",
      "type": "function"
    },
    {
      "inputs": [
        {
          "internalType": "address",
          "name": "_user",
          "type": "address"
        },
        {
          "internalType": "uint256",
          "name": "_amount",
          "type": "uint256"
        }
      ],
      "name": "addPoolMoney",
      "outputs": [],
      "stateMutability": "nonpayable",
      "type": "function"
    },
    {
      "inputs": [
        {
          "internalType": "address",
          "name": "_user",
          "type": "address"
        },
        {
          "internalType": "uint256",
          "name": "_amount",
          "type": "uint256"
        },
        {
          "internalType": "uint256",
          "name": "_trueAmount",
          "type": "uint256"
        }
      ],
      "name": "withdrawPoolMoney",
      "outputs": [],
      "stateMutability": "nonpayable",
      "type": "function"
    },
    {
      "inputs": [
        {
          "internalType": "address",
          "name": "_user",
          "type": "address"
        },
        {
          "internalType": "uint256",
          "name": "amount",
          "type": "uint256"
        },
        {
          "internalType": "uint256",
          "name": "_dayNum",
          "type": "uint256"
        },
        {
          "internalType": "address",
          "name": "_teamAddress",
          "type": "address"
        },
        {
          "internalType": "uint256",
          "name": "_teamAmount",
          "type": "uint256"
        }
      ],
      "name": "receiveDividends",
      "outputs": [],
      "stateMutability": "nonpayable",
      "type": "function"
    }
  ],
  "bytecode": "0x60806040526001805561708060025560016003556001600a556000600b553480156200002a57600080fd5b50604051620041ec380380620041ec833981810160405260608110156200005057600080fd5b81019080805190602001909291908051906020019092919080519060200190929190505050600062000087620003c660201b60201c565b9050806000806101000a81548173ffffffffffffffffffffffffffffffffffffffff021916908373ffffffffffffffffffffffffffffffffffffffff1602179055508073ffffffffffffffffffffffffffffffffffffffff16600073ffffffffffffffffffffffffffffffffffffffff167f8be0079c531659141344cd1fd0a4f28419497f9722a3daafe3b4186f6b6457e060405160405180910390a3504360048190555060006007819055506200013e620003ce565b600c6000600354815260200190815260200160002060405180610100016040529081600082015481526020016001820154815260200160028201548152602001600382015481526020016004820154815260200160058201548152602001600682015481526020016007820160009054906101000a900460ff161515151581525050905060045481600001818152505080600c60006003548152602001908152602001600020600082015181600001556020820151816001015560408201518160020155606082015181600301556080820151816004015560a0820151816005015560c0820151816006015560e08201518160070160006101000a81548160ff02191690831515021790555090505083600860006101000a81548173ffffffffffffffffffffffffffffffffffffffff021916908373ffffffffffffffffffffffffffffffffffffffff16021790555082600560006101000a81548173ffffffffffffffffffffffffffffffffffffffff021916908373ffffffffffffffffffffffffffffffffffffffff16021790555081600660006101000a81548173ffffffffffffffffffffffffffffffffffffffff021916908373ffffffffffffffffffffffffffffffffffffffff160217905550600860009054906101000a900473ffffffffffffffffffffffffffffffffffffffff1673ffffffffffffffffffffffffffffffffffffffff1663313ce5676040518163ffffffff1660e01b815260040160206040518083038186803b1580156200037957600080fd5b505afa1580156200038e573d6000803e3d6000fd5b505050506040513d6020811015620003a557600080fd5b81019080805190602001909291905050506009819055505050505062000415565b600033905090565b604051806101000160405280600081526020016000815260200160008152602001600081526020016000815260200160008152602001600081526020016000151581525090565b613dc780620004256000396000f3fe608060405234801561001057600080fd5b50600436106101e55760003560e01c8063813d9bd41161010f578063bbfa2795116100a2578063d97b87d711610071578063d97b87d714610979578063d9a27c8814610997578063e9e15b4f146109e5578063f2fde38b14610a29576101e5565b8063bbfa279514610871578063c398f9db146108b5578063c4a85bc114610917578063cddcff3d1461095b576101e5565b806395b3d105116100de57806395b3d105146107d357806399a9cdce146107f1578063ad7aab651461080f578063bb297aa614610853576101e5565b8063813d9bd4146106f557806389461c09146107135780638da5cb5b1461076b5780639403d80b1461079f576101e5565b80633fadf2cb116101875780634d8206ce116101565780634d8206ce146105c357806361afd5ac146105e15780636386c1c714610625578063715018a6146106eb576101e5565b80633fadf2cb1461041c57806342b50a7a1461047457806345f478b71461050d578063484f4ea91461058f576101e5565b8063132e4f3c116101c3578063132e4f3c14610301578063163de5e51461032f5780631a0fa1291461034d578063254a55e8146103da576101e5565b806305f4ac4c146101ea5780630ab0117414610275578063128a4ead146102d3575b600080fd5b610273600480360361010081101561020157600080fd5b81019080803573ffffffffffffffffffffffffffffffffffffffff16906020019092919080359060200190929190803590602001909291908035906020019092919080359060200190929190803590602001909291908035906020019092919080359060200190929190505050610a6d565b005b6102a16004803603602081101561028b57600080fd5b8101908080359060200190929190505050610ce5565b604051808681526020018581526020018481526020018381526020018281526020019550505050505060405180910390f35b6102ff600480360360208110156102e957600080fd5b8101908080359060200190929190505050610d73565b005b61032d6004803603602081101561031757600080fd5b8101908080359060200190929190505050610f7b565b005b610337611073565b6040518082815260200191505060405180910390f35b6103836004803603604081101561036357600080fd5b810190808035906020019092919080359060200190929190505050611079565b6040518080602001828103825283818151815260200191508051906020019060200280838360005b838110156103c65780820151818401526020810190506103ab565b505050509050019250505060405180910390f35b61041a600480360360608110156103f057600080fd5b810190808035906020019092919080359060200190929190803590602001909291905050506110f9565b005b6104726004803603606081101561043257600080fd5b81019080803573ffffffffffffffffffffffffffffffffffffffff16906020019092919080359060200190929190803590602001909291905050506113a6565b005b6104a06004803603602081101561048a57600080fd5b81019080803590602001909291905050506114c8565b604051808b73ffffffffffffffffffffffffffffffffffffffff1681526020018a815260200189815260200188815260200187815260200186815260200185815260200184815260200183815260200182151581526020019a505050505050505050505060405180910390f35b61058d600480360360a081101561052357600080fd5b81019080803573ffffffffffffffffffffffffffffffffffffffff1690602001909291908035906020019092919080359060200190929190803573ffffffffffffffffffffffffffffffffffffffff16906020019092919080359060200190929190505050611617565b005b61059761189e565b604051808273ffffffffffffffffffffffffffffffffffffffff16815260200191505060405180910390f35b6105cb6118c4565b6040518082815260200191505060405180910390f35b610623600480360360208110156105f757600080fd5b81019080803573ffffffffffffffffffffffffffffffffffffffff1690602001909291905050506118ca565b005b6106676004803603602081101561063b57600080fd5b81019080803573ffffffffffffffffffffffffffffffffffffffff169060200190929190505050611a3e565b604051808573ffffffffffffffffffffffffffffffffffffffff168152602001806020018481526020018315158152602001828103825285818151815260200191508051906020019060200280838360005b838110156106d45780820151818401526020810190506106b9565b505050509050019550505050505060405180910390f35b6106f3611bde565b005b6106fd611d64565b6040518082815260200191505060405180910390f35b6107696004803603606081101561072957600080fd5b8101908080359060200190929190803573ffffffffffffffffffffffffffffffffffffffff16906020019092919080359060200190929190505050611d6a565b005b610773611f81565b604051808273ffffffffffffffffffffffffffffffffffffffff16815260200191505060405180910390f35b6107a7611faa565b604051808273ffffffffffffffffffffffffffffffffffffffff16815260200191505060405180910390f35b6107db611fd0565b6040518082815260200191505060405180910390f35b6107f9611fd6565b6040518082815260200191505060405180910390f35b6108516004803603602081101561082557600080fd5b81019080803573ffffffffffffffffffffffffffffffffffffffff169060200190929190505050611fe0565b005b61085b612179565b6040518082815260200191505060405180910390f35b6108b36004803603602081101561088757600080fd5b81019080803573ffffffffffffffffffffffffffffffffffffffff16906020019092919050505061217f565b005b610901600480360360408110156108cb57600080fd5b81019080803573ffffffffffffffffffffffffffffffffffffffff169060200190929190803590602001909291905050506123c1565b6040518082815260200191505060405180910390f35b6109596004803603602081101561092d57600080fd5b81019080803573ffffffffffffffffffffffffffffffffffffffff16906020019092919050505061241c565b005b610963612590565b6040518082815260200191505060405180910390f35b61098161259a565b6040518082815260200191505060405180910390f35b6109e3600480360360408110156109ad57600080fd5b81019080803573ffffffffffffffffffffffffffffffffffffffff169060200190929190803590602001909291905050506125a4565b005b610a27600480360360208110156109fb57600080fd5b81019080803573ffffffffffffffffffffffffffffffffffffffff1690602001909291905050506129b8565b005b610a6b60048036036020811015610a3f57600080fd5b81019080803573ffffffffffffffffffffffffffffffffffffffff169060200190929190505050612b51565b005b60011515601460003373ffffffffffffffffffffffffffffffffffffffff1673ffffffffffffffffffffffffffffffffffffffff16815260200190815260200160002060009054906101000a900460ff16151514610b33576040517f08c379a00000000000000000000000000000000000000000000000000000000081526004018080602001828103825260098152602001807f6e6f20616363657373000000000000000000000000000000000000000000000081525060200191505060405180910390fd5b60126000858152602001908152602001600020600087815260200190815260200160002060009054906101000a900460ff1615610bd8576040517f08c379a000000000000000000000000000000000000000000000000000000000815260040180806020018281038252601c8152602001807f5468697320626c6f636b20686173206265656e20696e7665737465640000000081525060200191505060405180910390fd5b610be88888888888888888612d5c565b600073ffffffffffffffffffffffffffffffffffffffff16600d60008a73ffffffffffffffffffffffffffffffffffffffff1673ffffffffffffffffffffffffffffffffffffffff16815260200190815260200160002060000160009054906101000a900473ffffffffffffffffffffffffffffffffffffffff1673ffffffffffffffffffffffffffffffffffffffff161415610c8957610c888861308d565b5b600160126000868152602001908152602001600020600088815260200190815260200160002060006101000a81548160ff021916908315150217905550610cd084876132c1565b60018054016001819055505050505050505050565b6000806000806000600c600087815260200190815260200160002060020154600c600088815260200190815260200160002060030154600c600089815260200190815260200160002060040154600c60008a815260200190815260200160002060050154600c60008b8152602001908152602001600020600601549450945094509450945091939590929450565b60011515601460003373ffffffffffffffffffffffffffffffffffffffff1673ffffffffffffffffffffffffffffffffffffffff16815260200190815260200160002060009054906101000a900460ff16151514610e39576040517f08c379a00000000000000000000000000000000000000000000000000000000081526004018080602001828103825260098152602001807f6e6f20616363657373000000000000000000000000000000000000000000000081525060200191505060405180910390fd5b80600860009054906101000a900473ffffffffffffffffffffffffffffffffffffffff1673ffffffffffffffffffffffffffffffffffffffff166370a08231306040518263ffffffff1660e01b8152600401808273ffffffffffffffffffffffffffffffffffffffff16815260200191505060206040518083038186803b158015610ec357600080fd5b505afa158015610ed7573d6000803e3d6000fd5b505050506040513d6020811015610eed57600080fd5b81019080805190602001909291905050501015610f0957600080fd5b610f78600560009054906101000a900473ffffffffffffffffffffffffffffffffffffffff1682600860009054906101000a900473ffffffffffffffffffffffffffffffffffffffff1673ffffffffffffffffffffffffffffffffffffffff166134729092919063ffffffff16565b50565b60011515601460003373ffffffffffffffffffffffffffffffffffffffff1673ffffffffffffffffffffffffffffffffffffffff16815260200190815260200160002060009054906101000a900460ff16151514611041576040517f08c379a00000000000000000000000000000000000000000000000000000000081526004018080602001828103825260098152602001807f6e6f20616363657373000000000000000000000000000000000000000000000081525060200191505060405180910390fd5b6001600e600083815260200190815260200160002060090160006101000a81548160ff02191690831515021790555050565b60015481565b60606011600084815260200190815260200160002060008381526020019081526020016000206000018054806020026020016040519081016040528092919081815260200182805480156110ec57602002820191906000526020600020905b8154815260200190600101908083116110d8575b5050505050905092915050565b60011515601460003373ffffffffffffffffffffffffffffffffffffffff1673ffffffffffffffffffffffffffffffffffffffff16815260200190815260200160002060009054906101000a900460ff161515146111bf576040517f08c379a00000000000000000000000000000000000000000000000000000000081526004018080602001828103825260098152602001807f6e6f20616363657373000000000000000000000000000000000000000000000081525060200191505060405180910390fd5b82600c60006003548152602001908152602001600020600101819055506001600c6000600354815260200190815260200160002060070160006101000a81548160ff02191690831515021790555080600c6000600354815260200190815260200160002060020181905550600754600c600060035481526020019081526020016000206004018190555061125f600160035461351490919063ffffffff16565b60038190555061127960018461351490919063ffffffff16565b600481905550611287613bc9565b600c6000600354815260200190815260200160002060405180610100016040529081600082015481526020016001820154815260200160028201548152602001600382015481526020016004820154815260200160058201548152602001600682015481526020016007820160009054906101000a900460ff1615151515815250509050600454816000018181525050828160c001818152505080600c60006003548152602001908152602001600020600082015181600001556020820151816001015560408201518160020155606082015181600301556080820151816004015560a0820151816005015560c0820151816006015560e08201518160070160006101000a81548160ff02191690831515021790555090505050505050565b60011515601460003373ffffffffffffffffffffffffffffffffffffffff1673ffffffffffffffffffffffffffffffffffffffff16815260200190815260200160002060009054906101000a900460ff1615151461146c576040517f08c379a00000000000000000000000000000000000000000000000000000000081526004018080602001828103825260098152602001807f6e6f20616363657373000000000000000000000000000000000000000000000081525060200191505060405180910390fd5b611476838361359c565b6114c38382600860009054906101000a900473ffffffffffffffffffffffffffffffffffffffff1673ffffffffffffffffffffffffffffffffffffffff166134729092919063ffffffff16565b505050565b6000806000806000806000806000806114df613c10565b600e60008d8152602001908152602001600020604051806101400160405290816000820160009054906101000a900473ffffffffffffffffffffffffffffffffffffffff1673ffffffffffffffffffffffffffffffffffffffff1673ffffffffffffffffffffffffffffffffffffffff16815260200160018201548152602001600282015481526020016003820154815260200160048201548152602001600582015481526020016006820154815260200160078201548152602001600882015481526020016009820160009054906101000a900460ff1615151515815250509050806000015181602001518260400151836060015184608001518560a001518660c001518760e001518861010001518961012001519a509a509a509a509a509a509a509a509a509a50509193959799509193959799565b60011515601460003373ffffffffffffffffffffffffffffffffffffffff1673ffffffffffffffffffffffffffffffffffffffff16815260200190815260200160002060009054906101000a900460ff161515146116dd576040517f08c379a00000000000000000000000000000000000000000000000000000000081526004018080602001828103825260098152602001807f6e6f20616363657373000000000000000000000000000000000000000000000081525060200191505060405180910390fd5b6000601360008773ffffffffffffffffffffffffffffffffffffffff1673ffffffffffffffffffffffffffffffffffffffff168152602001908152602001600020600061173460018761351490919063ffffffff16565b815260200190815260200160002054116117f357600d60008673ffffffffffffffffffffffffffffffffffffffff1673ffffffffffffffffffffffffffffffffffffffff16815260200190815260200160002060020154601360008773ffffffffffffffffffffffffffffffffffffffff1673ffffffffffffffffffffffffffffffffffffffff16815260200190815260200160002060006117e060018761351490919063ffffffff16565b8152602001908152602001600020819055505b600081111561184a576118498282600660009054906101000a900473ffffffffffffffffffffffffffffffffffffffff1673ffffffffffffffffffffffffffffffffffffffff166134729092919063ffffffff16565b5b6118978585600660009054906101000a900473ffffffffffffffffffffffffffffffffffffffff1673ffffffffffffffffffffffffffffffffffffffff166134729092919063ffffffff16565b5050505050565b600860009054906101000a900473ffffffffffffffffffffffffffffffffffffffff1681565b60035481565b6118d2613797565b73ffffffffffffffffffffffffffffffffffffffff1660008054906101000a900473ffffffffffffffffffffffffffffffffffffffff1673ffffffffffffffffffffffffffffffffffffffff1614611992576040517f08c379a00000000000000000000000000000000000000000000000000000000081526004018080602001828103825260208152602001807f4f776e61626c653a2063616c6c6572206973206e6f7420746865206f776e657281525060200191505060405180910390fd5b6000601460008373ffffffffffffffffffffffffffffffffffffffff1673ffffffffffffffffffffffffffffffffffffffff16815260200190815260200160002060006101000a81548160ff0219169083151502179055508073ffffffffffffffffffffffffffffffffffffffff167f3d4e864e63c21e8ae113db12f031ae02fd915dba35d143613d2cb3620c95ef98600060405180821515815260200191505060405180910390a250565b60006060600080600d60008673ffffffffffffffffffffffffffffffffffffffff1673ffffffffffffffffffffffffffffffffffffffff16815260200190815260200160002060000160009054906101000a900473ffffffffffffffffffffffffffffffffffffffff16600d60008773ffffffffffffffffffffffffffffffffffffffff1673ffffffffffffffffffffffffffffffffffffffff168152602001908152602001600020600101600d60008873ffffffffffffffffffffffffffffffffffffffff1673ffffffffffffffffffffffffffffffffffffffff16815260200190815260200160002060020154600d60008973ffffffffffffffffffffffffffffffffffffffff1673ffffffffffffffffffffffffffffffffffffffff16815260200190815260200160002060030160009054906101000a900460ff1682805480602002602001604051908101604052809291908181526020018280548015611bc857602002820191906000526020600020905b815481526020019060010190808311611bb4575b5050505050925093509350935093509193509193565b611be6613797565b73ffffffffffffffffffffffffffffffffffffffff1660008054906101000a900473ffffffffffffffffffffffffffffffffffffffff1673ffffffffffffffffffffffffffffffffffffffff1614611ca6576040517f08c379a00000000000000000000000000000000000000000000000000000000081526004018080602001828103825260208152602001807f4f776e61626c653a2063616c6c6572206973206e6f7420746865206f776e657281525060200191505060405180910390fd5b600073ffffffffffffffffffffffffffffffffffffffff1660008054906101000a900473ffffffffffffffffffffffffffffffffffffffff1673ffffffffffffffffffffffffffffffffffffffff167f8be0079c531659141344cd1fd0a4f28419497f9722a3daafe3b4186f6b6457e060405160405180910390a360008060006101000a81548173ffffffffffffffffffffffffffffffffffffffff021916908373ffffffffffffffffffffffffffffffffffffffff160217905550565b60095481565b60011515601460003373ffffffffffffffffffffffffffffffffffffffff1673ffffffffffffffffffffffffffffffffffffffff16815260200190815260200160002060009054906101000a900460ff16151514611e30576040517f08c379a00000000000000000000000000000000000000000000000000000000081526004018080602001828103825260098152602001807f6e6f20616363657373000000000000000000000000000000000000000000000081525060200191505060405180910390fd5b82600860009054906101000a900473ffffffffffffffffffffffffffffffffffffffff1673ffffffffffffffffffffffffffffffffffffffff166370a08231306040518263ffffffff1660e01b8152600401808273ffffffffffffffffffffffffffffffffffffffff16815260200191505060206040518083038186803b158015611eba57600080fd5b505afa158015611ece573d6000803e3d6000fd5b505050506040513d6020811015611ee457600080fd5b81019080805190602001909291905050501015611f0057600080fd5b6001600e600083815260200190815260200160002060090160006101000a81548160ff021916908315150217905550611f7c8284600860009054906101000a900473ffffffffffffffffffffffffffffffffffffffff1673ffffffffffffffffffffffffffffffffffffffff166134729092919063ffffffff16565b505050565b60008060009054906101000a900473ffffffffffffffffffffffffffffffffffffffff16905090565b600660009054906101000a900473ffffffffffffffffffffffffffffffffffffffff1681565b60045481565b6000600354905090565b611fe8613797565b73ffffffffffffffffffffffffffffffffffffffff1660008054906101000a900473ffffffffffffffffffffffffffffffffffffffff1673ffffffffffffffffffffffffffffffffffffffff16146120a8576040517f08c379a00000000000000000000000000000000000000000000000000000000081526004018080602001828103825260208152602001807f4f776e61626c653a2063616c6c6572206973206e6f7420746865206f776e657281525060200191505060405180910390fd5b7f24620b681011e5a1b9cd6ce99511f403815c5bcbf9a783714af5d670b1bc837f600660009054906101000a900473ffffffffffffffffffffffffffffffffffffffff1682604051808373ffffffffffffffffffffffffffffffffffffffff1681526020018273ffffffffffffffffffffffffffffffffffffffff1681526020019250505060405180910390a180600660006101000a81548173ffffffffffffffffffffffffffffffffffffffff021916908373ffffffffffffffffffffffffffffffffffffffff16021790555050565b60025481565b612187613797565b73ffffffffffffffffffffffffffffffffffffffff1660008054906101000a900473ffffffffffffffffffffffffffffffffffffffff1673ffffffffffffffffffffffffffffffffffffffff1614612247576040517f08c379a00000000000000000000000000000000000000000000000000000000081526004018080602001828103825260208152602001807f4f776e61626c653a2063616c6c6572206973206e6f7420746865206f776e657281525060200191505060405180910390fd5b7f2cc99a2c4915324daac22ebde3c1a312ba1074cc78eb6ba3fdfa22e7dd0d3579600860009054906101000a900473ffffffffffffffffffffffffffffffffffffffff1682604051808373ffffffffffffffffffffffffffffffffffffffff1681526020018273ffffffffffffffffffffffffffffffffffffffff1681526020019250505060405180910390a180600860006101000a81548173ffffffffffffffffffffffffffffffffffffffff021916908373ffffffffffffffffffffffffffffffffffffffff160217905550600860009054906101000a900473ffffffffffffffffffffffffffffffffffffffff1673ffffffffffffffffffffffffffffffffffffffff1663313ce5676040518163ffffffff1660e01b815260040160206040518083038186803b15801561237d57600080fd5b505afa158015612391573d6000803e3d6000fd5b505050506040513d60208110156123a757600080fd5b810190808051906020019092919050505060098190555050565b6000601360008473ffffffffffffffffffffffffffffffffffffffff1673ffffffffffffffffffffffffffffffffffffffff168152602001908152602001600020600083815260200190815260200160002054905092915050565b612424613797565b73ffffffffffffffffffffffffffffffffffffffff1660008054906101000a900473ffffffffffffffffffffffffffffffffffffffff1673ffffffffffffffffffffffffffffffffffffffff16146124e4576040517f08c379a00000000000000000000000000000000000000000000000000000000081526004018080602001828103825260208152602001807f4f776e61626c653a2063616c6c6572206973206e6f7420746865206f776e657281525060200191505060405180910390fd5b6001601460008373ffffffffffffffffffffffffffffffffffffffff1673ffffffffffffffffffffffffffffffffffffffff16815260200190815260200160002060006101000a81548160ff0219169083151502179055508073ffffffffffffffffffffffffffffffffffffffff167f3d4e864e63c21e8ae113db12f031ae02fd915dba35d143613d2cb3620c95ef98600160405180821515815260200191505060405180910390a250565b6000600454905090565b6000600754905090565b60011515601460003373ffffffffffffffffffffffffffffffffffffffff1673ffffffffffffffffffffffffffffffffffffffff16815260200190815260200160002060009054906101000a900460ff1615151461266a576040517f08c379a00000000000000000000000000000000000000000000000000000000081526004018080602001828103825260098152602001807f6e6f20616363657373000000000000000000000000000000000000000000000081525060200191505060405180910390fd5b600073ffffffffffffffffffffffffffffffffffffffff16600d60008473ffffffffffffffffffffffffffffffffffffffff1673ffffffffffffffffffffffffffffffffffffffff16815260200190815260200160002060000160009054906101000a900473ffffffffffffffffffffffffffffffffffffffff1673ffffffffffffffffffffffffffffffffffffffff16141561270b5761270a8261308d565b5b600d60008373ffffffffffffffffffffffffffffffffffffffff1673ffffffffffffffffffffffffffffffffffffffff16815260200190815260200160002060030160009054906101000a900460ff1661281e576001600d60008473ffffffffffffffffffffffffffffffffffffffff1673ffffffffffffffffffffffffffffffffffffffff16815260200190815260200160002060030160006101000a81548160ff0219169083151502179055506010829080600181540180825580915050600190039060005260206000200160009091909190916101000a81548173ffffffffffffffffffffffffffffffffffffffff021916908373ffffffffffffffffffffffffffffffffffffffff1602179055505b61287381600d60008573ffffffffffffffffffffffffffffffffffffffff1673ffffffffffffffffffffffffffffffffffffffff1681526020019081526020016000206002015461351490919063ffffffff16565b600d60008473ffffffffffffffffffffffffffffffffffffffff1673ffffffffffffffffffffffffffffffffffffffff168152602001908152602001600020600201819055506128e481600c600060035481526020019081526020016000206005015461351490919063ffffffff16565b600c60006003548152602001908152602001600020600501819055506129158160075461351490919063ffffffff16565b600781905550600d60008373ffffffffffffffffffffffffffffffffffffffff1673ffffffffffffffffffffffffffffffffffffffff16815260200190815260200160002060020154601360008473ffffffffffffffffffffffffffffffffffffffff1673ffffffffffffffffffffffffffffffffffffffff16815260200190815260200160002060006003548152602001908152602001600020819055505050565b6129c0613797565b73ffffffffffffffffffffffffffffffffffffffff1660008054906101000a900473ffffffffffffffffffffffffffffffffffffffff1673ffffffffffffffffffffffffffffffffffffffff1614612a80576040517f08c379a00000000000000000000000000000000000000000000000000000000081526004018080602001828103825260208152602001807f4f776e61626c653a2063616c6c6572206973206e6f7420746865206f776e657281525060200191505060405180910390fd5b7f8353f2ec2d93e5b3f4e1e9f3fa7ce3c8e5ec8bfd6c0fc95f39f6ed23033e7bc6600560009054906101000a900473ffffffffffffffffffffffffffffffffffffffff1682604051808373ffffffffffffffffffffffffffffffffffffffff1681526020018273ffffffffffffffffffffffffffffffffffffffff1681526020019250505060405180910390a180600560006101000a81548173ffffffffffffffffffffffffffffffffffffffff021916908373ffffffffffffffffffffffffffffffffffffffff16021790555050565b612b59613797565b73ffffffffffffffffffffffffffffffffffffffff1660008054906101000a900473ffffffffffffffffffffffffffffffffffffffff1673ffffffffffffffffffffffffffffffffffffffff1614612c19576040517f08c379a00000000000000000000000000000000000000000000000000000000081526004018080602001828103825260208152602001807f4f776e61626c653a2063616c6c6572206973206e6f7420746865206f776e657281525060200191505060405180910390fd5b600073ffffffffffffffffffffffffffffffffffffffff168173ffffffffffffffffffffffffffffffffffffffff161415612c9f576040517f08c379a0000000000000000000000000000000000000000000000000000000008152600401808060200182810382526026815260200180613d426026913960400191505060405180910390fd5b8073ffffffffffffffffffffffffffffffffffffffff1660008054906101000a900473ffffffffffffffffffffffffffffffffffffffff1673ffffffffffffffffffffffffffffffffffffffff167f8be0079c531659141344cd1fd0a4f28419497f9722a3daafe3b4186f6b6457e060405160405180910390a3806000806101000a81548173ffffffffffffffffffffffffffffffffffffffff021916908373ffffffffffffffffffffffffffffffffffffffff16021790555050565b612d64613c10565b600e60006001548152602001908152602001600020604051806101400160405290816000820160009054906101000a900473ffffffffffffffffffffffffffffffffffffffff1673ffffffffffffffffffffffffffffffffffffffff1673ffffffffffffffffffffffffffffffffffffffff16815260200160018201548152602001600282015481526020016003820154815260200160048201548152602001600582015481526020016006820154815260200160078201548152602001600882015481526020016009820160009054906101000a900460ff161515151581525050905088816000019073ffffffffffffffffffffffffffffffffffffffff16908173ffffffffffffffffffffffffffffffffffffffff16815250508781602001818152505086816040018181525050858160600181815250508481608001818152505060035481610100018181525050838160a0018181525050828160c0018181525050818160e001818152505080600e6000600154815260200190815260200160002060008201518160000160006101000a81548173ffffffffffffffffffffffffffffffffffffffff021916908373ffffffffffffffffffffffffffffffffffffffff1602179055506020820151816001015560408201518160020155606082015181600301556080820151816004015560a0820151816005015560c0820151816006015560e0820151816007015561010082015181600801556101208201518160090160006101000a81548160ff021916908315150217905550905050600f6001549080600181540180825580915050600190039060005260206000200160009091909190915055600d60008a73ffffffffffffffffffffffffffffffffffffffff1673ffffffffffffffffffffffffffffffffffffffff168152602001908152602001600020600101600154908060018154018082558091505060019003906000526020600020016000909190919091505561306686600c600060035481526020019081526020016000206003015461351490919063ffffffff16565b600c6000600354815260200190815260200160002060030181905550505050505050505050565b613095613c7b565b600d60008373ffffffffffffffffffffffffffffffffffffffff1673ffffffffffffffffffffffffffffffffffffffff1681526020019081526020016000206040518060800160405290816000820160009054906101000a900473ffffffffffffffffffffffffffffffffffffffff1673ffffffffffffffffffffffffffffffffffffffff1673ffffffffffffffffffffffffffffffffffffffff1681526020016001820180548060200260200160405190810160405280929190818152602001828054801561318457602002820191906000526020600020905b815481526020019060010190808311613170575b50505050508152602001600282015481526020016003820160009054906101000a900460ff161515151581525050905081816000019073ffffffffffffffffffffffffffffffffffffffff16908173ffffffffffffffffffffffffffffffffffffffff168152505080600d60008473ffffffffffffffffffffffffffffffffffffffff1673ffffffffffffffffffffffffffffffffffffffff16815260200190815260200160002060008201518160000160006101000a81548173ffffffffffffffffffffffffffffffffffffffff021916908373ffffffffffffffffffffffffffffffffffffffff160217905550602082015181600101908051906020019061328f929190613cbb565b506040820151816002015560608201518160030160006101000a81548160ff0219169083151502179055509050505050565b60116000838152602001908152602001600020600082815260200190815260200160002060010160009054906101000a900460ff1661341e57613302613d08565b6011600084815260200190815260200160002060008381526020019081526020016000206040518060400160405290816000820180548060200260200160405190810160405280929190818152602001828054801561338057602002820191906000526020600020905b81548152602001906001019080831161336c575b505050505081526020016001820160009054906101000a900460ff161515151581525050905060018160200190151590811515815250508060116000858152602001908152602001600020600084815260200190815260200160002060008201518160000190805190602001906133f8929190613cbb565b5060208201518160010160006101000a81548160ff021916908315150217905550905050505b60116000838152602001908152602001600020600082815260200190815260200160002060000160015490806001815401808255809150506001900390600052602060002001600090919091909150555050565b61350f8363a9059cbb60e01b8484604051602401808373ffffffffffffffffffffffffffffffffffffffff16815260200182815260200192505050604051602081830303815290604052907bffffffffffffffffffffffffffffffffffffffffffffffffffffffff19166020820180517bffffffffffffffffffffffffffffffffffffffffffffffffffffffff838183161783525050505061379f565b505050565b600080828401905083811015613592576040517f08c379a000000000000000000000000000000000000000000000000000000000815260040180806020018281038252601b8152602001807f536166654d6174683a206164646974696f6e206f766572666c6f77000000000081525060200191505060405180910390fd5b8091505092915050565b600d60008373ffffffffffffffffffffffffffffffffffffffff1673ffffffffffffffffffffffffffffffffffffffff16815260200190815260200160002060030160009054906101000a900460ff166135f557600080fd5b80600d60008473ffffffffffffffffffffffffffffffffffffffff1673ffffffffffffffffffffffffffffffffffffffff16815260200190815260200160002060020154101561364457600080fd5b61369981600d60008573ffffffffffffffffffffffffffffffffffffffff1673ffffffffffffffffffffffffffffffffffffffff1681526020019081526020016000206002015461388e90919063ffffffff16565b600d60008473ffffffffffffffffffffffffffffffffffffffff1673ffffffffffffffffffffffffffffffffffffffff168152602001908152602001600020600201819055506136f48160075461388e90919063ffffffff16565b600781905550600d60008373ffffffffffffffffffffffffffffffffffffffff1673ffffffffffffffffffffffffffffffffffffffff16815260200190815260200160002060020154601360008473ffffffffffffffffffffffffffffffffffffffff1673ffffffffffffffffffffffffffffffffffffffff16815260200190815260200160002060006003548152602001908152602001600020819055505050565b600033905090565b6060613801826040518060400160405280602081526020017f5361666545524332303a206c6f772d6c6576656c2063616c6c206661696c65648152508573ffffffffffffffffffffffffffffffffffffffff166138d89092919063ffffffff16565b90506000815111156138895780806020019051602081101561382257600080fd5b8101908080519060200190929190505050613888576040517f08c379a000000000000000000000000000000000000000000000000000000000815260040180806020018281038252602a815260200180613d68602a913960400191505060405180910390fd5b5b505050565b60006138d083836040518060400160405280601e81526020017f536166654d6174683a207375627472616374696f6e206f766572666c6f7700008152506138f0565b905092915050565b60606138e784846000856139b0565b90509392505050565b600083831115829061399d576040517f08c379a00000000000000000000000000000000000000000000000000000000081526004018080602001828103825283818151815260200191508051906020019080838360005b83811015613962578082015181840152602081019050613947565b50505050905090810190601f16801561398f5780820380516001836020036101000a031916815260200191505b509250505060405180910390fd5b5060008385039050809150509392505050565b60606139bb85613bb6565b613a2d576040517f08c379a000000000000000000000000000000000000000000000000000000000815260040180806020018281038252601d8152602001807f416464726573733a2063616c6c20746f206e6f6e2d636f6e747261637400000081525060200191505060405180910390fd5b600060608673ffffffffffffffffffffffffffffffffffffffff1685876040518082805190602001908083835b60208310613a7d5780518252602082019150602081019050602083039250613a5a565b6001836020036101000a03801982511681845116808217855250505050505090500191505060006040518083038185875af1925050503d8060008114613adf576040519150601f19603f3d011682016040523d82523d6000602084013e613ae4565b606091505b50915091508115613af9578092505050613bae565b600081511115613b0c5780518082602001fd5b836040517f08c379a00000000000000000000000000000000000000000000000000000000081526004018080602001828103825283818151815260200191508051906020019080838360005b83811015613b73578082015181840152602081019050613b58565b50505050905090810190601f168015613ba05780820380516001836020036101000a031916815260200191505b509250505060405180910390fd5b949350505050565b600080823b905060008111915050919050565b604051806101000160405280600081526020016000815260200160008152602001600081526020016000815260200160008152602001600081526020016000151581525090565b604051806101400160405280600073ffffffffffffffffffffffffffffffffffffffff16815260200160008152602001600081526020016000815260200160008152602001600081526020016000815260200160008152602001600081526020016000151581525090565b6040518060800160405280600073ffffffffffffffffffffffffffffffffffffffff16815260200160608152602001600081526020016000151581525090565b828054828255906000526020600020908101928215613cf7579160200282015b82811115613cf6578251825591602001919060010190613cdb565b5b509050613d049190613d24565b5090565b6040518060400160405280606081526020016000151581525090565b5b80821115613d3d576000816000905550600101613d25565b509056fe4f776e61626c653a206e6577206f776e657220697320746865207a65726f20616464726573735361666545524332303a204552433230206f7065726174696f6e20646964206e6f742073756363656564a26469706673582212207bc3f7ca73df340288762d20b4580eed65986b41f32ec8dbf5d360c5c7d60fe964736f6c634300060c0033",
  "immutableReferences": {},
  "source": "pragma solidity ^0.6.9;\r\nimport '@openzeppelin/contracts/math/SafeMath.sol';\r\nimport '@openzeppelin/contracts/access/Ownable.sol';\r\n// import \"@openzeppelin/contracts/token/ERC20/ERC20.sol\";\r\nimport '@openzeppelin/contracts/token/ERC20/IERC20.sol';\r\nimport '@openzeppelin/contracts/token/ERC20/SafeERC20.sol';\r\ncontract BSNData is Ownable {\r\n  using SafeMath for uint256;\r\n  using SafeERC20 for IERC20;\r\n  \r\n  uint public orderId = 1;\r\n  uint public perDayBlock = 28800;\r\n  uint public dayNum = 1;\r\n  uint public curDayStartBlock;\r\n  address pool;\r\n  address public windToken;\r\n  uint marketToTalMoney;\r\n  address public BUSD;\r\n  uint public BUSDDecimals;\r\n  // uint public tokenBethAddress = address('');\r\n  // uint public tokenBusdAddress = address('');\r\n   uint up = 1;\r\n   uint down = 0;\r\n  struct Cycle {\r\n    uint startBlock;\r\n    uint endBlock;\r\n    uint windToken; // wintoken\r\n    uint totalInvest;\r\n    uint marketToTalMoney; // \r\n    uint marketAdd;\r\n    uint dayMarketTotal; // \r\n    bool isEnd;\r\n  }\r\n  mapping(uint => Cycle) cycles;\r\n\r\n  struct User{\r\n    address userAddress;\r\n    // address introAddress;\r\n    uint[] records;\r\n    uint marketProvide;\r\n    bool isMarker;\r\n  }\r\n  mapping(address => User) users;\r\n  struct Record{\r\n    address investor;\r\n    uint investType;\r\n    uint minute;\r\n    uint investAmount;\r\n    uint investBlock;\r\n    uint investTime;\r\n    uint openBlock;\r\n    uint busdPerBeth;\r\n    uint investDayNum;\r\n    bool isOpen;\r\n  }\r\n  mapping(uint => Record) records;\r\n  uint[] recordIds;\r\n  address[] marketers;\r\n  struct BlockInfo{\r\n    uint[] records;\r\n    bool isExist;\r\n  }\r\n  mapping(uint => mapping(uint => BlockInfo)) blocks;\r\n  mapping(uint => mapping(uint => bool)) blockIsInvests;\r\n  mapping(address => mapping(uint => uint)) userDayMarkets;\r\n  /* \r\n   * accessAllowed\r\n   * \r\n  */   \r\n  mapping (address => bool) private accessAllowed;\r\n\r\n  event AccessAllowedAddress(address indexed _addr, bool _access);\r\n  event SetBUSDAddress(address _old, address _new);\r\n  event SetPoolAddress(address _old, address _new);\r\n  event SetWindTokenAddress(address _old, address _new);\r\n  constructor (address _BUSD, address _pool, address _windToken) public {\r\n    curDayStartBlock = block.number;\r\n    marketToTalMoney = 0;\r\n    Cycle memory _cycles = cycles[dayNum];\r\n    _cycles.startBlock = curDayStartBlock;\r\n    cycles[dayNum] = _cycles;\r\n    BUSD = _BUSD;\r\n    pool = _pool;\r\n    windToken = _windToken;\r\n    BUSDDecimals = IERC20(BUSD).decimals();\r\n  }\r\n  /* \r\n   *  accessAllowed \r\n  */   \r\n  modifier platform() {\r\n    require(accessAllowed[msg.sender] == true, 'no access');\r\n    _;\r\n  }\r\n   function setWindTokenAddress(address _windToken) onlyOwner public {\r\n    emit SetWindTokenAddress(windToken, _windToken);\r\n    windToken = _windToken;\r\n  }\r\n   /*  accessAllowed \r\n  */ \r\n  function allowAccess(address _addr) onlyOwner public {\r\n    accessAllowed[_addr] = true;\r\n    emit AccessAllowedAddress(_addr, true);\r\n  }\r\n   /* \r\n   *  accessAllowed \r\n  */ \r\n  function denyAccess(address _addr) onlyOwner public {\r\n    accessAllowed[_addr] = false;\r\n    emit AccessAllowedAddress(_addr, false);\r\n  }\r\n  function setBUSDAddress(address _BUSD) onlyOwner public {\r\n    emit SetBUSDAddress(BUSD, _BUSD);\r\n    BUSD = _BUSD;\r\n    BUSDDecimals = IERC20(BUSD).decimals();\r\n  }\r\n  function setPoolAddress(address _pool) onlyOwner public {\r\n    emit SetPoolAddress(pool, _pool);\r\n    pool = _pool;\r\n  }\r\n  function getMarketToTalMoney () external view returns(uint) {\r\n    return marketToTalMoney;\r\n  }\r\n  function getOrderById (uint _id) external view returns (\r\n    address investor,\r\n    uint investType,\r\n    uint minute,\r\n    uint investAmount,\r\n    uint investBlock,\r\n    uint investTime,\r\n    uint openBlock,\r\n    uint busdPerBeth,\r\n    uint investDayNum,\r\n    bool isOpen){\r\n      Record memory _record = records[_id];\r\n     return (\r\n        _record.investor,\r\n        _record.investType,\r\n        _record.minute,\r\n        _record.investAmount,\r\n        _record.investBlock,\r\n        _record.investTime,\r\n        _record.openBlock,\r\n        _record.busdPerBeth,\r\n        _record.investDayNum,\r\n        _record.isOpen\r\n     );\r\n  }\r\n  function getBlockRecords(uint _block, uint _minute) public view returns(uint[] memory ids) {\r\n    return blocks[_block][_minute].records;\r\n  }\r\n  function getUserDayMarket (address _user, uint _dayNum) public view returns(uint _marketAmount) {\r\n    return userDayMarkets[_user][_dayNum];\r\n  }\r\n  function getCurDayNum () external view returns(uint) {\r\n    return dayNum;\r\n  }\r\n  function getUserInfo (address _user) external view returns(\r\n    address userAddress,\r\n    uint[] memory _recordIds,\r\n    uint marketProvide,\r\n    bool isMarker\r\n  ) {\r\n    return (users[_user].userAddress,\r\n    users[_user].records,\r\n    users[_user].marketProvide,\r\n    users[_user].isMarker);\r\n  }\r\n  function getCurCycleData (uint _dayNum) external view returns(\r\n    uint _windToken,\r\n    uint totalInvest,\r\n    uint _marketToTalMoney,\r\n    uint marketAdd,\r\n    uint dayMarketTotal\r\n  ) {\r\n    return (cycles[_dayNum].windToken,\r\n    cycles[_dayNum].totalInvest,\r\n    cycles[_dayNum].marketToTalMoney,\r\n    cycles[_dayNum].marketAdd,\r\n    cycles[_dayNum].dayMarketTotal);\r\n  }\r\n  function getCurDayStartBlock () external view returns(uint) {\r\n    return curDayStartBlock;\r\n  }\r\n  function invest(\r\n    address _investor,\r\n    uint _investType,\r\n    uint _minute,\r\n    uint _investAmount,\r\n    uint _investBlock,\r\n    uint _investTime,\r\n    uint _openBlock,\r\n    uint _busdPerBeth\r\n  ) external platform {\r\n    require(!blockIsInvests[_investBlock][_minute], 'This block has been invested');\r\n    _addRecord(_investor, _investType, _minute, _investAmount, _investBlock, _investTime, _openBlock, _busdPerBeth);\r\n    if (users[_investor].userAddress == address(0)) {\r\n      _addUser(_investor);\r\n    }\r\n    blockIsInvests[_investBlock][_minute] = true;\r\n    _addBlock(_investBlock, _minute);\r\n    orderId = orderId + 1;\r\n  }\r\n  function _addBlock(uint _block, uint _minute) private {\r\n    if (!blocks[_block][_minute].isExist) {\r\n      BlockInfo memory _blockInfo = blocks[_block][_minute];\r\n      _blockInfo.isExist = true;\r\n      blocks[_block][_minute] = _blockInfo;\r\n    }\r\n    blocks[_block][_minute].records.push(orderId);\r\n  }\r\n  function _addRecord (\r\n    address _investor,\r\n    uint _investType,\r\n    uint _minute,\r\n    uint _investAmount,\r\n    uint _investBlock,\r\n    uint _investTime,\r\n    uint _openBlock,\r\n    uint _busdPerBeth) private {\r\n      Record memory _record = records[orderId];\r\n      _record.investor = _investor;\r\n      _record.investType = _investType;\r\n      _record.minute = _minute;\r\n      _record.investAmount = _investAmount;\r\n      _record.investBlock = _investBlock;\r\n      _record.investDayNum = dayNum;\r\n      _record.investTime = _investTime;\r\n      _record.openBlock = _openBlock;\r\n      _record.busdPerBeth = _busdPerBeth;\r\n      records[orderId] = _record;\r\n      recordIds.push(orderId);\r\n      users[_investor].records.push(orderId);\r\n      cycles[dayNum].totalInvest = cycles[dayNum].totalInvest.add(_investAmount);\r\n    }\r\n    // function _addUser (address _investor, address _intro) private {\r\n    //   User memory _user = users[_investor];\r\n    //   _user.userAddress = _investor;\r\n    //   _user.introAddress = _intro;\r\n    //   _user.marketProvide = 0;\r\n    // }\r\n    function _addUser (address _investor) private {\r\n      User memory _user = users[_investor];\r\n      _user.userAddress = _investor;\r\n      users[_investor] = _user;\r\n    }\r\n   function changeCycle(uint _block, uint _dayMarketTotal, uint _windToken) external platform {\r\n      cycles[dayNum].endBlock = _block;\r\n      cycles[dayNum].isEnd = true;\r\n      cycles[dayNum].windToken = _windToken;\r\n      cycles[dayNum].marketToTalMoney = marketToTalMoney;\r\n      // uint oldDay = dayNum;\r\n      dayNum = dayNum.add(1);\r\n      curDayStartBlock = _block.add(1);\r\n      Cycle memory _newCycle = cycles[dayNum];\r\n      _newCycle.startBlock = curDayStartBlock;\r\n      _newCycle.dayMarketTotal = _dayMarketTotal;\r\n      cycles[dayNum] = _newCycle;  \r\n    }\r\n    function transferPool(uint _amount) external platform {\r\n      require(IERC20(BUSD).balanceOf(address(this)) >= _amount);\r\n      IERC20(BUSD).safeTransfer(pool, _amount);\r\n    }\r\n    function win(uint _amount, address _user,uint _id) external platform {\r\n      require(IERC20(BUSD).balanceOf(address(this)) >= _amount);\r\n      records[_id].isOpen = true;\r\n      IERC20(BUSD).safeTransfer(_user, _amount);\r\n    }\r\n    function fail (uint _id) external platform {\r\n      records[_id].isOpen = true;\r\n    }\r\n    function addPoolMoney (address _user, uint _amount) external platform {\r\n      if (users[_user].userAddress == address(0)) {\r\n        _addUser(_user);\r\n      }\r\n      if (!users[_user].isMarker) {\r\n        users[_user].isMarker = true;\r\n        marketers.push(_user);\r\n      }\r\n      users[_user].marketProvide = users[_user].marketProvide.add(_amount);\r\n      cycles[dayNum].marketAdd = cycles[dayNum].marketAdd.add(_amount);\r\n      marketToTalMoney = marketToTalMoney.add(_amount);\r\n      userDayMarkets[_user][dayNum] = users[_user].marketProvide;\r\n    }\r\n    function withdrawPool (address _user, uint _amount) private{\r\n      require(users[_user].isMarker);\r\n      require(users[_user].marketProvide >= _amount);\r\n      users[_user].marketProvide = users[_user].marketProvide.sub(_amount);\r\n      marketToTalMoney = marketToTalMoney.sub(_amount);\r\n      userDayMarkets[_user][dayNum] = users[_user].marketProvide;\r\n    }\r\n   function withdrawPoolMoney (address _user, uint _amount, uint _trueAmount)  external platform  {\r\n     withdrawPool(_user, _amount);\r\n     IERC20(BUSD).safeTransfer(_user, _trueAmount);\r\n   }\r\n   function receiveDividends (address _user, uint amount, uint _dayNum, address _teamAddress, uint _teamAmount)  external platform  {\r\n     if (userDayMarkets[_user][_dayNum.add(1)] <= 0) {\r\n       userDayMarkets[_user][_dayNum.add(1)] = users[_user].marketProvide;\r\n     }\r\n     if (_teamAmount > 0) {\r\n       IERC20(windToken).safeTransfer(_teamAddress, _teamAmount);\r\n     }\r\n     IERC20(windToken).safeTransfer(_user, amount);\r\n   }\r\n}",
  "sourcePath": "E:/contractProject/BSN/contracts/BSNData.sol",
  "compiler": {
    "name": "solc",
    "version": "0.6.12+commit.27d51765.Emscripten.clang"
  },
  "schemaVersion": "3.2.5",
  "updatedAt": "2021-03-11T02:30:29.656Z",
  "devdoc": {
    "kind": "dev",
    "methods": {
      "owner()": {
        "details": "Returns the address of the current owner."
      },
      "renounceOwnership()": {
        "details": "Leaves the contract without owner. It will not be possible to call `onlyOwner` functions anymore. Can only be called by the current owner. NOTE: Renouncing ownership will leave the contract without an owner, thereby removing any functionality that is only available to the owner."
      },
      "transferOwnership(address)": {
        "details": "Transfers ownership of the contract to a new account (`newOwner`). Can only be called by the current owner."
      }
    },
    "version": 1
  },
  "userdoc": {
    "kind": "user",
    "methods": {},
    "version": 1
  }
}