{
  "contractName": "GoldData",
  "abi": [
    {
      "inputs": [
        {
          "internalType": "address",
          "name": "_BUSD",
          "type": "address"
        },
        {
          "internalType": "address",
          "name": "_pool",
          "type": "address"
        }
      ],
      "stateMutability": "nonpayable",
      "type": "constructor"
    },
    {
      "anonymous": false,
      "inputs": [
        {
          "indexed": true,
          "internalType": "address",
          "name": "_addr",
          "type": "address"
        },
        {
          "indexed": false,
          "internalType": "bool",
          "name": "_access",
          "type": "bool"
        }
      ],
      "name": "AccessAllowedAddress",
      "type": "event"
    },
    {
      "anonymous": false,
      "inputs": [
        {
          "indexed": true,
          "internalType": "address",
          "name": "_user",
          "type": "address"
        },
        {
          "indexed": false,
          "internalType": "uint256",
          "name": "_amount",
          "type": "uint256"
        },
        {
          "indexed": false,
          "internalType": "uint256",
          "name": "_dayNum",
          "type": "uint256"
        },
        {
          "indexed": false,
          "internalType": "uint256",
          "name": "_time",
          "type": "uint256"
        }
      ],
      "name": "AddPoolMoney",
      "type": "event"
    },
    {
      "anonymous": false,
      "inputs": [
        {
          "indexed": true,
          "internalType": "address",
          "name": "previousOwner",
          "type": "address"
        },
        {
          "indexed": true,
          "internalType": "address",
          "name": "newOwner",
          "type": "address"
        }
      ],
      "name": "OwnershipTransferred",
      "type": "event"
    },
    {
      "anonymous": false,
      "inputs": [
        {
          "indexed": false,
          "internalType": "address",
          "name": "_old",
          "type": "address"
        },
        {
          "indexed": false,
          "internalType": "address",
          "name": "_new",
          "type": "address"
        }
      ],
      "name": "SetBUSDAddress",
      "type": "event"
    },
    {
      "anonymous": false,
      "inputs": [
        {
          "indexed": false,
          "internalType": "address",
          "name": "_old",
          "type": "address"
        },
        {
          "indexed": false,
          "internalType": "address",
          "name": "_new",
          "type": "address"
        }
      ],
      "name": "SetPoolAddress",
      "type": "event"
    },
    {
      "inputs": [],
      "name": "BUSD",
      "outputs": [
        {
          "internalType": "address",
          "name": "",
          "type": "address"
        }
      ],
      "stateMutability": "view",
      "type": "function"
    },
    {
      "inputs": [],
      "name": "BUSDDecimals",
      "outputs": [
        {
          "internalType": "uint256",
          "name": "",
          "type": "uint256"
        }
      ],
      "stateMutability": "view",
      "type": "function"
    },
    {
      "inputs": [],
      "name": "curDayStartBlock",
      "outputs": [
        {
          "internalType": "uint256",
          "name": "",
          "type": "uint256"
        }
      ],
      "stateMutability": "view",
      "type": "function"
    },
    {
      "inputs": [],
      "name": "dayNum",
      "outputs": [
        {
          "internalType": "uint256",
          "name": "",
          "type": "uint256"
        }
      ],
      "stateMutability": "view",
      "type": "function"
    },
    {
      "inputs": [],
      "name": "orderId",
      "outputs": [
        {
          "internalType": "uint256",
          "name": "",
          "type": "uint256"
        }
      ],
      "stateMutability": "view",
      "type": "function"
    },
    {
      "inputs": [],
      "name": "owner",
      "outputs": [
        {
          "internalType": "address",
          "name": "",
          "type": "address"
        }
      ],
      "stateMutability": "view",
      "type": "function"
    },
    {
      "inputs": [],
      "name": "perDayBlock",
      "outputs": [
        {
          "internalType": "uint256",
          "name": "",
          "type": "uint256"
        }
      ],
      "stateMutability": "view",
      "type": "function"
    },
    {
      "inputs": [],
      "name": "renounceOwnership",
      "outputs": [],
      "stateMutability": "nonpayable",
      "type": "function"
    },
    {
      "inputs": [
        {
          "internalType": "address",
          "name": "newOwner",
          "type": "address"
        }
      ],
      "name": "transferOwnership",
      "outputs": [],
      "stateMutability": "nonpayable",
      "type": "function"
    },
    {
      "inputs": [
        {
          "internalType": "address",
          "name": "_addr",
          "type": "address"
        }
      ],
      "name": "allowAccess",
      "outputs": [],
      "stateMutability": "nonpayable",
      "type": "function"
    },
    {
      "inputs": [
        {
          "internalType": "address",
          "name": "_addr",
          "type": "address"
        }
      ],
      "name": "denyAccess",
      "outputs": [],
      "stateMutability": "nonpayable",
      "type": "function"
    },
    {
      "inputs": [
        {
          "internalType": "address",
          "name": "_BUSD",
          "type": "address"
        }
      ],
      "name": "setBUSDAddress",
      "outputs": [],
      "stateMutability": "nonpayable",
      "type": "function"
    },
    {
      "inputs": [
        {
          "internalType": "address",
          "name": "_pool",
          "type": "address"
        }
      ],
      "name": "setPoolAddress",
      "outputs": [],
      "stateMutability": "nonpayable",
      "type": "function"
    },
    {
      "inputs": [],
      "name": "getMarketToTalMoney",
      "outputs": [
        {
          "internalType": "uint256",
          "name": "",
          "type": "uint256"
        }
      ],
      "stateMutability": "view",
      "type": "function"
    },
    {
      "inputs": [],
      "name": "getSingleMarketInvest",
      "outputs": [
        {
          "internalType": "uint256",
          "name": "",
          "type": "uint256"
        }
      ],
      "stateMutability": "view",
      "type": "function"
    },
    {
      "inputs": [
        {
          "internalType": "uint256",
          "name": "_id",
          "type": "uint256"
        }
      ],
      "name": "getOrderById",
      "outputs": [
        {
          "internalType": "address",
          "name": "investor",
          "type": "address"
        },
        {
          "internalType": "uint256",
          "name": "investType",
          "type": "uint256"
        },
        {
          "internalType": "uint256",
          "name": "minute",
          "type": "uint256"
        },
        {
          "internalType": "uint256",
          "name": "investAmount",
          "type": "uint256"
        },
        {
          "internalType": "uint256",
          "name": "investBlock",
          "type": "uint256"
        },
        {
          "internalType": "uint256",
          "name": "investTime",
          "type": "uint256"
        },
        {
          "internalType": "uint256",
          "name": "openBlock",
          "type": "uint256"
        },
        {
          "internalType": "uint256",
          "name": "busdPerBeth",
          "type": "uint256"
        },
        {
          "internalType": "uint256",
          "name": "investDayNum",
          "type": "uint256"
        },
        {
          "internalType": "bool",
          "name": "isOpen",
          "type": "bool"
        }
      ],
      "stateMutability": "view",
      "type": "function"
    },
    {
      "inputs": [
        {
          "internalType": "uint256",
          "name": "_block",
          "type": "uint256"
        },
        {
          "internalType": "uint256",
          "name": "_minute",
          "type": "uint256"
        }
      ],
      "name": "getBlockRecords",
      "outputs": [
        {
          "internalType": "uint256[]",
          "name": "ids",
          "type": "uint256[]"
        }
      ],
      "stateMutability": "view",
      "type": "function"
    },
    {
      "inputs": [
        {
          "internalType": "address",
          "name": "_user",
          "type": "address"
        }
      ],
      "name": "getUserInfo",
      "outputs": [
        {
          "internalType": "address",
          "name": "userAddress",
          "type": "address"
        },
        {
          "internalType": "uint256[]",
          "name": "_recordIds",
          "type": "uint256[]"
        },
        {
          "internalType": "uint256",
          "name": "marketProvide",
          "type": "uint256"
        },
        {
          "internalType": "bool",
          "name": "isMarker",
          "type": "bool"
        }
      ],
      "stateMutability": "view",
      "type": "function"
    },
    {
      "inputs": [],
      "name": "getCurCycleData",
      "outputs": [
        {
          "internalType": "uint256[]",
          "name": "_recordIds",
          "type": "uint256[]"
        },
        {
          "internalType": "uint256",
          "name": "totalInvest",
          "type": "uint256"
        },
        {
          "internalType": "uint256",
          "name": "totalPay",
          "type": "uint256"
        },
        {
          "internalType": "uint256",
          "name": "marketAdd",
          "type": "uint256"
        },
        {
          "internalType": "uint256",
          "name": "dayMarketTotal",
          "type": "uint256"
        }
      ],
      "stateMutability": "view",
      "type": "function"
    },
    {
      "inputs": [],
      "name": "getCurDayStartBlock",
      "outputs": [
        {
          "internalType": "uint256",
          "name": "",
          "type": "uint256"
        }
      ],
      "stateMutability": "view",
      "type": "function"
    },
    {
      "inputs": [
        {
          "internalType": "address",
          "name": "_investor",
          "type": "address"
        },
        {
          "internalType": "uint256",
          "name": "_investType",
          "type": "uint256"
        },
        {
          "internalType": "uint256",
          "name": "_minute",
          "type": "uint256"
        },
        {
          "internalType": "uint256",
          "name": "_investAmount",
          "type": "uint256"
        },
        {
          "internalType": "uint256",
          "name": "_investBlock",
          "type": "uint256"
        },
        {
          "internalType": "uint256",
          "name": "_investTime",
          "type": "uint256"
        },
        {
          "internalType": "uint256",
          "name": "_openBlock",
          "type": "uint256"
        },
        {
          "internalType": "uint256",
          "name": "_busdPerBeth",
          "type": "uint256"
        }
      ],
      "name": "invest",
      "outputs": [],
      "stateMutability": "nonpayable",
      "type": "function"
    },
    {
      "inputs": [
        {
          "internalType": "uint256",
          "name": "_block",
          "type": "uint256"
        },
        {
          "internalType": "uint256",
          "name": "_dayMarketTotal",
          "type": "uint256"
        }
      ],
      "name": "changeCycle",
      "outputs": [],
      "stateMutability": "nonpayable",
      "type": "function"
    },
    {
      "inputs": [
        {
          "internalType": "uint256",
          "name": "_amount",
          "type": "uint256"
        }
      ],
      "name": "transferPool",
      "outputs": [],
      "stateMutability": "nonpayable",
      "type": "function"
    },
    {
      "inputs": [
        {
          "internalType": "uint256",
          "name": "_amount",
          "type": "uint256"
        },
        {
          "internalType": "address",
          "name": "_user",
          "type": "address"
        },
        {
          "internalType": "uint256",
          "name": "_id",
          "type": "uint256"
        }
      ],
      "name": "win",
      "outputs": [],
      "stateMutability": "nonpayable",
      "type": "function"
    },
    {
      "inputs": [
        {
          "internalType": "uint256",
          "name": "_id",
          "type": "uint256"
        }
      ],
      "name": "fail",
      "outputs": [],
      "stateMutability": "nonpayable",
      "type": "function"
    },
    {
      "inputs": [
        {
          "internalType": "address",
          "name": "_user",
          "type": "address"
        },
        {
          "internalType": "uint256",
          "name": "_amount",
          "type": "uint256"
        }
      ],
      "name": "addPoolMoney",
      "outputs": [],
      "stateMutability": "nonpayable",
      "type": "function"
    },
    {
      "inputs": [
        {
          "internalType": "address",
          "name": "_user",
          "type": "address"
        },
        {
          "internalType": "uint256",
          "name": "_amount",
          "type": "uint256"
        },
        {
          "internalType": "uint256",
          "name": "_trueAmount",
          "type": "uint256"
        }
      ],
      "name": "withdrawPoolMoney",
      "outputs": [],
      "stateMutability": "nonpayable",
      "type": "function"
    }
  ],
  "bytecode": "0x60806040526001805561708060025560016003556001600a556000600b553480156200002a57600080fd5b5060405162003c7838038062003c78833981810160405260408110156200005057600080fd5b81019080805190602001909291908051906020019092919050505060006200007d620003ef60201b60201c565b9050806000806101000a81548173ffffffffffffffffffffffffffffffffffffffff021916908373ffffffffffffffffffffffffffffffffffffffff1602179055508073ffffffffffffffffffffffffffffffffffffffff16600073ffffffffffffffffffffffffffffffffffffffff167f8be0079c531659141344cd1fd0a4f28419497f9722a3daafe3b4186f6b6457e060405160405180910390a35043600481905550600060068190555062000134620003f7565b600c6000600354815260200190815260200160002060405180610100016040529081600082015481526020016001820154815260200160028201805480602002602001604051908101604052809291908181526020018280548015620001ba57602002820191906000526020600020905b815481526020019060010190808311620001a5575b50505050508152602001600382015481526020016004820154815260200160058201548152602001600682015481526020016007820160009054906101000a900460ff161515151581525050905060045481600001818152505080600c60006003548152602001908152602001600020600082015181600001556020820151816001015560408201518160020190805190602001906200025c9291906200043e565b50606082015181600301556080820151816004015560a0820151816005015560c0820151816006015560e08201518160070160006101000a81548160ff02191690831515021790555090505082600860006101000a81548173ffffffffffffffffffffffffffffffffffffffff021916908373ffffffffffffffffffffffffffffffffffffffff16021790555081600560006101000a81548173ffffffffffffffffffffffffffffffffffffffff021916908373ffffffffffffffffffffffffffffffffffffffff160217905550600860009054906101000a900473ffffffffffffffffffffffffffffffffffffffff1673ffffffffffffffffffffffffffffffffffffffff1663313ce5676040518163ffffffff1660e01b815260040160206040518083038186803b1580156200039357600080fd5b505afa158015620003a8573d6000803e3d6000fd5b505050506040513d6020811015620003bf57600080fd5b8101908080519060200190929190505050600981905550600954600a0a61271002600781905550505050620004af565b600033905090565b604051806101000160405280600081526020016000815260200160608152602001600081526020016000815260200160008152602001600081526020016000151581525090565b8280548282559060005260206000209081019282156200047d579160200282015b828111156200047c5782518255916020019190600101906200045f565b5b5090506200048c919062000490565b5090565b5b80821115620004ab57600081600090555060010162000491565b5090565b6137b980620004bf6000396000f3fe608060405234801561001057600080fd5b50600436106101a95760003560e01c806389461c09116100f9578063c4a85bc111610097578063d9a27c8811610071578063d9a27c88146107da578063e9e15b4f14610828578063f2fde38b1461086c578063f7e0a234146108b0576101a9565b8063c4a85bc11461075a578063cddcff3d1461079e578063d97b87d7146107bc576101a9565b8063ae45e69e116100d3578063ae45e69e1461065f578063bb297aa61461067d578063bbfa27951461069b578063beb74739146106df576101a9565b806389461c09146105b55780638da5cb5b1461060d57806395b3d10514610641576101a9565b806342b50a7a1161016657806361afd5ac1161014057806361afd5ac146104835780636386c1c7146104c7578063715018a61461058d578063813d9bd414610597576101a9565b806342b50a7a14610398578063484f4ea9146104315780634d8206ce14610465576101a9565b806305f4ac4c146101ae578063128a4ead14610239578063132e4f3c14610267578063163de5e5146102955780631a0fa129146102b35780633fadf2cb14610340575b600080fd5b61023760048036036101008110156101c557600080fd5b81019080803573ffffffffffffffffffffffffffffffffffffffff169060200190929190803590602001909291908035906020019092919080359060200190929190803590602001909291908035906020019092919080359060200190929190803590602001909291905050506108e8565b005b6102656004803603602081101561024f57600080fd5b8101908080359060200190929190505050610b60565b005b6102936004803603602081101561027d57600080fd5b8101908080359060200190929190505050610d68565b005b61029d610e60565b6040518082815260200191505060405180910390f35b6102e9600480360360408110156102c957600080fd5b810190808035906020019092919080359060200190929190505050610e66565b6040518080602001828103825283818151815260200191508051906020019060200280838360005b8381101561032c578082015181840152602081019050610311565b505050509050019250505060405180910390f35b6103966004803603606081101561035657600080fd5b81019080803573ffffffffffffffffffffffffffffffffffffffff1690602001909291908035906020019092919080359060200190929190505050610ee6565b005b6103c4600480360360208110156103ae57600080fd5b8101908080359060200190929190505050611008565b604051808b73ffffffffffffffffffffffffffffffffffffffff1681526020018a815260200189815260200188815260200187815260200186815260200185815260200184815260200183815260200182151581526020019a505050505050505050505060405180910390f35b610439611157565b604051808273ffffffffffffffffffffffffffffffffffffffff16815260200191505060405180910390f35b61046d61117d565b6040518082815260200191505060405180910390f35b6104c56004803603602081101561049957600080fd5b81019080803573ffffffffffffffffffffffffffffffffffffffff169060200190929190505050611183565b005b610509600480360360208110156104dd57600080fd5b81019080803573ffffffffffffffffffffffffffffffffffffffff1690602001909291905050506112f7565b604051808573ffffffffffffffffffffffffffffffffffffffff168152602001806020018481526020018315158152602001828103825285818151815260200191508051906020019060200280838360005b8381101561057657808201518184015260208101905061055b565b505050509050019550505050505060405180910390f35b610595611497565b005b61059f61161d565b6040518082815260200191505060405180910390f35b61060b600480360360608110156105cb57600080fd5b8101908080359060200190929190803573ffffffffffffffffffffffffffffffffffffffff16906020019092919080359060200190929190505050611623565b005b61061561183a565b604051808273ffffffffffffffffffffffffffffffffffffffff16815260200191505060405180910390f35b610649611863565b6040518082815260200191505060405180910390f35b610667611869565b6040518082815260200191505060405180910390f35b610685611873565b6040518082815260200191505060405180910390f35b6106dd600480360360208110156106b157600080fd5b81019080803573ffffffffffffffffffffffffffffffffffffffff169060200190929190505050611879565b005b6106e7611abb565b6040518080602001868152602001858152602001848152602001838152602001828103825287818151815260200191508051906020019060200280838360005b83811015610742578082015181840152602081019050610727565b50505050905001965050505050505060405180910390f35b61079c6004803603602081101561077057600080fd5b81019080803573ffffffffffffffffffffffffffffffffffffffff169060200190929190505050611ba2565b005b6107a6611d16565b6040518082815260200191505060405180910390f35b6107c4611d20565b6040518082815260200191505060405180910390f35b610826600480360360408110156107f057600080fd5b81019080803573ffffffffffffffffffffffffffffffffffffffff16906020019092919080359060200190929190505050611d2a565b005b61086a6004803603602081101561083e57600080fd5b81019080803573ffffffffffffffffffffffffffffffffffffffff169060200190929190505050612105565b005b6108ae6004803603602081101561088257600080fd5b81019080803573ffffffffffffffffffffffffffffffffffffffff16906020019092919050505061229e565b005b6108e6600480360360408110156108c657600080fd5b8101908080359060200190929190803590602001909291905050506124a9565b005b60011515601360003373ffffffffffffffffffffffffffffffffffffffff1673ffffffffffffffffffffffffffffffffffffffff16815260200190815260200160002060009054906101000a900460ff161515146109ae576040517f08c379a00000000000000000000000000000000000000000000000000000000081526004018080602001828103825260098152602001807f6e6f20616363657373000000000000000000000000000000000000000000000081525060200191505060405180910390fd5b60126000858152602001908152602001600020600087815260200190815260200160002060009054906101000a900460ff1615610a53576040517f08c379a000000000000000000000000000000000000000000000000000000000815260040180806020018281038252601c8152602001807f5468697320626c6f636b20686173206265656e20696e7665737465640000000081525060200191505060405180910390fd5b610a63888888888888888861277a565b600073ffffffffffffffffffffffffffffffffffffffff16600d60008a73ffffffffffffffffffffffffffffffffffffffff1673ffffffffffffffffffffffffffffffffffffffff16815260200190815260200160002060000160009054906101000a900473ffffffffffffffffffffffffffffffffffffffff1673ffffffffffffffffffffffffffffffffffffffff161415610b0457610b0388612aec565b5b600160126000868152602001908152602001600020600088815260200190815260200160002060006101000a81548160ff021916908315150217905550610b4b8487612d20565b60018054016001819055505050505050505050565b60011515601360003373ffffffffffffffffffffffffffffffffffffffff1673ffffffffffffffffffffffffffffffffffffffff16815260200190815260200160002060009054906101000a900460ff16151514610c26576040517f08c379a00000000000000000000000000000000000000000000000000000000081526004018080602001828103825260098152602001807f6e6f20616363657373000000000000000000000000000000000000000000000081525060200191505060405180910390fd5b80600860009054906101000a900473ffffffffffffffffffffffffffffffffffffffff1673ffffffffffffffffffffffffffffffffffffffff166370a08231306040518263ffffffff1660e01b8152600401808273ffffffffffffffffffffffffffffffffffffffff16815260200191505060206040518083038186803b158015610cb057600080fd5b505afa158015610cc4573d6000803e3d6000fd5b505050506040513d6020811015610cda57600080fd5b81019080805190602001909291905050501015610cf657600080fd5b610d65600560009054906101000a900473ffffffffffffffffffffffffffffffffffffffff1682600860009054906101000a900473ffffffffffffffffffffffffffffffffffffffff1673ffffffffffffffffffffffffffffffffffffffff16612ed19092919063ffffffff16565b50565b60011515601360003373ffffffffffffffffffffffffffffffffffffffff1673ffffffffffffffffffffffffffffffffffffffff16815260200190815260200160002060009054906101000a900460ff16151514610e2e576040517f08c379a00000000000000000000000000000000000000000000000000000000081526004018080602001828103825260098152602001807f6e6f20616363657373000000000000000000000000000000000000000000000081525060200191505060405180910390fd5b6001600e600083815260200190815260200160002060090160006101000a81548160ff02191690831515021790555050565b60015481565b6060601160008481526020019081526020016000206000838152602001908152602001600020600001805480602002602001604051908101604052809291908181526020018280548015610ed957602002820191906000526020600020905b815481526020019060010190808311610ec5575b5050505050905092915050565b60011515601360003373ffffffffffffffffffffffffffffffffffffffff1673ffffffffffffffffffffffffffffffffffffffff16815260200190815260200160002060009054906101000a900460ff16151514610fac576040517f08c379a00000000000000000000000000000000000000000000000000000000081526004018080602001828103825260098152602001807f6e6f20616363657373000000000000000000000000000000000000000000000081525060200191505060405180910390fd5b610fb68383612f73565b6110038382600860009054906101000a900473ffffffffffffffffffffffffffffffffffffffff1673ffffffffffffffffffffffffffffffffffffffff16612ed19092919063ffffffff16565b505050565b60008060008060008060008060008061101f6135bb565b600e60008d8152602001908152602001600020604051806101400160405290816000820160009054906101000a900473ffffffffffffffffffffffffffffffffffffffff1673ffffffffffffffffffffffffffffffffffffffff1673ffffffffffffffffffffffffffffffffffffffff16815260200160018201548152602001600282015481526020016003820154815260200160048201548152602001600582015481526020016006820154815260200160078201548152602001600882015481526020016009820160009054906101000a900460ff1615151515815250509050806000015181602001518260400151836060015184608001518560a001518660c001518760e001518861010001518961012001519a509a509a509a509a509a509a509a509a509a50509193959799509193959799565b600860009054906101000a900473ffffffffffffffffffffffffffffffffffffffff1681565b60035481565b61118b613101565b73ffffffffffffffffffffffffffffffffffffffff1660008054906101000a900473ffffffffffffffffffffffffffffffffffffffff1673ffffffffffffffffffffffffffffffffffffffff161461124b576040517f08c379a00000000000000000000000000000000000000000000000000000000081526004018080602001828103825260208152602001807f4f776e61626c653a2063616c6c6572206973206e6f7420746865206f776e657281525060200191505060405180910390fd5b6000601360008373ffffffffffffffffffffffffffffffffffffffff1673ffffffffffffffffffffffffffffffffffffffff16815260200190815260200160002060006101000a81548160ff0219169083151502179055508073ffffffffffffffffffffffffffffffffffffffff167f3d4e864e63c21e8ae113db12f031ae02fd915dba35d143613d2cb3620c95ef98600060405180821515815260200191505060405180910390a250565b60006060600080600d60008673ffffffffffffffffffffffffffffffffffffffff1673ffffffffffffffffffffffffffffffffffffffff16815260200190815260200160002060000160009054906101000a900473ffffffffffffffffffffffffffffffffffffffff16600d60008773ffffffffffffffffffffffffffffffffffffffff1673ffffffffffffffffffffffffffffffffffffffff168152602001908152602001600020600101600d60008873ffffffffffffffffffffffffffffffffffffffff1673ffffffffffffffffffffffffffffffffffffffff16815260200190815260200160002060020154600d60008973ffffffffffffffffffffffffffffffffffffffff1673ffffffffffffffffffffffffffffffffffffffff16815260200190815260200160002060030160009054906101000a900460ff168280548060200260200160405190810160405280929190818152602001828054801561148157602002820191906000526020600020905b81548152602001906001019080831161146d575b5050505050925093509350935093509193509193565b61149f613101565b73ffffffffffffffffffffffffffffffffffffffff1660008054906101000a900473ffffffffffffffffffffffffffffffffffffffff1673ffffffffffffffffffffffffffffffffffffffff161461155f576040517f08c379a00000000000000000000000000000000000000000000000000000000081526004018080602001828103825260208152602001807f4f776e61626c653a2063616c6c6572206973206e6f7420746865206f776e657281525060200191505060405180910390fd5b600073ffffffffffffffffffffffffffffffffffffffff1660008054906101000a900473ffffffffffffffffffffffffffffffffffffffff1673ffffffffffffffffffffffffffffffffffffffff167f8be0079c531659141344cd1fd0a4f28419497f9722a3daafe3b4186f6b6457e060405160405180910390a360008060006101000a81548173ffffffffffffffffffffffffffffffffffffffff021916908373ffffffffffffffffffffffffffffffffffffffff160217905550565b60095481565b60011515601360003373ffffffffffffffffffffffffffffffffffffffff1673ffffffffffffffffffffffffffffffffffffffff16815260200190815260200160002060009054906101000a900460ff161515146116e9576040517f08c379a00000000000000000000000000000000000000000000000000000000081526004018080602001828103825260098152602001807f6e6f20616363657373000000000000000000000000000000000000000000000081525060200191505060405180910390fd5b82600860009054906101000a900473ffffffffffffffffffffffffffffffffffffffff1673ffffffffffffffffffffffffffffffffffffffff166370a08231306040518263ffffffff1660e01b8152600401808273ffffffffffffffffffffffffffffffffffffffff16815260200191505060206040518083038186803b15801561177357600080fd5b505afa158015611787573d6000803e3d6000fd5b505050506040513d602081101561179d57600080fd5b810190808051906020019092919050505010156117b957600080fd5b6001600e600083815260200190815260200160002060090160006101000a81548160ff0219169083151502179055506118358284600860009054906101000a900473ffffffffffffffffffffffffffffffffffffffff1673ffffffffffffffffffffffffffffffffffffffff16612ed19092919063ffffffff16565b505050565b60008060009054906101000a900473ffffffffffffffffffffffffffffffffffffffff16905090565b60045481565b6000600754905090565b60025481565b611881613101565b73ffffffffffffffffffffffffffffffffffffffff1660008054906101000a900473ffffffffffffffffffffffffffffffffffffffff1673ffffffffffffffffffffffffffffffffffffffff1614611941576040517f08c379a00000000000000000000000000000000000000000000000000000000081526004018080602001828103825260208152602001807f4f776e61626c653a2063616c6c6572206973206e6f7420746865206f776e657281525060200191505060405180910390fd5b7f2cc99a2c4915324daac22ebde3c1a312ba1074cc78eb6ba3fdfa22e7dd0d3579600860009054906101000a900473ffffffffffffffffffffffffffffffffffffffff1682604051808373ffffffffffffffffffffffffffffffffffffffff1681526020018273ffffffffffffffffffffffffffffffffffffffff1681526020019250505060405180910390a180600860006101000a81548173ffffffffffffffffffffffffffffffffffffffff021916908373ffffffffffffffffffffffffffffffffffffffff160217905550600860009054906101000a900473ffffffffffffffffffffffffffffffffffffffff1673ffffffffffffffffffffffffffffffffffffffff1663313ce5676040518163ffffffff1660e01b815260040160206040518083038186803b158015611a7757600080fd5b505afa158015611a8b573d6000803e3d6000fd5b505050506040513d6020811015611aa157600080fd5b810190808051906020019092919050505060098190555050565b6060600080600080600c60006003548152602001908152602001600020600201600c6000600354815260200190815260200160002060030154600c6000600354815260200190815260200160002060040154600c6000600354815260200190815260200160002060050154600c600060035481526020019081526020016000206006015484805480602002602001604051908101604052809291908181526020018280548015611b8a57602002820191906000526020600020905b815481526020019060010190808311611b76575b50505050509450945094509450945094509091929394565b611baa613101565b73ffffffffffffffffffffffffffffffffffffffff1660008054906101000a900473ffffffffffffffffffffffffffffffffffffffff1673ffffffffffffffffffffffffffffffffffffffff1614611c6a576040517f08c379a00000000000000000000000000000000000000000000000000000000081526004018080602001828103825260208152602001807f4f776e61626c653a2063616c6c6572206973206e6f7420746865206f776e657281525060200191505060405180910390fd5b6001601360008373ffffffffffffffffffffffffffffffffffffffff1673ffffffffffffffffffffffffffffffffffffffff16815260200190815260200160002060006101000a81548160ff0219169083151502179055508073ffffffffffffffffffffffffffffffffffffffff167f3d4e864e63c21e8ae113db12f031ae02fd915dba35d143613d2cb3620c95ef98600160405180821515815260200191505060405180910390a250565b6000600454905090565b6000600654905090565b60011515601360003373ffffffffffffffffffffffffffffffffffffffff1673ffffffffffffffffffffffffffffffffffffffff16815260200190815260200160002060009054906101000a900460ff16151514611df0576040517f08c379a00000000000000000000000000000000000000000000000000000000081526004018080602001828103825260098152602001807f6e6f20616363657373000000000000000000000000000000000000000000000081525060200191505060405180910390fd5b600073ffffffffffffffffffffffffffffffffffffffff16600d60008473ffffffffffffffffffffffffffffffffffffffff1673ffffffffffffffffffffffffffffffffffffffff16815260200190815260200160002060000160009054906101000a900473ffffffffffffffffffffffffffffffffffffffff1673ffffffffffffffffffffffffffffffffffffffff161415611e9157611e9082612aec565b5b600d60008373ffffffffffffffffffffffffffffffffffffffff1673ffffffffffffffffffffffffffffffffffffffff16815260200190815260200160002060030160009054906101000a900460ff16611fa4576001600d60008473ffffffffffffffffffffffffffffffffffffffff1673ffffffffffffffffffffffffffffffffffffffff16815260200190815260200160002060030160006101000a81548160ff0219169083151502179055506010829080600181540180825580915050600190039060005260206000200160009091909190916101000a81548173ffffffffffffffffffffffffffffffffffffffff021916908373ffffffffffffffffffffffffffffffffffffffff1602179055505b611ff981600d60008573ffffffffffffffffffffffffffffffffffffffff1673ffffffffffffffffffffffffffffffffffffffff1681526020019081526020016000206002015461310990919063ffffffff16565b600d60008473ffffffffffffffffffffffffffffffffffffffff1673ffffffffffffffffffffffffffffffffffffffff1681526020019081526020016000206002018190555061206a81600c600060035481526020019081526020016000206005015461310990919063ffffffff16565b600c600060035481526020019081526020016000206005018190555061209b8160065461310990919063ffffffff16565b6006819055508173ffffffffffffffffffffffffffffffffffffffff167ffc37cb9d3daf5d487c9f2330143bc8f966cb5baf5c4d0b3735ace368e07c12f2826003544260405180848152602001838152602001828152602001935050505060405180910390a25050565b61210d613101565b73ffffffffffffffffffffffffffffffffffffffff1660008054906101000a900473ffffffffffffffffffffffffffffffffffffffff1673ffffffffffffffffffffffffffffffffffffffff16146121cd576040517f08c379a00000000000000000000000000000000000000000000000000000000081526004018080602001828103825260208152602001807f4f776e61626c653a2063616c6c6572206973206e6f7420746865206f776e657281525060200191505060405180910390fd5b7f8353f2ec2d93e5b3f4e1e9f3fa7ce3c8e5ec8bfd6c0fc95f39f6ed23033e7bc6600560009054906101000a900473ffffffffffffffffffffffffffffffffffffffff1682604051808373ffffffffffffffffffffffffffffffffffffffff1681526020018273ffffffffffffffffffffffffffffffffffffffff1681526020019250505060405180910390a180600560006101000a81548173ffffffffffffffffffffffffffffffffffffffff021916908373ffffffffffffffffffffffffffffffffffffffff16021790555050565b6122a6613101565b73ffffffffffffffffffffffffffffffffffffffff1660008054906101000a900473ffffffffffffffffffffffffffffffffffffffff1673ffffffffffffffffffffffffffffffffffffffff1614612366576040517f08c379a00000000000000000000000000000000000000000000000000000000081526004018080602001828103825260208152602001807f4f776e61626c653a2063616c6c6572206973206e6f7420746865206f776e657281525060200191505060405180910390fd5b600073ffffffffffffffffffffffffffffffffffffffff168173ffffffffffffffffffffffffffffffffffffffff1614156123ec576040517f08c379a00000000000000000000000000000000000000000000000000000000081526004018080602001828103825260268152602001806137346026913960400191505060405180910390fd5b8073ffffffffffffffffffffffffffffffffffffffff1660008054906101000a900473ffffffffffffffffffffffffffffffffffffffff1673ffffffffffffffffffffffffffffffffffffffff167f8be0079c531659141344cd1fd0a4f28419497f9722a3daafe3b4186f6b6457e060405160405180910390a3806000806101000a81548173ffffffffffffffffffffffffffffffffffffffff021916908373ffffffffffffffffffffffffffffffffffffffff16021790555050565b60011515601360003373ffffffffffffffffffffffffffffffffffffffff1673ffffffffffffffffffffffffffffffffffffffff16815260200190815260200160002060009054906101000a900460ff1615151461256f576040517f08c379a00000000000000000000000000000000000000000000000000000000081526004018080602001828103825260098152602001807f6e6f20616363657373000000000000000000000000000000000000000000000081525060200191505060405180910390fd5b81600c60006003548152602001908152602001600020600101819055506001600c6000600354815260200190815260200160002060070160006101000a81548160ff0219169083151502179055506125d3600160035461310990919063ffffffff16565b6003819055506125ed60018361310990919063ffffffff16565b6004819055506125fb613626565b600c600060035481526020019081526020016000206040518061010001604052908160008201548152602001600182015481526020016002820180548060200260200160405190810160405280929190818152602001828054801561267f57602002820191906000526020600020905b81548152602001906001019080831161266b575b50505050508152602001600382015481526020016004820154815260200160058201548152602001600682015481526020016007820160009054906101000a900460ff1615151515815250509050600454816000018181525050818160c001818152505080600c600060035481526020019081526020016000206000820151816000015560208201518160010155604082015181600201908051906020019061272992919061366d565b50606082015181600301556080820151816004015560a0820151816005015560c0820151816006015560e08201518160070160006101000a81548160ff021916908315150217905550905050505050565b6127826135bb565b600e60006001548152602001908152602001600020604051806101400160405290816000820160009054906101000a900473ffffffffffffffffffffffffffffffffffffffff1673ffffffffffffffffffffffffffffffffffffffff1673ffffffffffffffffffffffffffffffffffffffff16815260200160018201548152602001600282015481526020016003820154815260200160048201548152602001600582015481526020016006820154815260200160078201548152602001600882015481526020016009820160009054906101000a900460ff161515151581525050905088816000019073ffffffffffffffffffffffffffffffffffffffff16908173ffffffffffffffffffffffffffffffffffffffff16815250508781602001818152505086816040018181525050858160600181815250508481608001818152505060035481610100018181525050838160a0018181525050828160c0018181525050818160e001818152505080600e6000600154815260200190815260200160002060008201518160000160006101000a81548173ffffffffffffffffffffffffffffffffffffffff021916908373ffffffffffffffffffffffffffffffffffffffff1602179055506020820151816001015560408201518160020155606082015181600301556080820151816004015560a0820151816005015560c0820151816006015560e0820151816007015561010082015181600801556101208201518160090160006101000a81548160ff021916908315150217905550905050600f6001549080600181540180825580915050600190039060005260206000200160009091909190915055600d60008a73ffffffffffffffffffffffffffffffffffffffff1673ffffffffffffffffffffffffffffffffffffffff1681526020019081526020016000206001016001549080600181540180825580915050600190039060005260206000200160009091909190915055612a8486600c600060035481526020019081526020016000206003015461310990919063ffffffff16565b600c6000600354815260200190815260200160002060030181905550600c600060035481526020019081526020016000206002016001549080600181540180825580915050600190039060005260206000200160009091909190915055505050505050505050565b612af46136ba565b600d60008373ffffffffffffffffffffffffffffffffffffffff1673ffffffffffffffffffffffffffffffffffffffff1681526020019081526020016000206040518060800160405290816000820160009054906101000a900473ffffffffffffffffffffffffffffffffffffffff1673ffffffffffffffffffffffffffffffffffffffff1673ffffffffffffffffffffffffffffffffffffffff16815260200160018201805480602002602001604051908101604052809291908181526020018280548015612be357602002820191906000526020600020905b815481526020019060010190808311612bcf575b50505050508152602001600282015481526020016003820160009054906101000a900460ff161515151581525050905081816000019073ffffffffffffffffffffffffffffffffffffffff16908173ffffffffffffffffffffffffffffffffffffffff168152505080600d60008473ffffffffffffffffffffffffffffffffffffffff1673ffffffffffffffffffffffffffffffffffffffff16815260200190815260200160002060008201518160000160006101000a81548173ffffffffffffffffffffffffffffffffffffffff021916908373ffffffffffffffffffffffffffffffffffffffff1602179055506020820151816001019080519060200190612cee92919061366d565b506040820151816002015560608201518160030160006101000a81548160ff0219169083151502179055509050505050565b60116000838152602001908152602001600020600082815260200190815260200160002060010160009054906101000a900460ff16612e7d57612d616136fa565b60116000848152602001908152602001600020600083815260200190815260200160002060405180604001604052908160008201805480602002602001604051908101604052809291908181526020018280548015612ddf57602002820191906000526020600020905b815481526020019060010190808311612dcb575b505050505081526020016001820160009054906101000a900460ff16151515158152505090506001816020019015159081151581525050806011600085815260200190815260200160002060008481526020019081526020016000206000820151816000019080519060200190612e5792919061366d565b5060208201518160010160006101000a81548160ff021916908315150217905550905050505b60116000838152602001908152602001600020600082815260200190815260200160002060000160015490806001815401808255809150506001900390600052602060002001600090919091909150555050565b612f6e8363a9059cbb60e01b8484604051602401808373ffffffffffffffffffffffffffffffffffffffff16815260200182815260200192505050604051602081830303815290604052907bffffffffffffffffffffffffffffffffffffffffffffffffffffffff19166020820180517bffffffffffffffffffffffffffffffffffffffffffffffffffffffff8381831617835250505050613191565b505050565b600d60008373ffffffffffffffffffffffffffffffffffffffff1673ffffffffffffffffffffffffffffffffffffffff16815260200190815260200160002060030160009054906101000a900460ff16612fcc57600080fd5b80600d60008473ffffffffffffffffffffffffffffffffffffffff1673ffffffffffffffffffffffffffffffffffffffff16815260200190815260200160002060020154101561301b57600080fd5b61307081600d60008573ffffffffffffffffffffffffffffffffffffffff1673ffffffffffffffffffffffffffffffffffffffff1681526020019081526020016000206002015461328090919063ffffffff16565b600d60008473ffffffffffffffffffffffffffffffffffffffff1673ffffffffffffffffffffffffffffffffffffffff168152602001908152602001600020600201819055506130e181600c600060035481526020019081526020016000206004015461310990919063ffffffff16565b506130f78160065461328090919063ffffffff16565b6006819055505050565b600033905090565b600080828401905083811015613187576040517f08c379a000000000000000000000000000000000000000000000000000000000815260040180806020018281038252601b8152602001807f536166654d6174683a206164646974696f6e206f766572666c6f77000000000081525060200191505060405180910390fd5b8091505092915050565b60606131f3826040518060400160405280602081526020017f5361666545524332303a206c6f772d6c6576656c2063616c6c206661696c65648152508573ffffffffffffffffffffffffffffffffffffffff166132ca9092919063ffffffff16565b905060008151111561327b5780806020019051602081101561321457600080fd5b810190808051906020019092919050505061327a576040517f08c379a000000000000000000000000000000000000000000000000000000000815260040180806020018281038252602a81526020018061375a602a913960400191505060405180910390fd5b5b505050565b60006132c283836040518060400160405280601e81526020017f536166654d6174683a207375627472616374696f6e206f766572666c6f7700008152506132e2565b905092915050565b60606132d984846000856133a2565b90509392505050565b600083831115829061338f576040517f08c379a00000000000000000000000000000000000000000000000000000000081526004018080602001828103825283818151815260200191508051906020019080838360005b83811015613354578082015181840152602081019050613339565b50505050905090810190601f1680156133815780820380516001836020036101000a031916815260200191505b509250505060405180910390fd5b5060008385039050809150509392505050565b60606133ad856135a8565b61341f576040517f08c379a000000000000000000000000000000000000000000000000000000000815260040180806020018281038252601d8152602001807f416464726573733a2063616c6c20746f206e6f6e2d636f6e747261637400000081525060200191505060405180910390fd5b600060608673ffffffffffffffffffffffffffffffffffffffff1685876040518082805190602001908083835b6020831061346f578051825260208201915060208101905060208303925061344c565b6001836020036101000a03801982511681845116808217855250505050505090500191505060006040518083038185875af1925050503d80600081146134d1576040519150601f19603f3d011682016040523d82523d6000602084013e6134d6565b606091505b509150915081156134eb5780925050506135a0565b6000815111156134fe5780518082602001fd5b836040517f08c379a00000000000000000000000000000000000000000000000000000000081526004018080602001828103825283818151815260200191508051906020019080838360005b8381101561356557808201518184015260208101905061354a565b50505050905090810190601f1680156135925780820380516001836020036101000a031916815260200191505b509250505060405180910390fd5b949350505050565b600080823b905060008111915050919050565b604051806101400160405280600073ffffffffffffffffffffffffffffffffffffffff16815260200160008152602001600081526020016000815260200160008152602001600081526020016000815260200160008152602001600081526020016000151581525090565b604051806101000160405280600081526020016000815260200160608152602001600081526020016000815260200160008152602001600081526020016000151581525090565b8280548282559060005260206000209081019282156136a9579160200282015b828111156136a857825182559160200191906001019061368d565b5b5090506136b69190613716565b5090565b6040518060800160405280600073ffffffffffffffffffffffffffffffffffffffff16815260200160608152602001600081526020016000151581525090565b6040518060400160405280606081526020016000151581525090565b5b8082111561372f576000816000905550600101613717565b509056fe4f776e61626c653a206e6577206f776e657220697320746865207a65726f20616464726573735361666545524332303a204552433230206f7065726174696f6e20646964206e6f742073756363656564a264697066735822122038c7ebf0c9df3175caa349c46a88a797ddf00b25fd23afb50a53e811fc9ace5f64736f6c634300060c0033",
  "immutableReferences": {},
  "source": "pragma solidity ^0.6.9;\r\nimport '@openzeppelin/contracts/math/SafeMath.sol';\r\nimport '@openzeppelin/contracts/access/Ownable.sol';\r\n// import \"@openzeppelin/contracts/token/ERC20/ERC20.sol\";\r\nimport '@openzeppelin/contracts/token/ERC20/IERC20.sol';\r\nimport '@openzeppelin/contracts/token/ERC20/SafeERC20.sol';\r\ncontract GoldData is Ownable {\r\n  using SafeMath for uint256;\r\n  using SafeERC20 for IERC20;\r\n  \r\n  uint public orderId = 1;\r\n  uint public perDayBlock = 28800;\r\n  uint public dayNum = 1;\r\n  uint public curDayStartBlock;\r\n  address pool;\r\n  uint marketToTalMoney;\r\n  uint singleMarketInvest;\r\n  address public BUSD;\r\n  uint public BUSDDecimals;\r\n  // uint public tokenBethAddress = address('');\r\n  // uint public tokenBusdAddress = address('');\r\n   uint up = 1;\r\n   uint down = 0;\r\n  struct Cycle {\r\n    uint startBlock;\r\n    uint endBlock;\r\n    uint[] records;\r\n    uint totalInvest;\r\n    uint totalPay;\r\n    uint marketAdd;\r\n    uint dayMarketTotal;\r\n    bool isEnd;\r\n  }\r\n  mapping(uint => Cycle) cycles;\r\n\r\n  struct User{\r\n    address userAddress;\r\n    // address introAddress;\r\n    uint[] records;\r\n    uint marketProvide;\r\n    bool isMarker;\r\n  }\r\n  mapping(address => User) users;\r\n  struct Record{\r\n    address investor;\r\n    uint investType;\r\n    uint minute;\r\n    uint investAmount;\r\n    uint investBlock;\r\n    uint investTime;\r\n    uint openBlock;\r\n    uint busdPerBeth;\r\n    uint investDayNum;\r\n    bool isOpen;\r\n  }\r\n  mapping(uint => Record) records;\r\n  uint[] recordIds;\r\n  address[] marketers;\r\n  struct BlockInfo{\r\n    uint[] records;\r\n    bool isExist;\r\n  }\r\n  mapping(uint => mapping(uint => BlockInfo)) blocks;\r\n  mapping(uint => mapping(uint => bool)) blockIsInvests;\r\n  /* \r\n   * accessAllowed\r\n   * \r\n  */   \r\n  mapping (address => bool) private accessAllowed;\r\n\r\n  event AccessAllowedAddress(address indexed _addr, bool _access);\r\n  event SetBUSDAddress(address _old, address _new);\r\n  event SetPoolAddress(address _old, address _new);\r\n  event AddPoolMoney(address indexed _user, uint _amount, uint _dayNum, uint _time);\r\n  constructor (address _BUSD, address _pool) public {\r\n    curDayStartBlock = block.number;\r\n    marketToTalMoney = 0;\r\n    Cycle memory _cycles = cycles[dayNum];\r\n    _cycles.startBlock = curDayStartBlock;\r\n    cycles[dayNum] = _cycles;\r\n    BUSD = _BUSD;\r\n    pool = _pool;\r\n    BUSDDecimals = IERC20(BUSD).decimals();\r\n    singleMarketInvest = 10000 * 10 ** BUSDDecimals;\r\n  }\r\n  /* \r\n   *  accessAllowed \r\n  */   \r\n  modifier platform() {\r\n    require(accessAllowed[msg.sender] == true, 'no access');\r\n    _;\r\n  }\r\n   /*  accessAllowed \r\n  */ \r\n  function allowAccess(address _addr) onlyOwner public {\r\n    accessAllowed[_addr] = true;\r\n    emit AccessAllowedAddress(_addr, true);\r\n  }\r\n   /* \r\n   *  accessAllowed \r\n  */ \r\n  function denyAccess(address _addr) onlyOwner public {\r\n    accessAllowed[_addr] = false;\r\n    emit AccessAllowedAddress(_addr, false);\r\n  }\r\n  function setBUSDAddress(address _BUSD) onlyOwner public {\r\n    emit SetBUSDAddress(BUSD, _BUSD);\r\n    BUSD = _BUSD;\r\n    BUSDDecimals = IERC20(BUSD).decimals();\r\n  }\r\n  function setPoolAddress(address _pool) onlyOwner public {\r\n    emit SetPoolAddress(pool, _pool);\r\n    pool = _pool;\r\n  }\r\n  function getMarketToTalMoney () external view returns(uint) {\r\n    return marketToTalMoney;\r\n  }\r\n  function getSingleMarketInvest () external view returns(uint) {\r\n    return singleMarketInvest;\r\n  }\r\n  function getOrderById (uint _id) external view returns (\r\n    address investor,\r\n    uint investType,\r\n    uint minute,\r\n    uint investAmount,\r\n    uint investBlock,\r\n    uint investTime,\r\n    uint openBlock,\r\n    uint busdPerBeth,\r\n    uint investDayNum,\r\n    bool isOpen){\r\n      Record memory _record = records[_id];\r\n     return (\r\n        _record.investor,\r\n        _record.investType,\r\n        _record.minute,\r\n        _record.investAmount,\r\n        _record.investBlock,\r\n        _record.investTime,\r\n        _record.openBlock,\r\n        _record.busdPerBeth,\r\n        _record.investDayNum,\r\n        _record.isOpen\r\n     );\r\n  }\r\n  function getBlockRecords(uint _block, uint _minute) public view returns(uint[] memory ids) {\r\n    return blocks[_block][_minute].records;\r\n  }\r\n  function getUserInfo (address _user) public view returns(\r\n    address userAddress,\r\n    uint[] memory _recordIds,\r\n    uint marketProvide,\r\n    bool isMarker\r\n  ) {\r\n    return (users[_user].userAddress,\r\n    users[_user].records,\r\n    users[_user].marketProvide,\r\n    users[_user].isMarker);\r\n  }\r\n  function getCurCycleData () external view returns(\r\n    uint[] memory _recordIds,\r\n    uint totalInvest,\r\n    uint totalPay,\r\n    uint marketAdd,\r\n    uint dayMarketTotal\r\n  ) {\r\n    return (cycles[dayNum].records,\r\n    cycles[dayNum].totalInvest,\r\n    cycles[dayNum].totalPay,\r\n    cycles[dayNum].marketAdd,\r\n    cycles[dayNum].dayMarketTotal);\r\n  }\r\n  function getCurDayStartBlock () external view returns(uint) {\r\n    return curDayStartBlock;\r\n  }\r\n  function invest(\r\n    address _investor,\r\n    uint _investType,\r\n    uint _minute,\r\n    uint _investAmount,\r\n    uint _investBlock,\r\n    uint _investTime,\r\n    uint _openBlock,\r\n    uint _busdPerBeth\r\n  ) external platform {\r\n    require(!blockIsInvests[_investBlock][_minute], 'This block has been invested');\r\n    _addRecord(_investor, _investType, _minute, _investAmount, _investBlock, _investTime, _openBlock, _busdPerBeth);\r\n    if (users[_investor].userAddress == address(0)) {\r\n      _addUser(_investor);\r\n    }\r\n    blockIsInvests[_investBlock][_minute] = true;\r\n    _addBlock(_investBlock, _minute);\r\n    orderId = orderId + 1;\r\n  }\r\n  function _addBlock(uint _block, uint _minute) private {\r\n    if (!blocks[_block][_minute].isExist) {\r\n      BlockInfo memory _blockInfo = blocks[_block][_minute];\r\n      _blockInfo.isExist = true;\r\n      blocks[_block][_minute] = _blockInfo;\r\n    }\r\n    blocks[_block][_minute].records.push(orderId);\r\n  }\r\n  function _addRecord (\r\n    address _investor,\r\n    uint _investType,\r\n    uint _minute,\r\n    uint _investAmount,\r\n    uint _investBlock,\r\n    uint _investTime,\r\n    uint _openBlock,\r\n    uint _busdPerBeth) private {\r\n      Record memory _record = records[orderId];\r\n      _record.investor = _investor;\r\n      _record.investType = _investType;\r\n      _record.minute = _minute;\r\n      _record.investAmount = _investAmount;\r\n      _record.investBlock = _investBlock;\r\n      _record.investDayNum = dayNum;\r\n      _record.investTime = _investTime;\r\n      _record.openBlock = _openBlock;\r\n      _record.busdPerBeth = _busdPerBeth;\r\n      records[orderId] = _record;\r\n      recordIds.push(orderId);\r\n      users[_investor].records.push(orderId);\r\n      cycles[dayNum].totalInvest = cycles[dayNum].totalInvest.add(_investAmount);\r\n      cycles[dayNum].records.push(orderId);\r\n    }\r\n    // function _addUser (address _investor, address _intro) private {\r\n    //   User memory _user = users[_investor];\r\n    //   _user.userAddress = _investor;\r\n    //   _user.introAddress = _intro;\r\n    //   _user.marketProvide = 0;\r\n    // }\r\n    function _addUser (address _investor) private {\r\n      User memory _user = users[_investor];\r\n      _user.userAddress = _investor;\r\n      users[_investor] = _user;\r\n    }\r\n   function changeCycle(uint _block, uint _dayMarketTotal) external platform {\r\n      cycles[dayNum].endBlock = _block;\r\n      cycles[dayNum].isEnd = true;\r\n      // uint oldDay = dayNum;\r\n      dayNum = dayNum.add(1);\r\n      curDayStartBlock = _block.add(1);\r\n      Cycle memory _newCycle = cycles[dayNum];\r\n      _newCycle.startBlock = curDayStartBlock;\r\n      _newCycle.dayMarketTotal = _dayMarketTotal;\r\n      cycles[dayNum] = _newCycle;\r\n      \r\n    }\r\n    function transferPool(uint _amount) external platform {\r\n      require(IERC20(BUSD).balanceOf(address(this)) >= _amount);\r\n      IERC20(BUSD).safeTransfer(pool, _amount);\r\n    }\r\n    function win(uint _amount, address _user,uint _id) external platform {\r\n      require(IERC20(BUSD).balanceOf(address(this)) >= _amount);\r\n      records[_id].isOpen = true;\r\n      IERC20(BUSD).safeTransfer(_user, _amount);\r\n    }\r\n    function fail (uint _id) external platform {\r\n      records[_id].isOpen = true;\r\n    }\r\n    function addPoolMoney (address _user, uint _amount) external platform {\r\n      if (users[_user].userAddress == address(0)) {\r\n        _addUser(_user);\r\n      }\r\n      if (!users[_user].isMarker) {\r\n        users[_user].isMarker = true;\r\n        marketers.push(_user);\r\n      }\r\n      users[_user].marketProvide = users[_user].marketProvide.add(_amount);\r\n      cycles[dayNum].marketAdd = cycles[dayNum].marketAdd.add(_amount);\r\n      marketToTalMoney = marketToTalMoney.add(_amount);\r\n      emit AddPoolMoney(_user, _amount, dayNum, block.timestamp);\r\n    }\r\n    function withdrawPool (address _user, uint _amount) private{\r\n      require(users[_user].isMarker);\r\n      require(users[_user].marketProvide >= _amount);\r\n      users[_user].marketProvide = users[_user].marketProvide.sub(_amount);\r\n      cycles[dayNum].totalPay.add(_amount);\r\n      marketToTalMoney = marketToTalMoney.sub(_amount);\r\n    }\r\n   function withdrawPoolMoney (address _user, uint _amount, uint _trueAmount)  external platform  {\r\n     withdrawPool(_user, _amount);\r\n     IERC20(BUSD).safeTransfer(_user, _trueAmount);\r\n   }\r\n}",
  "sourcePath": "E:/contractProject/BSN/contracts/BSNData.sol",
  "compiler": {
    "name": "solc",
    "version": "0.6.12+commit.27d51765.Emscripten.clang"
  },
  "schemaVersion": "3.2.5",
  "updatedAt": "2021-03-06T02:41:40.971Z",
  "devdoc": {
    "kind": "dev",
    "methods": {
      "owner()": {
        "details": "Returns the address of the current owner."
      },
      "renounceOwnership()": {
        "details": "Leaves the contract without owner. It will not be possible to call `onlyOwner` functions anymore. Can only be called by the current owner. NOTE: Renouncing ownership will leave the contract without an owner, thereby removing any functionality that is only available to the owner."
      },
      "transferOwnership(address)": {
        "details": "Transfers ownership of the contract to a new account (`newOwner`). Can only be called by the current owner."
      }
    },
    "version": 1
  },
  "userdoc": {
    "kind": "user",
    "methods": {},
    "version": 1
  }
}